:020000040800F2
:1000000068060020CD010008D5010008D7010008CE
:10001000D9010008DB010008DD0100080000000034
:10002000000000000000000000000000DF010008E8
:10003000E101000800000000E3010008E5010008FC
:10004000E7010008E7010008E7010008E7010008F0
:10005000E7010008E7010008E7010008E7010008E0
:10006000E7010008E7010008E7010008E7010008D0
:10007000E7010008E7010008E7010008E7010008C0
:10008000E7010008E7010008E7010008E7010008B0
:10009000E7010008E7010008E7010008E7010008A0
:1000A000E7010008E7010008E7010008E701000890
:1000B000E7010008E7010008E7010008E701000880
:1000C000E7010008E7010008E7010008E701000870
:1000D000E7010008E7010008E7010008E701000860
:1000E000E7010008E7010008E7010008E701000850
:1000F000E7010008E7010008E7010008E701000840
:10010000E7010008E7010008E7010008E70100082F
:10011000E7010008E7010008E7010008E70100081F
:10012000E7010008E7010008E7010008E70100080F
:1001300000F002F800F03AF80AA090E8000C8244BF
:100140008344AAF10107DA4501D100F02FF8AFF29C
:10015000090EBAE80F0013F0010F18BFFB1A43F0A5
:1001600001031847340E0000540E0000103A24BF5B
:1001700078C878C1FAD8520724BF30C830C144BF0C
:1001800004680C607047000000230024002500264E
:10019000103A28BF78C1FBD8520728BF30C148BFEA
:1001A0000B6070471FB51FBD10B510BD00F063F8A0
:1001B0001146FFF7F7FF00F02DFD00F081F803B4C2
:1001C000FFF7F2FF03BC00F089F800000948804700
:1001D00009480047FEE7FEE7FEE7FEE7FEE7FEE729
:1001E000FEE7FEE7FEE7FEE704480549054A064B41
:1001F00070470000D50300083101000868000020A6
:1002000068060020680200206802002010B5203A2D
:10021000C0F00B80B1E81850203AA0E81850B1E8BF
:100220001850A0E81850BFF4F5AF5FEA027C24BF75
:10023000B1E81850A0E8185044BF18C918C0BDE86C
:1002400010405FEA827C24BF51F8043B40F8043B35
:1002500008BF7047D20728BF31F8023B48BF11F8EA
:10026000012B28BF20F8023B48BF00F8012B704744
:10027000704770477047754600F02CF8AE46050091
:100280006946534620F00700854618B020B5FFF7B1
:10029000ABFFBDE820404FF000064FF000074FF0E5
:1002A00000084FF0000B21F00701AC46ACE8C00994
:1002B000ACE8C009ACE8C009ACE8C0098D4670479D
:1002C00010B50446AFF300802046BDE81040FFF7AC
:1002D00076BF000000487047040000200149182044
:1002E000ABBEFEE7260002007047704710B500F075
:1002F00001F810BD0CB50020019000903348006853
:1003000040F480303149086000BF3048006800F494
:10031000003000900198401C0190009818B9019895
:10032000B0F5A06FF1D12948006800F4003010B199
:100330000120009001E0002000900098012843D1A6
:100340002348006840F01000214908600846006812
:1003500020F0030008600846006840F002000860D2
:100360001A4840681949486008464068486008468D
:10037000406840F4806048600846406820F47C1083
:1003800048600846406840F4E81048600846006845
:1003900040F08070086000BF0C48006800F00070FA
:1003A0000028F9D00948406820F003000749486058
:1003B0000846406840F00200486000BF03484068BB
:1003C00000F00C000828F9D10CBD0000001002401C
:1003D0000020024010B51348006840F001001149A8
:1003E000086008464068104908400E4948600846C1
:1003F00000680E4908400B4908600846006820F470
:10040000802008600846406820F4FE0048604FF4F1
:100410001F008860FFF76AFF4FF000600449086022
:1004200010BD0000001002400000FFF8FFFFF6FEC4
:1004300008ED00E010B500F099F910BD38B504469C
:1004400000F02AF80D49887800F074F800909DF8C3
:10045000000064F30100009000F014F800F01CF8B4
:100460000649897841F040009DF8001000F090F8AE
:1004700000F008F80248047038BD00003C0F000886
:10048000000000200348006840F0100001490860A7
:1004900070470000100801400348006840F48010D5
:1004A0000149086070470000100801400146204AD9
:1004B000117300BF1E4A128902F00102002AF9D00E
:1004C0001B4A128902F08002002AF3D1184A92894D
:1004D00000BF174A128902F08002002AF9D1144B9A
:1004E0001A7300BF124A128902F00102002AF9D0E1
:1004F0000F4A128902F08002002AF3D10C4A928935
:100500001206100C00220A4B1A7300BF084A128907
:1005100002F00102002AF9D0054A128902F0800295
:10052000002AF3D1024A9289D2B2104370470000E8
:100530000030014001461548017300BF134800898F
:1005400000F001000028F9D01048008900F0800078
:100550000028F3D10D48808900BF0C48008900F0C5
:1005600080000028F9D1094A107300BF07480089AC
:1005700000F001000028F9D00448008900F0800054
:100580000028F3D101488089C0B270470030014093
:10059000184A107300BF174A128902F00102002A9C
:1005A000F9D0144A128902F08002002AF3D1114ACC
:1005B000928900BF0F4A128902F08002002AF9D105
:1005C0000C4A117300BF0B4A128902F00102002A83
:1005D000F9D0084A128902F08002002AF3D1054AB4
:1005E000928900BF034A128902F08002002AF9D1E1
:1005F00070470000003001400549088000BF0449F1
:10060000091F098801F040010029F8D07047000057
:100610000438014000B5024603E01078FFF7ECFF14
:10062000521C10780028F8D100BD000001460D488A
:10063000017300BF0B48008900F001000028F9D0C9
:100640000848008900F080000028F3D100BF054869
:10065000008900F080000028F9D102488089C0B2EA
:1006600070470000003001401D48806940F00500DF
:100670001B4988611B4800681B49084019490860EC
:10068000084600681949084316490860084600688A
:10069000174908431349086012481030006840F0B9
:1006A00004001049103108600846006840F010004E
:1006B00008600B48806940F48050094988610D4802
:1006C000008840F49A700B4908800846808840F002
:1006D000040088800846008840F040000880704789
:1006E0000010024000080140FFF3333300011111F4
:1006F00000008088003001401948806940F0050002
:10070000174988611748006820F0C0001549086043
:100710000846006840F0800008600846006840F025
:10072000100008600846006820F440600860084631
:10073000006840F4806008600846006820F440705B
:1007400008600748806940F480400549886140F2AC
:1007500071200549088042F20C00091D088070478D
:1007600000100240040801400838014000B589B07B
:10077000FFF77AFF00F0C0F900F07EFA0020089041
:100780000021524800F0D6F941F2FF71504800F0C4
:10079000D1F900214F4800F0CDF94F4800F0DAF8C8
:1007A00008909DF8200020F0800080308DF8200017
:1007B000BDF82010484800F0BDF900BF474800F0E0
:1007C000C9F808909DF8200000F001000028F5D03D
:1007D000434800F0BFF808909DF8200020F0010089
:1007E000401C8DF820009DF8200020F00800083003
:1007F0008DF820009DF8200020F00400001D8DF8E9
:100800002000BDF82010364800F094F9354800F07B
:10081000A1F808909DF8200020F0E00060308DF8ED
:1008200020009DF8200020F0100010308DF82000EE
:100830009DF8200020F00200801C8DF820009DF81B
:10084000200020F00100401C8DF82000BDF8201091
:10085000244800F06FF940F2EE51234800F06AF9A5
:100860001521224800F066F90221214800F062F9C2
:100870000021204800F05EF900211F4800F05AF9DD
:1008800000211E4800F056F900211D4800F052F9E1
:1008900001211C4800F04EF91B4800F05BF808905D
:1008A0009DF8200020F0800080308DF82000BDF8F9
:1008B0002010154800F03EF91C2214A101A8FFF7F2
:1008C000A5FC01A8FFF7A6FE09B000BD480F00086F
:1008D0004C0F0008500F0008380F0008340F0008B4
:1008E000540F0008580F0008600F00085C0F000844
:1008F000840F0008880F00087C0F0008800F000894
:10090000740F0008780F0008900F000845434E321E
:10091000384A363020696E697420636F6D706C657B
:100920007465640A0000000070B505460E46FFF7C6
:10093000B3FD3A20FFF77AFE002405E0FF20FFF721
:1009400075FE2855601C84B2B442F7DBFFF79AFDB0
:1009500070BD00007CB504460025607861490978C7
:10096000884205D06078042802D06078FFF766FDE1
:10097000FFF792FD207830B1012817D0022816D059
:1009800003287CD127E0A078FFF7D4FD0546E07866
:1009900002280AD1FFF776FDFFF77EFDA178491CFA
:1009A000C8B2FFF7C7FD45EA002596E000BFA07872
:1009B000FFF77CFDC5B2E07802280BD1FFF762FD9E
:1009C000FFF76AFDA178491CC8B2FFF76FFD45EA41
:1009D000002085B281E044494878FFF72FFDFFF7FA
:1009E0005BFD0020019041498878FFF75FFDC0B2B0
:1009F0000190FFF747FDFFF74FFDA1783A4A927843
:100A000042F04000FFF7C4FDFFF73CFDFFF744FD57
:100A10009DF8040020F00100401C019033498978C2
:100A200041F040009DF80410FFF7B2FDFFF72AFDEA
:100A3000002001E000BF401CC828FBDB2C4948789F
:100A4000FFF7FCFC00BFFFF727FD29498878FFF777
:100A50002DFD0090FFF716FD9DF8000000F001004D
:100A60000028F0D1FFF70EFDFFF716FD1E4948786C
:100A7000FFF7E4FCFFF710FD1C49887800E02BE04D
:100A8000FFF714FDC0B20190FFF7FCFCFFF704FD77
:100A90009DF8040020F0010001901449897841F08C
:100AA00040009DF80410FFF773FDFFF7EBFCFFF724
:100AB000F3FC10498878FFF7F9FCC5B2FFF7E2FCB8
:100AC000FFF7EAFC0B498978491CC8B2FFF7EEFC36
:100AD00045EA002085B200E000BF00BFFFF7D2FC6E
:100AE00028467CBD00000020680F0008640F000845
:100AF0008C0F0008700F000810B5FFF7CDFCFF2029
:100B0000FFF794FDFFF7BEFC10BD70B505460E461D
:100B1000FFF7C2FC7A20FFF789FD002404E0285D7E
:100B2000FFF784FD601C04B2B442F8DBFFF7AAFCB7
:100B300070BD000038B504460D466078314909782B
:100B4000884205D06078042802D06078FFF776FCF0
:100B5000FFF7A2FC207830B1012805D0022804D08C
:100B600003284BD117E000BF00BFE9B2A27842F0E2
:100B70004000FFF70DFDE07802280BD1FFF782FC63
:100B8000FFF78AFC2912A278521CD2B242F0400030
:100B9000FFF7FEFC32E0A1781B4A927842F0400059
:100BA000FFF7F6FCFFF76EFCFFF776FCE9B2174A99
:100BB000927842F04000FFF7EBFCFFF763FCFFF791
:100BC0006BFC2912114A9278521CD2B242F04000BA
:100BD000FFF7DEFCFFF756FCFFF75EFC00BF0C489A
:100BE000FFF7B8FE0090FFF74DFCFFF755FC9DF8AE
:100BF000000000F001000028F1D100BF00BFFFF7A6
:100C000041FC38BD00000020680F00086C0F000890
:100C10008C0F0008FFF769FBFFF70CFC1348806995
:100C200040F01000114988611148406820F44000EC
:100C30000F4948600846406840F4001048604FF68D
:100C4000FF70C86010E000200949C860094800E052
:100C5000401E0028FCDC4FF6FF700549C8600548BF
:100C600000E0401E0028FCDCEDE700000010024020
:100C7000001001408096980070B5C6B0FFF73CFDAB
:100C800060A191E80D00C96842AC0DC4459161A313
:100C90000FCB3EAC0FC43C2262A12FA8FFF7B6FADF
:100CA0003C226FA120A8FFF7B1FA3C227BA111A83A
:100CB000FFF7ACFA382288A103A8FFF7A7FA0020B3
:100CC000029041F2342529469148FFF733FF9048BE
:100CD000FFF740FE02902FA8FFF79CFCBDF808002C
:100CE000A84204D03EA8FFF795FC00BFFEE742A84B
:100CF000FFF790FC00BF8748FFF72CFE02909DF89D
:100D0000080000F001000028F5D029468248FFF7CE
:100D100011FF8148FFF71EFE029020A8FFF77AFC22
:100D2000BDF80800A84204D03EA8FFF773FC00BF3E
:100D3000FEE742A8FFF76EFC43F68306314677488C
:100D4000FFF7F8FE7548FFF705FE029011A8FFF7C0
:100D500061FCBDF808004010B0EB660F04D03EA85F
:100D6000FFF758FC00BFFEE742A8FFF753FC6CA05A
:100D700000680190002000906A48FFF7EBFD0290A8
:100D80009DF8080020F0800080308DF80800BDF844
:100D900008106448FFF7CEFE00215D48FFF7CAFE49
:100DA00040F6FF716048FFF7C5FE4FF480515F4881
:100DB000FFF7C0FE042101A8FFF7A7FE4FF4805102
:100DC0005B48FFF7B7FE04216846FFF7ADFD03A8B7
:100DD000FFF720FC00240CE001A8005D1DF80410C2
:100DE000884204D03EA8FFF715FC00BFFEE7601C58
:100DF000C4B2042CF0DB42A8FFF70CFCFFF77CFE2A
:100E000046B070BD54657374207061737365640A75
:100E10000000000054657374206661696C65640AA3
:100E200000000000204D69645761726520546573AD
:100E300074313A20547279696E6720746F2077722A
:100E400069746520616E64207265616420746865F0
:100E5000204554482072656769737465720A000002
:100E60004D6964576172652054657374323A205439
:100E70007279696E6720746F20777269746520617A
:100E80006E64207265616420746865204D41432062
:100E900072656769737465720A0000004D69645772
:100EA0006172652054657374333A20547279696EA7
:100EB0006720746F20777269746520616E64207298
:100EC00065616420746865205048592072656769BF
:100ED000737465720A0000004D6964576172652081
:100EE00054657374343A20547279696E6720746F54
:100EF00020777269746520616E6420726561642078
:100F0000627566666572206D656D6F72790A0000A4
:100F1000480F0008340F0008600F0008940F000805
:100F200012345678380F00084C0F0008440F0008A0
:100F3000400F000800041D0100041E0100041F01F1
:100F400000000002000002020000080200000A0285
:100F500000000C0201020001010202010102040171
:100F600001020A0202021201020214010202160226
:100F70000202180201030001010301010103020141
:100F800001030301010304010103050102030A0136
:100F90000304000203041402B80F0008000000203C
:100FA000040000006C010008BC0F000804000020D1
:0C0FB00064060000880100080400000036
:0400000508000131BD
:00000001FF
