:020000040800F2
:10000000780C0020CD010008D5010008D7010008B8
:10001000D9010008DB010008DD0100080000000034
:10002000000000000000000000000000DF010008E8
:10003000E101000800000000E3010008E5010008FC
:10004000E7010008E7010008E7010008E7010008F0
:10005000E7010008E7010008E7010008E7010008E0
:10006000E7010008E7010008E7010008E7010008D0
:10007000E7010008E7010008E7010008E7010008C0
:10008000E7010008E7010008E7010008E7010008B0
:10009000E7010008E7010008E7010008E7010008A0
:1000A000E7010008E7010008E7010008E701000890
:1000B000E7010008E7010008E7010008E701000880
:1000C000E7010008E7010008E7010008E701000870
:1000D000E7010008E7010008E7010008E701000860
:1000E000E7010008E7010008E7010008E701000850
:1000F000E7010008E7010008E7010008E701000840
:10010000E7010008E7010008E7010008E70100082F
:10011000E7010008E7010008E7010008E70100081F
:10012000E7010008E7010008E7010008E70100080F
:1001300000F002F800F03AF80AA090E8000C8244BF
:100140008344AAF10107DA4501D100F02FF8AFF29C
:10015000090EBAE80F0013F0010F18BFFB1A43F0A5
:1001600001031847EC0F00000C100000103A24BFE8
:1001700078C878C1FAD8520724BF30C830C144BF0C
:1001800004680C607047000000230024002500264E
:10019000103A28BF78C1FBD8520728BF30C148BFEA
:1001A0000B6070471FB51FBD10B510BD00F063F8A0
:1001B0001146FFF7F7FF00F07DFD00F081F803B472
:1001C000FFF7F2FF03BC00F089F800000948804700
:1001D00009480047FEE7FEE7FEE7FEE7FEE7FEE729
:1001E000FEE7FEE7FEE7FEE704480549054A064B41
:1001F00070470000D5030008310100087806002090
:10020000780C0020780800207808002010B5203AEB
:10021000C0F00B80B1E81850203AA0E81850B1E8BF
:100220001850A0E81850BFF4F5AF5FEA027C24BF75
:10023000B1E81850A0E8185044BF18C918C0BDE86C
:1002400010405FEA827C24BF51F8043B40F8043B35
:1002500008BF7047D20728BF31F8023B48BF11F8EA
:10026000012B28BF20F8023B48BF00F8012B704744
:10027000704770477047754600F02CF8AE46050091
:100280006946534620F00700854618B020B5FFF7B1
:10029000ABFFBDE820404FF000064FF000074FF0E5
:1002A00000084FF0000B21F00701AC46ACE8C00994
:1002B000ACE8C009ACE8C009ACE8C0098D4670479D
:1002C00010B50446AFF300802046BDE81040FFF7AC
:1002D00076BF00000048704714060020014918202E
:1002E000ABBEFEE7260002007047704710B500F075
:1002F00001F810BD0CB50020019000903348006853
:1003000040F480303149086000BF3048006800F494
:10031000003000900198401C0190009818B9019895
:10032000B0F5A06FF1D12948006800F4003010B199
:100330000120009001E0002000900098012843D1A6
:100340002348006840F01000214908600846006812
:1003500020F0030008600846006840F002000860D2
:100360001A4840681949486008464068486008468D
:10037000406840F4806048600846406820F47C1083
:1003800048600846406840F4E81048600846006845
:1003900040F08070086000BF0C48006800F00070FA
:1003A0000028F9D00948406820F003000749486058
:1003B0000846406840F00200486000BF03484068BB
:1003C00000F00C000828F9D10CBD0000001002401C
:1003D0000020024010B51348006840F001001149A8
:1003E000086008464068104908400E4948600846C1
:1003F00000680E4908400B4908600846006820F470
:10040000802008600846406820F4FE0048604FF4F1
:100410001F008860FFF76AFF4FF000600449086022
:1004200010BD0000001002400000FFF8FFFFF6FEC4
:1004300008ED00E02DE9F04107460C4615461E4642
:1004400006480460064805600648066000680461C6
:10045000384600F0A1F9BDE8F0810000100000204E
:10046000140000201800002038B5044600F02AF8D7
:100470000D49887800F074F800909DF8000064F34E
:100480000100009000F014F800F01CF8064989788B
:1004900041F040009DF8001000F090F800F008F8DE
:1004A0000248047038BD0000F01000081E00002053
:1004B0000348006840F010000149086070470000E0
:1004C000100801400348006840F4801001490860AA
:1004D00070470000100801400146204A117300BF18
:1004E0001E4A128902F00102002AF9D01B4A128921
:1004F00002F08002002AF3D1184A928900BF174AFD
:10050000128902F08002002AF9D1144B1A7300BF3D
:10051000124A128902F00102002AF9D00F4A128908
:1005200002F08002002AF3D10C4A92891206100CC4
:1005300000220A4B1A7300BF084A128902F0010216
:10054000002AF9D0054A128902F08002002AF3D16C
:10055000024A9289D2B21043704700000030014035
:1005600001461548017300BF1348008900F00100DF
:100570000028F9D01048008900F080000028F3D14D
:100580000D48808900BF0C48008900F080000028D9
:10059000F9D1094A107300BF0748008900F0010033
:1005A0000028F9D00448008900F080000028F3D129
:1005B00001488089C0B2704700300140184A10736A
:1005C00000BF174A128902F00102002AF9D0144A2A
:1005D000128902F08002002AF3D1114A928900BFE9
:1005E0000F4A128902F08002002AF9D10C4A1173D5
:1005F00000BF0B4A128902F00102002AF9D0084A12
:10060000128902F08002002AF3D1054A928900BFC4
:10061000034A128902F08002002AF9D170470000D3
:10062000003001400549088000BF0449091F0988BE
:1006300001F040010029F8D0704700000438014063
:1006400000B5024603E01078FFF7ECFF521C10786B
:100650000028F8D100BD000001460D48017300BF1D
:100660000B48008900F001000028F9D008480089F3
:1006700000F080000028F3D100BF0548008900F099
:1006800080000028F9D102488089C0B2704700007C
:10069000003001401D48806940F005001B49886119
:1006A0001B4800681B490840194908600846006853
:1006B0001949084316490860084600681749084365
:1006C0001349086012481030006840F004001049D7
:1006D000103108600846006840F0100008600B48C0
:1006E000806940F48050094988610D48008840F4D1
:1006F0009A700B4908800846808840F00400888082
:100700000846008840F04000088070470010024012
:1007100000080140FFF3333300011111000080880D
:10072000003001401948806940F005001749886190
:100730001748006820F0C0001549086008460068A6
:1007400040F0800008600846006840F01000086033
:100750000846006820F4406008600846006840F4DD
:10076000806008600846006820F440700860074810
:10077000806940F480400549886140F27120054954
:10078000088042F20C00091D0880704700100240EA
:10079000040801400838014010B588B00446FFF74E
:1007A00079FF00F0FAF900F0C5FA00200790002167
:1007B000624800F00FFA41F2FF71614800F00AFA56
:1007C00041F2FF715F4800F005FA5F4800F00CF954
:1007D00007909DF81C0020F0200020308DF81C00B0
:1007E000BDF81C10584800F0F5F9584800F0FCF826
:1007F00007909DF81C0020F0800080308DF81C00D0
:10080000BDF81C10514800F0E5F900BF504800F059
:10081000EBF807909DF81C0000F001000028F5D0CF
:100820004C4800F0E1F807909DF81C0020F0010012
:10083000401C8DF81C009DF81C0020F008000830BA
:100840008DF81C009DF81C0020F00400001D8DF8A0
:100850001C00BDF81C103F4800F0BCF93E4800F0F9
:10086000C3F807909DF81C0020F0E00060308DF880
:100870001C009DF81C0020F0100010308DF81C00AA
:100880009DF81C0020F00200801C8DF81C009DF8D3
:100890001C0020F00100401C8DF81C00BDF81C104D
:1008A0002D4800F097F940F2EE512C4800F092F9F3
:1008B00015212B4800F08EF921782A4800F08AF99A
:1008C0006178294800F086F9A178284800F082F97B
:1008D000E178274800F07EF92179264800F07AF97E
:1008E0006179254800F076F9244800F07DF80790FA
:1008F0009DF81C0020F0800080308DF81C00BDF8B1
:100900001C101E4800F066F91D4800F06DF80790B5
:100910009DF81C0020F00400001D8DF81C00BDF89F
:100920001C10174800F056F91C2216A16846FFF764
:100930006DFC6846FFF784FE08B010BDFC1000088F
:10094000001100080411000808110008EC1000084C
:10095000E81000080C110008101100081811000818
:10096000141100083C11000840110008341100085F
:10097000381100082C110008301100084811000837
:10098000F010000845434E32384A363020696E690F
:100990007420636F6D706C657465640A00000000FC
:1009A00010B504460E21204600F001F810BD70B5C8
:1009B00005460E46FFF786FD3A20FFF74DFE002460
:1009C00005E0FF20FFF748FE2855601C84B2B442C2
:1009D000F7DBFFF76DFD70BD70B504460D46294687
:1009E0002046FFF7E4FF70BD7CB504460025607823
:1009F00061490978884205D06078042802D060787F
:100A0000FFF732FDFFF75EFD207830B1012817D0E7
:100A1000022816D003287CD127E0A078FFF7A0FD9C
:100A20000546E07802280AD1FFF742FDFFF74AFDAC
:100A3000A178491CC8B2FFF793FD45EA002596E06E
:100A400000BFA078FFF748FDC5B2E07802280BD1BF
:100A5000FFF72EFDFFF736FDA178491CC8B2FFF75E
:100A60003BFD45EA002085B281E044494878FFF724
:100A7000FBFCFFF727FD0020019041498878FFF734
:100A80002BFDC0B20190FFF713FDFFF71BFDA1780E
:100A90003A4A927842F04000FFF790FDFFF708FDD8
:100AA000FFF710FD9DF8040020F00100401C0190AC
:100AB0003349897841F040009DF80410FFF77EFD2E
:100AC000FFF7F6FC002001E000BF401CC828FBDB5C
:100AD0002C494878FFF7C8FC00BFFFF7F3FC294911
:100AE0008878FFF7F9FC0090FFF7E2FC9DF8000022
:100AF00000F001000028F0D1FFF7DAFCFFF7E2FC7C
:100B00001E494878FFF7B0FCFFF7DCFC1C498878E9
:100B100000E02BE0FFF7E0FCC0B20190FFF7C8FC5B
:100B2000FFF7D0FC9DF8040020F00100019014496B
:100B3000897841F040009DF80410FFF73FFDFFF772
:100B4000B7FCFFF7BFFC10498878FFF7C5FCC5B2BA
:100B5000FFF7AEFCFFF7B6FC0B498978491CC8B219
:100B6000FFF7BAFC45EA002085B200E000BF00BFF5
:100B7000FFF79EFC28467CBD1E00002020110008C7
:100B80001C110008441100082811000810B5044683
:100B900006212046FFF70BFF10BD10B5FFF792FCB2
:100BA000FF20FFF759FDFFF783FC10BD70B5054628
:100BB0000E46FFF787FC7A20FFF74EFD002404E085
:100BC000285DFFF749FD601C04B2B442F8DBFFF773
:100BD0006FFC70BD38B504460D4660783149097820
:100BE000884205D06078042802D06078FFF73CFC8A
:100BF000FFF768FC207830B1012805D0022804D026
:100C000003284BD117E000BF00BFE9B2A27842F041
:100C10004000FFF7D3FCE07802280BD1FFF748FC37
:100C2000FFF750FC2912A278521CD2B242F04000C9
:100C3000FFF7C4FC32E0A1781B4A927842F04000F2
:100C4000FFF7BCFCFFF734FCFFF73CFCE9B2174AA6
:100C5000927842F04000FFF7B1FCFFF729FCFFF764
:100C600031FC2912114A9278521CD2B242F0400053
:100C7000FFF7A4FCFFF71CFCFFF724FC00BF0C48A7
:100C8000FFF7B2FE0090FFF713FCFFF71BFC9DF887
:100C9000000000F001000028F1D100BF00BFFFF705
:100CA00007FC38BD1E000020201100082411000898
:100CB00044110008FFF719FB174B184A1849194847
:100CC000FFF7B8FB1848806940F0100016498861AA
:100CD0001648406820F440001449486008464068BF
:100CE00040F4001048604FF6FF70C86012E000202A
:100CF0000E49C8600E4800E0401E0028FCDC4FF69C
:100D0000FF700A49C8600A4800E0401E0028FCDC69
:100D100000F06EF9EBE70000FC0500200800002061
:100D200020000020000000200010024000100140C0
:100D30008096980070B5C6B0FFF7F4FC60A191E80A
:100D40000D00C96842AC0DC4459161A30FCB3EAC08
:100D50000FC43C2262A12FA8FFF758FA3C226FA1D2
:100D600020A8FFF753FA3C227BA111A8FFF74EFA07
:100D7000382288A103A8FFF749FA0020029041F227
:100D8000342529469148FFF725FF9048FFF72CFEB0
:100D900002902FA8FFF754FCBDF80800A84204D029
:100DA0003EA8FFF74DFC00BFFEE742A8FFF748FC56
:100DB00000BF8748FFF718FE02909DF8080000F07A
:100DC00001000028F5D029468248FFF703FF81483B
:100DD000FFF70AFE029020A8FFF732FCBDF80800DA
:100DE000A84204D03EA8FFF72BFC00BFFEE742A8B4
:100DF000FFF726FC43F6830631467748FFF7EAFE05
:100E00007548FFF7F1FD029011A8FFF719FCBDF836
:100E100008004010B0EB660F04D03EA8FFF710FCAE
:100E200000BFFEE742A8FFF70BFC6CA00068019032
:100E3000002000906A48FFF7D7FD02909DF8080057
:100E400020F0800080308DF80800BDF8081064485C
:100E5000FFF7C0FE00215D48FFF7BCFE40F6FF71C2
:100E60006048FFF7B7FE4FF480515F48FFF7B2FECE
:100E7000042101A8FFF79AFE4FF480515B48FFF769
:100E8000A9FE04216846FFF792FD03A8FFF7D8FBEF
:100E900000240CE001A8005D1DF80410884204D075
:100EA0003EA8FFF7CDFB00BFFEE7601CC4B2042CD8
:100EB000F0DB42A8FFF7C4FBFFF76FFE46B070BD42
:100EC00054657374207061737365640A00000000D8
:100ED00054657374206661696C65640A00000000E3
:100EE000204D6964576172652054657374313A20EE
:100EF000547279696E6720746F2077726974652007
:100F0000616E642072656164207468652045544890
:100F10002072656769737465720A00004D696457D1
:100F20006172652054657374323A20547279696E27
:100F30006720746F20777269746520616E64207217
:100F400065616420746865204D414320726567695E
:100F5000737465720A0000004D6964576172652000
:100F600054657374333A20547279696E6720746FD4
:100F700020777269746520616E64207265616420F7
:100F8000746865205048592072656769737465728A
:100F90000A0000004D6964576172652054657374DE
:100FA000343A20547279696E6720746F20777269C1
:100FB000746520616E642072656164206275666686
:100FC0006572206D656D6F72790A0000FC10000873
:100FD000E8100008181100084C1100081234567867
:100FE000EC10000800110008F8100008F4100008C8
:100FF00038B55BE0304801883048FFF7EBFD3048FA
:101000000068FFF7C3FD00242D48006800882A49C6
:101010000988884208DD2A4800680088264909882E
:10102000401A183884B20AE02348008841F2FF7160
:10103000081A2349096809880844183884B22148E5
:10104000006884821F480068FFF7AAFC1D480068FA
:101050008089B0F5C16F06D121461B480068FFF7B3
:10106000BBFC00BFFEE716480068008812490880F4
:10107000084601881148FFF7ADFD11480068008857
:10108000401E81B21148FFF7A5FD1148FFF7ACFCE7
:10109000C0B200909DF8000020F040004030009069
:1010A0009DF800100A48FFF795FD00BF0948FFF7BB
:1010B0009BFC00289ED138BD1C000020DC100008DD
:1010C000140000201800002010000020E01000088C
:1010D000D8100008E410000800041E0100000002FF
:1010E00000000C020001190100041D0100041E0192
:1010F00000041F01000000020000020200000802BC
:1011000000000A0200000C020001180101020001A7
:10111000010202010102040101020A02020212019B
:101120000202140102021602020218020103000167
:101130000103010101030201010303010103040191
:101140000103050102030A0103040002030414025F
:101150007011000800000020200000006C01000851
:101160009011000820000020580C000088010008A1
:10117000020000000001000000000000000000006C
:10118000000000000000000000000000000004005B
:0400000508000131BD
:00000001FF
