:020000040800F2
:1000000068060020CD010008D5010008D7010008CE
:10001000D9010008DB010008DD0100080000000034
:10002000000000000000000000000000DF010008E8
:10003000E101000800000000E3010008E5010008FC
:10004000E7010008E7010008E7010008E7010008F0
:10005000E7010008E7010008E7010008E7010008E0
:10006000E7010008E7010008E7010008E7010008D0
:10007000E7010008E7010008E7010008E7010008C0
:10008000E7010008E7010008E7010008E7010008B0
:10009000E7010008E7010008E7010008E7010008A0
:1000A000E7010008E7010008E7010008E701000890
:1000B000E7010008E7010008E7010008E701000880
:1000C000E7010008E7010008E7010008E701000870
:1000D000E7010008E7010008E7010008E701000860
:1000E000E7010008E7010008E7010008E701000850
:1000F000E7010008E7010008E7010008E701000840
:10010000E7010008E7010008E7010008E70100082F
:10011000E7010008E7010008E7010008E70100081F
:10012000E7010008E7010008E7010008E70100080F
:1001300000F002F800F03AF80AA090E8000C8244BF
:100140008344AAF10107DA4501D100F02FF8AFF29C
:10015000090EBAE80F0013F0010F18BFFB1A43F0A5
:1001600001031847D80C0000F80C0000103A24BF17
:1001700078C878C1FAD8520724BF30C830C144BF0C
:1001800004680C607047000000230024002500264E
:10019000103A28BF78C1FBD8520728BF30C148BFEA
:1001A0000B6070471FB51FBD10B510BD00F063F8A0
:1001B0001146FFF7F7FF00F0F1FC00F081F803B4FF
:1001C000FFF7F2FF03BC00F089F800000948804700
:1001D00009480047FEE7FEE7FEE7FEE7FEE7FEE729
:1001E000FEE7FEE7FEE7FEE704480549054A064B41
:1001F00070470000D50300083101000868000020A6
:1002000068060020680200206802002010B5203A2D
:10021000C0F00B80B1E81850203AA0E81850B1E8BF
:100220001850A0E81850BFF4F5AF5FEA027C24BF75
:10023000B1E81850A0E8185044BF18C918C0BDE86C
:1002400010405FEA827C24BF51F8043B40F8043B35
:1002500008BF7047D20728BF31F8023B48BF11F8EA
:10026000012B28BF20F8023B48BF00F8012B704744
:10027000704770477047754600F02CF8AE46050091
:100280006946534620F00700854618B020B5FFF7B1
:10029000ABFFBDE820404FF000064FF000074FF0E5
:1002A00000084FF0000B21F00701AC46ACE8C00994
:1002B000ACE8C009ACE8C009ACE8C0098D4670479D
:1002C00010B50446AFF300802046BDE81040FFF7AC
:1002D00076BF000000487047040000200149182044
:1002E000ABBEFEE7260002007047704710B500F075
:1002F00001F810BD0CB50020019000903348006853
:1003000040F480303149086000BF3048006800F494
:10031000003000900198401C0190009818B9019895
:10032000B0F5A06FF1D12948006800F4003010B199
:100330000120009001E0002000900098012843D1A6
:100340002348006840F01000214908600846006812
:1003500020F0030008600846006840F002000860D2
:100360001A4840681949486008464068486008468D
:10037000406840F4806048600846406820F47C1083
:1003800048600846406840F4E81048600846006845
:1003900040F08070086000BF0C48006800F00070FA
:1003A0000028F9D00948406820F003000749486058
:1003B0000846406840F00200486000BF03484068BB
:1003C00000F00C000828F9D10CBD0000001002401C
:1003D0000020024010B51348006840F001001149A8
:1003E000086008464068104908400E4948600846C1
:1003F00000680E4908400B4908600846006820F470
:10040000802008600846406820F4FE0048604FF4F1
:100410001F008860FFF76AFF4FF000600449086022
:1004200010BD0000001002400000FFF8FFFFF6FEC4
:1004300008ED00E010B500F097F910BD38B504469E
:1004400000F02AF80D49887800F074F800909DF8C3
:10045000000064F30100009000F014F800F01CF8B4
:100460000649897841F040009DF8001000F090F8AE
:1004700000F008F80248047038BD0000EC0D0008D8
:10048000000000200348006840F0100001490860A7
:1004900070470000100801400348006840F48010D5
:1004A0000149086070470000100801400146204AD9
:1004B000117300BF1E4A128902F00102002AF9D00E
:1004C0001B4A128902F08002002AF3D1184A92894D
:1004D00000BF174A128902F08002002AF9D1144B9A
:1004E0001A7300BF124A128902F00102002AF9D0E1
:1004F0000F4A128902F08002002AF3D10C4A928935
:100500001206100C00220A4B1A7300BF084A128907
:1005100002F00102002AF9D0054A128902F0800295
:10052000002AF3D1024A9289D2B2104370470000E8
:100530000030014001461548017300BF134800898F
:1005400000F001000028F9D01048008900F0800078
:100550000028F3D10D48808900BF0C48008900F0C5
:1005600080000028F9D1094A107300BF07480089AC
:1005700000F001000028F9D00448008900F0800054
:100580000028F3D101488089C0B270470030014093
:10059000184A107300BF174A128902F00102002A9C
:1005A000F9D0144A128902F08002002AF3D1114ACC
:1005B000928900BF0F4A128902F08002002AF9D105
:1005C0000C4A117300BF0B4A128902F00102002A83
:1005D000F9D0084A128902F08002002AF3D1054AB4
:1005E000928900BF034A128902F08002002AF9D1E1
:1005F00070470000003001400549088000BF0449F1
:10060000091F098801F040010029F8D07047000057
:100610000438014000B5024603E01078FFF7ECFF14
:10062000521C10780028F8D100BD00000C49087356
:1006300000BF0B49098901F001010029F9D00849DF
:10064000098901F080010029F3D10549898900BF9A
:100650000349098901F080010029F9D170470000A0
:10066000003001401D48806940F005001B49886149
:100670001B4800681B490840194908600846006883
:100680001949084316490860084600681749084395
:100690001349086012481030006840F00400104907
:1006A000103108600846006840F0100008600B48F0
:1006B000806940F48050094988610D48008840F401
:1006C0009A700B4908800846808840F004008880B2
:1006D0000846008840F04000088070470010024043
:1006E00000080140FFF3333300011111000080883E
:1006F000003001401948806940F0050017498861C1
:100700001748006820F0C0001549086008460068D6
:1007100040F0800008600846006840F01000086063
:100720000846006820F4406008600846006840F40D
:10073000806008600846006820F440700860074840
:10074000806940F480400549886140F27120054984
:10075000088042F20C00091D08807047001002401A
:10076000040801400838014000B589B0FFF77AFF5E
:1007700000F09AF900F044FA0020089040F6FF716A
:100780004A4800F09BF941F6FF71494800F096F99C
:1007900040F6FF71474800F091F9474800F0B2F881
:1007A00008909DF8200020F0800080308DF8200017
:1007B000BDF82010404800F081F900BF3F4800F02C
:1007C000A1F808909DF8200000F001000028F5D065
:1007D0003B4800F097F808909DF8200020F00100B9
:1007E000401C8DF820009DF8200020F00800083003
:1007F0008DF820009DF8200020F00400001D8DF8E9
:100800002000BDF820102E4800F058F92D4800F0C7
:1008100079F808909DF8200020F0E00060308DF815
:1008200020009DF8200020F0100010308DF82000EE
:100830009DF8200020F00200801C8DF820009DF81B
:10084000200020F00100401C8DF82000BDF8201091
:100850001C4800F033F940F2EE511B4800F02EF92D
:1008600015211A4800F02AF90221194800F026F94A
:100870000021184800F022F90021174800F01EF965
:100880000021164800F01AF90021154800F016F969
:100890000121144800F012F91C2213A101A8FFF74E
:1008A000B5FC01A8FFF7B6FE09B000BDF00D0008C9
:1008B000F40D0008F80D0008E80D0008E40D00082C
:1008C000FC0D0008000E0008080E0008040E0008C9
:1008D0002C0E0008300E0008240E0008280E000818
:1008E0001C0E0008200E000845434E32384A3630B0
:1008F00020696E697420636F6D706C657465640A3D
:10090000000000007CB50446002560786149097844
:10091000884205D06078042802D06078FFF78EFD09
:10092000FFF7BAFD207830B1012817D0022816D081
:1009300003287CD127E0A078FFF7FCFD0546E0788E
:1009400002280AD1FFF79EFDFFF7A6FDA178491CFA
:10095000C8B2FFF7EFFD45EA002596E000BFA0789A
:10096000FFF7A4FDC5B2E07802280BD1FFF78AFD9E
:10097000FFF792FDA178491CC8B2FFF797FD45EA41
:10098000002085B281E044494878FFF757FDFFF722
:1009900083FD0020019041498878FFF787FDC0B2B0
:1009A0000190FFF76FFDFFF777FDA1783A4A927843
:1009B00042F04000FFF7ECFDFFF764FDFFF76CFD30
:1009C0009DF8040020F00100401C01903349897813
:1009D00041F040009DF80410FFF7DAFDFFF752FDEB
:1009E000002001E000BF401CC828FBDB2C494878F0
:1009F000FFF724FD00BFFFF74FFD29498878FFF777
:100A000055FD0090FFF73EFD9DF8000000F001004D
:100A10000028F0D1FFF736FDFFF73EFD1E4948786C
:100A2000FFF70CFDFFF738FD1C49887800E02BE04C
:100A3000FFF73CFDC0B20190FFF724FDFFF72CFD4E
:100A40009DF8040020F0010001901449897841F0DC
:100A500040009DF80410FFF79BFDFFF713FDFFF723
:100A60001BFD10498878FFF721FDC5B2FFF70AFD8D
:100A7000FFF712FD0B498978491CC8B2FFF716FD34
:100A800045EA002085B200E000BF00BFFFF7FAFC96
:100A900028467CBD00000020100E00080C0E000847
:100AA000340E0008180E000810B5FFF7F5FCFF2003
:100AB000FFF7BCFDFFF7E6FC10BD000038B50446AB
:100AC0000D46607831490978884205D0607804285D
:100AD00002D06078FFF7B2FCFFF7DEFC207830B17F
:100AE000012805D0022804D003284BD117E000BF0D
:100AF00000BFE9B2A27842F04000FFF749FDE0787C
:100B000002280BD1FFF7BEFCFFF7C6FC2912A27822
:100B1000521CD2B242F04000FFF73AFD32E0A17819
:100B20001B4A927842F04000FFF732FDFFF7AAFC23
:100B3000FFF7B2FCE9B2174A927842F04000FFF7A3
:100B400027FDFFF79FFCFFF7A7FC2912114A9278B7
:100B5000521CD2B242F04000FFF71AFDFFF792FCA0
:100B6000FFF79AFC00BF0C48FFF7CCFE0090FFF7A0
:100B700089FCFFF791FC9DF8000000F001000028BF
:100B8000F1D100BF00BFFFF77DFC38BD00000020A1
:100B9000100E0008140E0008340E0008FFF7A5FB25
:100BA000FFF748FC1348806940F010001149886144
:100BB0001148406820F440000F49486008464068EA
:100BC00040F4001048604FF6FF70C86010E000204D
:100BD0000949C860094800E0401E0028FCDC4FF6C7
:100BE000FF700549C860054800E0401E0028FCDC95
:100BF000EDE70000001002400010014080969800D0
:100C000030B5B7B0FFF776FD3DA2D2E901311068EB
:100C1000D268CDE93431369233903DA3D3E9002038
:100C2000D3E9021330AC0BC42F923C223CA120A884
:100C3000FFF7ECFA3C2249A111A8FFF7E7FA3C22A2
:100C400055A102A8FFF7E2FA0020019041F23424F6
:100C500021466048FFF732FF5E48FFF753FE0190E0
:100C600020A8FFF7D7FCBDF80400A04204D02FA8AD
:100C7000FFF7D0FC00BFFEE733A8FFF7CBFC00BFB7
:100C80005548FFF73FFE01909DF8040000F0010079
:100C90000028F5D021465148FFF710FF4F48FFF7D5
:100CA00031FE019011A8FFF7B5FCBDF80400A04289
:100CB00004D02FA8FFF7AEFC00BFFEE733A8FFF774
:100CC000A9FC43F6830529464548FFF7F7FE44484B
:100CD000FFF718FE019002A8FFF79CFCBDF8040086
:100CE0004010B0EB650F04D02FA8FFF793FC00BFB6
:100CF000FEE733A8FFF78EFCFFF7D6FE37B030BD16
:100D000054657374207061737365640A0000000099
:100D100054657374206661696C65640A00000000A4
:100D2000204D6964576172652054657374313A20AF
:100D3000547279696E6720746F20777269746520C8
:100D4000616E642072656164207468652045544852
:100D50002072656769737465720A00004D69645793
:100D60006172652054657374323A20547279696EE9
:100D70006720746F20777269746520616E642072D9
:100D800065616420746865204D4143207265676920
:100D9000737465720A0000004D69645761726520C2
:100DA00054657374333A20547279696E6720746F96
:100DB00020777269746520616E64207265616420B9
:100DC000746865205048592072656769737465724C
:100DD0000A000000F00D0008E40D0008080E0008ED
:100DE000380E000800041D0100041E0100041F014C
:100DF0000000080200000A0200000C0201020001CB
:100E0000010202010102040101020A0202021201AE
:100E1000020214010202160202021802010300017A
:100E200001030101010302010103030101030401A4
:100E30000103050102030A01030414025C0E000809
:100E400000000020040000006C010008600E000893
:100E5000040000206406000088010008040000006F
:0400000508000131BD
:00000001FF
