:020000040800F2
:10000000482F0020450100084D0100084F0100085D
:1000100051010008530100085501000800000000CC
:100020000000000000000000000000005701000870
:1000300059010008000000005B01000825030008CA
:100040005F0100085F0100085F0100085F01000810
:100050005F0100085F0100085F0100085F01000800
:100060005F0100085F0100085F0100085F010008F0
:100070005F0100085F0100085F0100085F010008E0
:100080005F0100085F0100085F0100085F010008D0
:100090005F0100085F0100085F0100085F010008C0
:1000A0005F0100085F0100085F0100085F010008B0
:1000B0005F0100085F0100085F0100085F010008A0
:1000C0005F0100085F0100085F0100085F01000890
:1000D0005F0100085F0100085F0100085F01000880
:1000E0005F0100085F0100085F0100085F01000870
:1000F0005F0100085F0100085F0100085F01000860
:100100005F0100085F0100085F0100085F0100084F
:100110005F0100085F0100085F0100085F0100083F
:100120005F0100085F0100085F0100085F0100082F
:10013000DFF80CD000F06EF800480047393E0008A8
:10014000482F00200648804706480047FEE7FEE7A4
:10015000FEE7FEE7FEE7FEE7FEE7FEE7FEE7FEE777
:10016000350300083101000810B5431A934209D243
:100170008318881803E010F8011D03F8011D521EB2
:10018000F9D210BD40EA01039B0703D009E008C97A
:10019000121F08C0042AFAD203E011F8013B00F84C
:1001A000013B521EF9D210BDD2B201E000F8012B82
:1001B000491EFBD270470022F6E710B513460A46E7
:1001C00004461946FFF7F0FF204610BD30B504463F
:1001D0000020034600E05B1C934203D2E05CCD5C50
:1001E000401BF8D030BD30B50B4601460020202220
:1001F000012409E021FA02F59D4205D303FA02F534
:10020000491B04FA02F52844151EA2F10102F1DC93
:1002100030BD0000064C074D06E0E06840F00103E9
:1002200094E8070098471034AC42F6D3FFF784FFF8
:10023000A8600008C8600008704710B500F002F818
:1002400010BD00000CB500200190009033480068FC
:1002500040F480303149086000BF3048006800F445
:10026000003000900198401C0190009818B9019846
:10027000B0F5A06FF1D12948006800F4003010B14A
:100280000120009001E0002000900098012843D157
:100290002348006840F010002149086008460068C3
:1002A00020F0030008600846006840F00200086083
:1002B0001A4840681949486008464068486008463E
:1002C000406840F4806048600846406820F47C1034
:1002D00048600846406840F4E810486008460068F6
:1002E00040F08070086000BF0C48006800F00070AB
:1002F0000028F9D00948406820F003000749486009
:100300000846406840F00200486000BF034840686B
:1003100000F00C000828F9D10CBD000000100240CC
:100320000020024002480068401C014908607047F4
:100330001400002010B51348006840F00100114976
:10034000086008464068104908400E494860084661
:1003500000680E4908400B4908600846006820F410
:10036000802008600846406820F4FE0048604FF492
:100370001F008860FFF761FF4FF0006004490860CC
:1003800010BD0000001002400000FFF8FFFFF6FE65
:1003900008ED00E00FB4054B10B503A9044A02981C
:1003A00000F01EF810BC5DF814FB00009D22000850
:1003B0005C000020EFF31080704702E008C8121FB5
:1003C00008C1002AFAD170477047002001E001C13E
:1003D000121F002AFBD1704780F31088704700007D
:1003E0002DE9FF4F8BB09A460F460546002606E0E2
:1003F00025280BD052460D9990476D1C761C287805
:100400000028F5D10FB03046BDE8F08F0024A0469B
:100410000122604900E0044315F8013F203B02FA45
:1004200003F00842F7D128782E2817D115F8010FCC
:1004300044F004042A280ED06FF02F022878A0F18F
:10044000300109290AD808EB880102EB410100EBD1
:1004500001086D1CF2E757F8048B6D1C2878692899
:100460003ED006DC0028CDD063280BD0642804D110
:1004700036E0732810D075284BD052460D9990471E
:10048000761C85E017F8040B8DF8000000208DF82D
:100490000100E946012003E057F8049B4FF0FF30CC
:1004A00061074FF0000401D40AE0641C44450DDAF2
:1004B0008442FADB19F804100029F6D106E0641C26
:1004C0008442FCDB19F804100029F8D1264404E02A
:1004D00019F8010B52460D999047641EF8D257E067
:1004E00001CF4FF00A0B002802DA40422D2102E032
:1004F000210504D52B218DF82410012103E0E1070B
:1005000005D02021F7E70DF1200908910CE000212A
:10051000F9E701CF4FF00A0BF9E75946FFF763FE01
:1005200001F1300209F8012D0028F6D1ADEB0900E8
:1005300000F1200B600701D44FF00108D84502DD1F
:10054000A8EB0B0000E000208046002406E009A88C
:100550005246005D0D999047641C761C08988442B1
:10056000F5DB04E0302052460D999047761CB8F137
:100570000001A8F10108F5DC05E019F8010B52466D
:100580000D999047761CBBF10001ABF1010BF4DC37
:100590006D1C34E7092801002DE9F04105460E469F
:1005A00000BF06F0030000280CD000BF10A34FF4DA
:1005B000B67216A11DA0FFF7EDFE0020002000BFBF
:1005C000AFF3008000BF374600BF00BFEFF31080DD
:1005D000044672B600BFA86800683860A868076063
:1005E00000BF00BF84F3108800BF00BFBDE8F081EA
:1005F000557365725C6C7769705C7372635C636F72
:1006000072655C6D656D702E630000006D656D70C8
:100610005F667265653A206D656D2070726F7065FA
:10062000726C7920616C69676E65640041737365F3
:100630007274696F6E2022257322206661696C6571
:1006400064206174206C696E6520256420696E20C9
:1006500025730A0070B5064600BF00BFEFF3108097
:10066000044672B600BFB0680568002D1DD028682A
:10067000B168086000BF05F0030000280CD000BF7F
:100680000EA34FF48C7214A11CA0FFF783FE002070
:10069000002000BFAFF3008000BF00BF00BF84F3A5
:1006A000108800BF00BF284670BD00BF00BF84F3A4
:1006B000108800BF00BF0020F6E700005573657288
:1006C0005C6C7769705C7372635C636F72655C6DA0
:1006D000656D702E630000006D656D705F6D616CFF
:1006E0006C6F633A206D656D702070726F7065720B
:1006F0006C7920616C69676E656400004173736595
:100700007274696F6E2022257322206661696C65A0
:1007100064206174206C696E6520256420696E20F8
:1007200025730A0038B504460D46206980470D4AF6
:100730009078216A884700909DF8000065F30100D9
:100740000090E0688047206980470649897841F039
:1007500040009DF8001062699047E068804784F887
:10076000285038BDC05F00080348006840F0100002
:100770000149086070470000100801400348006804
:1007800040F48010014908607047000010080140E3
:100790000146204A117300BF1E4A128902F001026D
:1007A000002AF9D01B4A128902F08002002AF3D1F4
:1007B000184A928900BF174A128902F08002002A63
:1007C000F9D1144B1A7300BF124A128902F00102C8
:1007D000002AF9D00F4A128902F08002002AF3D1D0
:1007E0000C4A92891206100C00220A4B1A7300BFA1
:1007F000084A128902F00102002AF9D0054A12893A
:1008000002F08002002AF3D1024A9289D2B2104348
:10081000704700000030014001461548017300BFD9
:100820001348008900F001000028F9D01048008921
:1008300000F080000028F3D10D48808900BF0C48EB
:10084000008900F080000028F9D1094A107300BF28
:100850000748008900F001000028F9D00448008909
:1008600000F080000028F3D101488089C0B27047B1
:1008700000300140244A107300BF234A128902F05D
:100880000102002AF9D0204A128902F08002002ACF
:10089000F3D11D4A928900BF1B4A128902F08002DF
:1008A000002AF9D10A12184B1A7300BF164A12898E
:1008B00002F00102002AF9D0134A128902F08002E4
:1008C000002AF3D1104A928900BF0F4A128902F020
:1008D0008002002AF9D10C4B197300BF0A4A128911
:1008E00002F00102002AF9D0074A128902F08002C0
:1008F000002AF3D1044A928900BF034A128902F008
:100900008002002AF9D1704700300140184A107364
:1009100000BF174A128902F00102002AF9D0144AD6
:10092000128902F08002002AF3D1114A928900BF95
:100930000F4A128902F08002002AF9D10C4A117381
:1009400000BF0B4A128902F00102002AF9D0084ABE
:10095000128902F08002002AF3D1054A928900BF71
:10096000034A128902F08002002AF9D17047000080
:10097000003001400549088000BF0449091F09886B
:1009800001F040010029F8D0704700000438014010
:1009900000B5024603E01078FFF7ECFF521C107818
:1009A0000028F8D100BD000001460D48017300BFCA
:1009B0000B48008900F001000028F9D008480089A0
:1009C00000F080000028F3D100BF0548008900F046
:1009D00080000028F9D102488089C0B27047000029
:1009E000003001401D48806940F005001B498861C6
:1009F0001B4800681B490840194908600846006800
:100A00001949084316490860084600681749084311
:100A10001349086012481030006840F00400104983
:100A2000103108600846006840F0100008600B486C
:100A3000806940F48050094988610D48008840F47D
:100A40009A700B4908800846808840F0040088802E
:100A50000846008840F040000880704700100240BF
:100A600000080140FFF333330001111100008088BA
:100A7000003001401948806940F00500174988613D
:100A80001748006820F0C000154908600846006853
:100A900040F0800008600846006840F010000860E0
:100AA0000846006820F4406008600846006840F48A
:100AB000806008600846006820F4407008600748BD
:100AC000806940F480400549886140F27120054901
:100AD000088042F20C00091D088070470010024097
:100AE000040801400838014070B504460D46042052
:100AF00084F82800002020864FF4C05060860C48FF
:100B0000E0600C4820610C4820620C4860620C4890
:100B100060610C48A0610C48E0610C48A0600C4882
:100B200020600C4860602946204600F015F870BD32
:100B3000690700087D0700081908000891070008E8
:100B40000D09000875080008A9090008E509000852
:100B5000750A00089109000830B589B005460C46B1
:100B6000A8688047284600F0ABFA284602F010FF3C
:100B70000020089000226F49284600F0C3FA41F295
:100B8000FF726D49284600F0BDFA41F2FF726B49D1
:100B9000284600F0B7FA6A49284600F019F908908B
:100BA0009DF8200020F0200020308DF82000BDF8B6
:100BB00020206349284600F0A5FA6249284600F043
:100BC00007F908909DF8200020F0800080308DF813
:100BD0002000BDF820205B49284600F093FA00BFB2
:100BE0005949284600F0F4F808909DF8200000F0DC
:100BF00001000028F4D05549284600F0E9F8089093
:100C00009DF8200020F00100401C8DF820009DF888
:100C1000200020F0080008308DF820009DF820000A
:100C200020F00400001D8DF82000BDF82020474969
:100C3000284600F067FA4649284600F0C9F80890AF
:100C40009DF8200020F0E00020308DF820009DF875
:100C5000200020F0100010308DF820009DF82000BA
:100C600020F00200801C8DF820009DF8200020F06C
:100C70000100401C8DF82000BDF820203449284692
:100C800000F040FA40F2EE523249284600F03AFABB
:100C900015223149284600F035FA22782F49284696
:100CA00000F030FA62782E49284600F02BFAA2783C
:100CB0002C49284600F026FAE2782B49284600F015
:100CC00021FA22792949284600F01CFA627928493C
:100CD000284600F017FA2749284600F079F80890CE
:100CE0009DF8200020F0800080308DF82000BDF8B5
:100CF00020202049284600F005FA1F49284600F028
:100D000067F808909DF8200020F00400001D8DF881
:100D10002000BDF820201849284600F0F3F91C22D5
:100D200016A101A8FFF720FA01A86968884709B051
:100D300030BD0000CC5F0008D05F0008D45F000821
:100D4000D85F0008BC5F0008B85F0008DC5F0008DF
:100D5000E05F0008E85F0008E45F00080C6000083E
:100D6000106000080460000808600008FC5F0008CC
:100D70000060000818600008C05F000845434E325C
:100D8000384A363020696E697420636F6D706C6507
:100D90007465640A000000004FF4C051418670473A
:100DA0002DE9F04104460E461746206980473A2057
:100DB000E1698847002505E0FF20E1698847705513
:100DC000681C85B2BD42F7DBE0688047BDE8F08172
:100DD0007CB504460D46002694F8280069788842C0
:100DE00006D06878042803D069782046FFF79AFC7B
:100DF00020698047287830B1012817D0022816D002
:100E000003287DD127E0A878216A88470646E8783C
:100E100002280AD1E068804720698047AA78521CDE
:100E2000D0B2216A884746EA002699E000BFA87838
:100E3000616A8847C6B2E87802280BD1E06880472B
:100E400020698047AA78521CD0B2616A884746EA76
:100E5000002086B284E0454841782046FFF762FCD6
:100E60002069804700200190414A9078616A884754
:100E7000C0B20190E068804720698047A9783B4B69
:100E80009B7843F0400062699047E06880472069A2
:100E900080479DF8040020F00100401C0190344977
:100EA000897841F040009DF8041062699047E0683D
:100EB0008047002001E000BF401CC828FBDB2D4814
:100EC00041782046FFF72EFC00BF20698047294A61
:100ED0009078616A88470090E06880479DF800003C
:100EE00000F001000028F0D1E068804720698047C9
:100EF0001E4841782046FFF715FC2069804700E036
:100F00002DE01B4A9078616A8847C0B20190E06882
:100F10008047206980479DF8040020F0010001907F
:100F20001349897841F040009DF8041062699047A8
:100F3000E0688047206980470F4A9078616A884757
:100F4000C6B2E0688047206980470B4A9278521CFD
:100F5000D0B2616A884746EA002086B200E000BF4E
:100F600000BFE068804730467CBD0000F05F0008AD
:100F7000EC5F000814600008F85F000810B5044634
:100F8000062204F12A012046FFF70AFF10BD0000E7
:100F900038B5044600BF1D492046FFF719FF0090F1
:100FA0009DF80000C0F3C0000028F4D1608E401E00
:100FB00082B21749204600F0A5F84FF4C0521549F7
:100FC000204600F09FF811492046FFF701FF0090EE
:100FD0009DF8000020F0080008308DF80000BDF8F2
:100FE00000200A49204600F08DF800BF074920463E
:100FF000FFF7EEFE00909DF80000C0F3C00000284F
:10100000F4D14FF4C050608638BD00009C5F0008EA
:10101000AC5F0008A85F0008F8B504460F46164606
:1010200023492046FFF7D4FE00283FD0228E2149D5
:10103000204600F067F82046FFF7A0FFA58D042D9D
:1010400001DD281F85B2B54200DD35462A46394606
:101050002046FFF7A5FE608D2086228E154920468A
:1010600000F050F8608D30B941F2FF72124920460D
:1010700000F048F806E0608D401E82B20E4920461E
:1010800000F040F80D492046FFF7A2FEC0B20090E4
:101090009DF8000020F04000403000909DF80020B6
:1010A0000649204600F02EF82846F8BD0020FCE74F
:1010B000B45F0008A05F0008B05F0008985F0008F8
:1010C00010B5044620698047FF20E1698847E06841
:1010D000804710BD2DE9F04104460E4617462069B1
:1010E00080477A20E1698847002504E0705DE16966
:1010F0008847681C05B2BD42F8DBE0688047BDE860
:10110000F0810000F8B504460D46164694F8280014
:101110006978884206D06878042803D06978204628
:10112000FFF700FB20698047287830B1012805D0FF
:10113000022804D003284CD117E000BF00BFF1B251
:10114000AB7843F0400062699047E87802280BD101
:10115000E0688047206980473112AB785B1CDBB2C6
:1011600043F040006269904733E0A9781B4B9B78BD
:1011700043F0400062699047E068804720698047FB
:10118000F1B2174B9B7843F0400062699047E068EA
:101190008047206980473112114B9B785B1CDBB282
:1011A00043F0400062699047E068804720698047CB
:1011B00000BF0C492046FFF70BFE0090E068804717
:1011C000206980479DF8000000F001000028F0D160
:1011D00000BF00BFE0688047F8BD0000F05F000876
:1011E000F45F00081460000870B504460E4615460A
:1011F000628E06492046FFF785FF2A463146204683
:10120000FFF768FF608E2844608670BDA45F000809
:101210002DE9FF5F0646894617464FF00A0AD34676
:10122000D04600240A2003900020029001900090F4
:1012300000BF77E004EB4400804901EBC000057D6E
:10124000B8F10A0F02D10DB9A04669E0002D67D0B0
:1012500000BF012D0ED0022D0CDA00BF78A34FF491
:10126000927280A18FA0FFF795F80020002000BFA8
:10127000AFF3008000BFAEB104EB44016F4A02EB54
:10128000C1013068496888420CD13FB104EB440089
:10129000114601EBC0008068B84203D1204604B07B
:1012A000BDE8F09F012D28D104EB4400634951F8BB
:1012B000300080B104EB440001EBC000418A029889
:1012C00081422DDB039404EB44005C4901EBC00038
:1012D000408A029024E004EB4400584901EBC0002E
:1012E000418A019881421BDBA24604EB440053492A
:1012F00001EBC000408A019012E0022D10DB04EBEC
:1013000044004E4901EBC000418A0098814207DB4E
:10131000A34604EB4400494901EBC000408A009019
:10132000601C04B20A2C85DB09F0020028B9B8F170
:101330000A0F05D109F0010010B94FF0FF30AEE7F8
:10134000B8F10A0F01DA444639E0BBF10A0F15DAA9
:101350005C4600BF04EB4400384951F8300060B1EE
:1013600000BF37A34FF4B77258A14EA0FFF712F891
:101370000020002000BFAFF300800CE0BAF10A0F9C
:1013800001DA544607E003980A2801DA039C02E0D8
:101390004FF0FF3083E700BF0A2C0CDB00BF28A30F
:1013A0004FF4C0724FA13FA0FEF7F4FF00200020D1
:1013B00000BFAFF3008000BF204600F0B3F800BFCD
:1013C0000A2C0CDB00BF1EA34FF4C27245A135A04E
:1013D000FEF7E0FF0020002000BFAFF3008000BF59
:1013E00000BF04EB4400154901EBC000007D60B173
:1013F00000BF13A340F285123FA12AA0FEF7CAFF47
:101400000020002000BFAFF3008000BF36B104EB26
:1014100044010A4A02EBC10130684860002004EB35
:101420004401064A02EBC101488204EB4400114624
:1014300001EBC0008760204631E70000400E00202D
:10144000557365725C6C7769705C7372635C636F13
:1014500072655C697076345C6574686172702E6365
:10146000000000007374617465203D3D20455448C0
:101470004152505F53544154455F50454E44494E8C
:1014800047207C7C207374617465203E3D20455468
:10149000484152505F53544154455F535441424C6C
:1014A00045000000417373657274696F6E202225D8
:1014B0007322206661696C6564206174206C696EBA
:1014C0006520256420696E2025730A006172705FB3
:1014D0007461626C655B695D2E71203D3D204E55E7
:1014E0004C4C000069203C204152505F5441424C1A
:1014F000455F53495A4500006172705F7461626CC8
:10150000655B695D2E7374617465203D3D204554B3
:10151000484152505F53544154455F454D505459D2
:101520000000000010B5044604EB44000C4951F8DB
:10153000300060B104EB4401094A52F8310003F075
:101540008BFF002004EB4401054A42F831000020E3
:1015500004EB4401024A02EBC101087510BD000012
:10156000400E00202DE9F04186B007460D4600BF31
:1015700015B906B0BDE8F08100BF7C682088B0F5E1
:10158000807F08D12079062805D16079042802D10E
:101590006088082803D0384603F05EFFE9E7D4F8F6
:1015A0000E000590A0690490686810B90026B04646
:1015B0000FE004986968884201D1012000E0002012
:1015C000064605986968884201D1012000E00020A4
:1015D00080460EB1012000E00220034604F108021B
:1015E00005A9284600F0AAFCE088B0F5807F03D06A
:1015F000B0F5007F18D116E09EB1B8F1000F10D100
:10160000022205AB04F10800291DCDE90232CDE923
:10161000001005F1220302461E31284600F038FB77
:1016200000E000BF01E000E000BF00BF384603F06B
:1016300013FF00BF9DE700002DE9FE4304460F465F
:101640001546A94600BF64B900BF63A340F21F322C
:101650006AA16EA0FEF79EFE0020002000BFAFF33F
:10166000008000BF00BF67B900BF5BA34FF44872A2
:1016700070A166A0FEF78EFE0020002000BFAFF331
:10168000008000BF00BF65B900BF53A340F2213204
:101690006BA15EA0FEF77EFE0020002000BFAFF32E
:1016A000008000BF2146286801F026F810B1DFF85D
:1016B000A08186E0287800F0F000E02816D1012013
:1016C0008DF8040000208DF805005E208DF80600DE
:1016D000687800F07F008DF80700A8788DF8080082
:1016E000E8788DF809000DF1040869E02868A16820
:1016F0000840D4E90112114088420ED0288880B2F7
:101700004FF6A961884208D0E06810B104F10C09D5
:1017100003E06FF00300BDE8FE834E48007800EB65
:1017200040004D4901EBC000007D02281BDB494809
:10173000007800EB400001EBC0008068A04212D1AD
:101740004449097801EB4101434A02EBC101D9F850
:1017500000004968884206D13E4802783946204652
:1017600000F07CF8D7E7002622E006EB46003A4975
:1017700001EBC000007D022818DB06EB460001EB00
:10178000C0008068A04211D106EB4601324A02EB4C
:10179000C101D9F800004968884207D12D48067078
:1017A00032463946204600F059F8B4E7701CC6B2FC
:1017B0000A2EDADB3A464946204600F0FDF8AAE751
:1017C00000BF4FF40060434604F122023946009006
:1017D000204600F0BDFC9EE7557365725C6C77692E
:1017E000705C7372635C636F72655C697076345CA5
:1017F0006574686172702E63000000006E65746924
:101800006620213D204E554C4C000000417373650D
:101810007274696F6E2022257322206661696C657F
:1018200064206174206C696E6520256420696E20D7
:1018300025730A007120213D204E554C4C000000BC
:1018400069706164647220213D204E554C4C00004B
:10185000785F000849000020400E0020F8B50546DA
:101860000E46144600BF04EB4400334901EBC000B0
:10187000007D02280CDA00BF30A340F2EF2238A12D
:1018800043A0FEF787FD0020002000BFAFF30080DB
:1018900000BF04EB4400284901EBC000007D022892
:1018A00039D104EB440001EBC000408AB0F58E7FD3
:1018B00011DD04EB44000A4602EBC000011D28467E
:1018C00000F0ACFA38BB032004EB44011A4A02EBE7
:1018D000C10108751FE004EB4400174901EBC0008B
:1018E000408AB0F5877F16DB04EB44000B4603EB20
:1018F000C00000F10C0204EB440003EBC000011D2A
:10190000284600F097FA30B9032004EB44010A4A54
:1019100002EBC10108754FF40060009004EB440035
:10192000054901EBC00000F10C0305F1220231462C
:10193000284600F00DFCF8BD400E0020557365727E
:101940005C6C7769705C7372635C636F72655C6911
:101950007076345C6574686172702E6300000000FC
:101960006172705F7461626C655B6172705F696403
:10197000785D2E7374617465203E3D204554484166
:1019800052505F53544154455F535441424C4500BB
:10199000417373657274696F6E202225732220660D
:1019A00061696C6564206174206C696E65202564D2
:1019B00020696E2025730A002DE9FC5F81460F46E1
:1019C000164609F1220001904FF0FF3A4FF0000B4C
:1019D0005FB1386848B14946386800F08DFE20B9DB
:1019E000387800F0F000E02803D16FF00F00BDE878
:1019F000FC9F4A4601213846FFF70AFC8046B8F1B1
:101A0000000F02DA4FFA88F0F1E700BFB8F17F0F5C
:101A10000CD300BF71A340F2C23279A17CA0FEF7C3
:101A2000B9FC0020002000BFAFF3008000BF08F029
:101A3000FF0404EB4400804901EBC000007D78B94D
:101A40004FF0010B012004EB44017B4A02EBC10182
:101A5000087504EB4400114601EBC000C0F8089083
:101A600000BF04EB4400744901EBC000007D012875
:101A700013D004EB440001EBC000007D02280CDA17
:101A800000BF56A340F2CE326CA161A0FEF782FCEB
:101A90000020002000BFAFF3008000BFBBF1000FAB
:101AA00000D1E6B93946484600F0B8F98246BAF1A5
:101AB000000F11D104EB44005F4901EBC000007D31
:101AC000012809D1BBF1000F06D1002004EB44012D
:101AD000594A02EBC10148820EB9504687E700BF60
:101AE00066B900BF3DA340F2EA325EA148A0FEF70E
:101AF00051FC0020002000BFAFF3008000BF04EBCA
:101B000044004D4901EBC000007D022811DB58481C
:101B100004704FF40060009004EB440001EBC0003F
:101B200000F10C0331464846019A00F011FB824651
:101B300052E004EB4400404901EBC000007D012865
:101B40004AD10020009035461CE000BF68892989F1
:101B500088420ED1286860B100BF20A340F2FA325B
:101B600044A12BA0FEF716FC0020002000BFAFF31D
:101B7000008000BF287B00F0400010B101200090E1
:101B800002E02D68002DE0D100BF009838B1324648
:101B90004FF420710E2003F027FB054603E0354685
:101BA000284603F037FEA5B104EB4400224951F862
:101BB000300030B104EB44011F4A52F8310003F009
:101BC0004BFC04EB44001C4941F830504FF0000A34
:101BD00001E04FF0FF3A00BF504608E755736572C9
:101BE0005C6C7769705C7372635C636F72655C696F
:101BF0007076345C6574686172702E63000000005A
:101C000074797065206F766572666C6F770000007E
:101C1000417373657274696F6E202225732220668A
:101C200061696C6564206174206C696E652025644F
:101C300020696E2025730A00400E00206172705FDB
:101C40007461626C655B695D2E7374617465203DBF
:101C50003D2050454E44494E47206F722053544119
:101C6000424C45007120213D204E554C4C00000057
:101C7000490000206E6F207061636B657420717580
:101C80006575657320616C6C6F7765642100000079
:101C90002DE9FC5F06460F4690469946DDE90CAB00
:101CA0000020019000BF66B900BF37A34FF48C62DB
:101CB0003EA142A0FEF76EFB0020002000BFAFF364
:101CC000008000BF4FF420721C210E2003F014F896
:101CD00005461DB94FF0FF30BDE8FC9F00BF688985
:101CE0001C280CDA00BF28A340F26B423DA133A0B0
:101CF000FEF750FB0020002000BFAFF3008000BFC4
:101D00006C680F9802F01EF8E08000BF96F828007B
:101D100006280CD000BF1CA340F272423E4927A007
:101D2000FEF738FB0020002000BFAFF3008000BFAB
:101D3000D9F80000A060B9F80400A081DBF8000029
:101D4000C4F81200BBF80400E082DAF80000C4F81E
:101D50000E000E980068A0614FF48070208008206B
:101D60006080062020710420607140F60600434622
:101D70003A4629460090304600F0EAF9284603F03A
:101D80006BFB00250198A7E7557365725C6C77695A
:101D9000705C7372635C636F72655C697076345CEF
:101DA0006574686172702E63000000006E6574696E
:101DB0006620213D204E554C4C0000004173736558
:101DC0007274696F6E2022257322206661696C65CA
:101DD00064206174206C696E6520256420696E2022
:101DE00025730A00636865636B20746861742066FC
:101DF0006972737420706275662063616E20686F0B
:101E00006C64207374727563742065746861727099
:101E10005F686472000000006460000870B50446EA
:101E20000D46034A2946204600F004F870BD000024
:101E3000785F00087FB504460D4616460121074A23
:101E4000201D04F122038DE8250003913246194636
:101E50002046FFF71DFF04B070BD00007E5F000844
:101E600070B5002464E004EB4400334901EBC0008A
:101E7000057D002D5BD004EB440001EBC000408ADF
:101E8000401C04EB44012C4A02EBC101488204EBE4
:101E90004400114601EBC000408AB0F5967F0DDA90
:101EA00004EB440001EBC000007D01280AD104EBE3
:101EB000440001EBC000408A052803DB2046FFF701
:101EC00031FB34E004EB44001B4901EBC000007D12
:101ED000032807D1042004EB4401174A02EBC10197
:101EE000087524E004EB4400134901EBC000007DB9
:101EF000042807D1022004EB44010F4A02EBC10180
:101F0000087514E004EB44000B4901EBC000007DB0
:101F100001280CD104EB44020B4603EBC202111D55
:101F200004EB440203EBC2029068FFF777FF641CE6
:101F30000A2C98DB70BD0000400E00202DE9F8430C
:101F400005460E461746984600BF95F82800062815
:101F50000CD000BF30A34FF4D57238A140A0FEF7DB
:101F600019FA0020002000BFAFF3008000BF5EB16F
:101F7000306848B12946306800F0BEFB20B930789F
:101F800000F0F000E02803D16FF00F00BDE8F88307
:101F90002A4641463046FFF73BF90446002C01DA59
:101FA00060B2F3E7022004EB4401374A02EBC101BF
:101FB000087504EB4400114601EBC000856004EB9A
:101FC000440001EBC0003968C160B988018200207B
:101FD00004EB440102EBC101488204EB44001146CA
:101FE00051F83000B0B104EB440051F830900020BB
:101FF00004EB440142F831004FF400603B4605F128
:10200000220249460090284600F0A2F8484603F014
:1020100023FA00BF0020B9E7557365725C6C7769DD
:10202000705C7372635C636F72655C697076345C5C
:102030006574686172702E63000000006E657469DB
:10204000662D3E6877616464725F6C656E203D3D0D
:10205000204554485F4857414444525F4C454E0028
:10206000417373657274696F6E2022257322206636
:1020700061696C6564206174206C696E65202564FB
:1020800020696E2025730A00400E00202DE9F041E2
:1020900004460E464FF00E0860890E2800DC4FE023
:1020A0006568AF89E07B18B996F82C00401CE07396
:1020B000287800F00100B0B12878012809D16878AB
:1020C00088B9A8785E280ED1607B40F0100060735C
:1020D00009E006221D492846FEF778F818B9607B0A
:1020E00040F008006073082F03D0B7F5C16F22D10C
:1020F00010E096F8290000F0080000B920E0414601
:10210000204603F0DDFB00B11AE03146204600F026
:1021100067FC11E096F8290000F0080000B90FE014
:102120004146204603F0CCFB00B109E03146204691
:10213000FFF718FA00E003E000BF0020BDE8F081DF
:10214000204603F089F90020F8E70000785F0008D6
:102150002DE9F04705460E4617469846DDF82090D3
:10216000484601F0EFFD82460E21304602F04DFD5B
:1021700000B126E07468A4F80CA0D8F80000206034
:10218000B8F80400A0803868C4F80600B8886081F8
:1021900000BF95F8280006280CD000BF0AA34FF412
:1021A0009D7212A11EA0FEF7F5F80020002000BFCE
:1021B000AFF3008000BF31462846AA699047BDE8CA
:1021C000F0876FF00100FAE7557365725C6C776910
:1021D000705C7372635C636F72655C6E6574696674
:1021E0005C65746865726E65742E63006E657469F3
:1021F000662D3E6877616464725F6C656E206D75F4
:102200007374206265203620666F7220657468657D
:10221000726E65745F6F75747075742100000000D4
:10222000417373657274696F6E2022257322206674
:1022300061696C6564206174206C696E6520256439
:1022400020696E2025730A000146652081F82A0066
:102250006E222B2042540F4848610F4888610620A7
:1022600081F82800022081F8220000222320425415
:102270002420425425204254262042540122272063
:10228000425440F2DC5008841E2081F829000020CE
:102290007047000039160008B93C000838B50446FC
:1022A0008DF8000069460320ABBE204638BD70B5EE
:1022B00005460C4622460321284600F04BF970BD26
:1022C0002DE9FF5F04468A467548806803900398AD
:1022D00000780007870E142F00DAD8E06089042800
:1022E00000D2D4E06068057815B1082D75D100E002
:1022F000C8E0DFF8AC9109F114096948007D00F0ED
:10230000F000E02800D1C6E0654A1168506900F08D
:10231000F3F900B1BFE02089082800D2B7E02046D9
:1023200000F0BFF920B1204603F096F8BDE8FF9F0A
:1023300007F10E01204602F068FC002842D02089F7
:1023400038441FFA80FB2089584500DDA3E04FF494
:10235000207259460E2002F0CFFC8046B8F1000FE3
:1023600000D198E0B8F80A1007F10800814203D2C2
:10237000404603F071F88EE03A46D8F8040003991D
:10238000FDF7F2FE3946404603F09AFA60B100BF0D
:1023900000BF44A3B6224BA157A0FDF7FBFF0020CE
:1023A000002000BFAFF300802146404602F06EFFE0
:1023B00018B1404603F050F86DE0204603F04CF8A9
:1023C000444614E007F10E01204603F079FA70B19B
:1023D00000BF00BF33A3C72200E041E050A146A0E8
:1023E000FDF7D8FF0020002000BFAFF30080666833
:1023F0003946204602F009FC88BBD4F80480D9F89D
:102400000000C8F80C0026480069C8F81000002039
:102410003070E07370884FF6F771884203DD708882
:102420000930708002E0708808307080FF2088F8E2
:1024300008000020A8F80A003946404600F027F9B5
:10244000A8F80A0001200021FF230A46CDE9010A6D
:1024500000914946204600F0A7FB834600BF11E0EB
:10246000032D0ED00B2D0CD00C2D0AD0042D08D02E
:10247000052D06D00D2D04D00E2D02D0112D00D02B
:1024800000BF00BF00BF204602F0E6FF4EE7204637
:1024900002F0E2FF4AE7204602F0DEFF00BF45E718
:1024A000300F0020557365725C6C7769705C7372D5
:1024B000635C636F72655C697076345C69636D70D0
:1024C0002E63000069636D705F696E7075743A20E9
:1024D0006D6F76696E6720722D3E7061796C6F61E9
:1024E0006420746F2069636D702068656164657233
:1024F000206661696C656400417373657274696F0D
:102500006E2022257322206661696C6564206174E7
:10251000206C696E6520256420696E2025730A0091
:1025200069636D705F696E7075743A20726573745B
:102530006F72696E67206F726967696E616C207077
:102540002D3E7061796C6F6164206661696C6564B1
:10255000000000002DE9FF5F0646894692464FF0D5
:102560001C083089404501DAB6F8088008F10800F7
:1025700081B24FF42072222002F0BEFB05460DB955
:10258000BDE8FF9F00BF698908F1080081420CD2B5
:1025900000BF1DA34FF4B77223A12EA0FDF7FAFED2
:1025A0000020002000BFAFF3008000BFD6F804B0C9
:1025B0006C6884F8009084F801A000206060082313
:1025C00042463146284602F071FEDBF80C000390CB
:1025D00003A800F085FD074687B100206080698967
:1025E000204600F054F8608001200021FF2303AA58
:1025F000CDE901070091284600F0D6FA284602F0FE
:102600002BFF00BFBCE70000557365725C6C7769F7
:10261000705C7372635C636F72655C697076345C66
:1026200069636D702E630000636865636B20746876
:1026300061742066697273742070627566206361CC
:102640006E20686F6C642069636D70206D657373B4
:1026500061676500417373657274696F6E2022252E
:102660007322206661696C6564206174206C696EF8
:102670006520256420696E2025730A0070B5054623
:102680000C4622460B212846FFF764FF70BD30B58B
:1026900004460D462946204601F09EFBC04380B209
:1026A00030BDF0B5064600270024354619E069899B
:1026B000686801F091FB0444A0B200EB14446889FF
:1026C00000EBD0714910A0EB410149B10FB90120D5
:1026D00000E000200746E0B2C4F3072141EA0024ED
:1026E0002D68002DE3D127B1E0B2C4F3072141EA00
:1026F0000024E04380B2F0BD18B502460092D043FA
:1027000000B10AB9012018BD91F8290000F00200BB
:1027100008B90020F7E74868904201D10020F2E7AD
:1027200000988B681840D1E901342340984208D1C1
:10273000886822EA00008C68E343984201D10120B6
:10274000E1E70020DFE700002DE9F74F8CB00446F9
:1027500088464FF00009B8F82010A1F11400C11705
:1027600000EB5171C1F3CF0A142005906068099005
:10277000099E307800F00F001421B1EB800F04D0D7
:102780006FF005000FB0BDE8F08F00BF608914281E
:1027900002DA6FF00500F5E700BFF08801F0D2FA29
:1027A00004900498C0F30C000790049800F40050C3
:1027B0000390208914381FFA80FBC8E04FF6FF70A1
:1027C00000EACA00584501DD584603E04FF6FF70A5
:1027D00000EACA0008904FF4207214210E2002F083
:1027E0008BFA054605B9B8E000BF688914280CDAF1
:1027F00000BF5BA340F2263262A16AA0FDF7CAFDCA
:102800000020002000BFAFF3008000BF14226868E2
:102810000999FDF7A9FC6E6808980A9058E061894B
:102820000598081A80B2029000BF6189059881421C
:102830000CDA00BF4AA340F22F3264A159A0FDF781
:10284000A9FD0020002000BFAFF3008000BF029967
:102850000A98884201DA0A9800E002988146B9F1A4
:10286000000F03D100200590246831E000F082FCC5
:1028700007461FB9284602F0EFFD6EE06168059833
:1028800008443B4641224946CDE90009002002F0B8
:10289000D9FB0B900B9830B9384600F071FC2846F4
:1028A00002F0DAFD59E0204602F0B4FF7C614B48AB
:1028B000386128460B9902F0EFFB0A98A0EB09005B
:1028C00080B20A900A9810B100200590246800BFD9
:1028D0000A980028A3D10598484480B20590B8F81A
:1028E00020001438584501DB012000E0002006904C
:1028F0000798C0F30C000490069808B1039818B12B
:10290000049840F400500490049801F01BFAF08001
:102910000899143188B201F015FA70800020708196
:1029200014213046FFF7B3FE7081D8F814302946E1
:1029300040460E9A9847284602F08EFD0898ABEB69
:1029400000001FFA80FB0798504480B20790BBF14B
:10295000000F7FF433AF002014E74FF0FF3011E792
:10296000557365725C6C7769705C7372635C636FDE
:1029700072655C697076345C6970345F6672616739
:102980002E63000074686973206E6565647320614E
:10299000207062756620696E206F6E6520706965B3
:1029A00063652100417373657274696F6E2022251F
:1029B0007322206661696C6564206174206C696EA5
:1029C0006520256420696E2025730A00702D3E6CF9
:1029D000656E203E3D20706F66660000D1380008AD
:1029E0002DE9F04707460E467D6828780421B1EBB3
:1029F000201F05D0384602F02FFD0020BDE8F087EB
:102A0000287800074FEA9068688801F09BF98146B2
:102A10003989494503DD4946384602F025FE788963
:102A2000404505DB3889484502DBB8F1140F04DA6C
:102A3000384602F011FD0020E0E741462846FFF746
:102A400026FE20B1384602F007FD0020D6E72869AF
:102A500046494861E86808610846007D00F0F000DA
:102A6000E0280AD196F8290000F0010018B170683A
:102A700008B134461CE000241AE0304600F07AF831
:102A800008B1344614E000243848007D7F280FD078
:102A90003748046809E0B44200D105E0204600F060
:102AA00069F800B103E000BF2468002CF3D100BF37
:102AB0002E4908693146FFF71FFE28B92B48007CD4
:102AC00000F0F000E02804D1384602F0C5FC0020F8
:102AD00094E724B9384602F0BFFC00208EE7E8886E
:102AE0004FF63F71084038B1384600F075F9074697
:102AF0000FB9002082E77D681C480460466085604D
:102B000028780007800E194988814146384602F02E
:102B1000D7FE687A012804D131463846FFF7D0FB4A
:102B200018E0124948692146FFF7E6FD70B90F48E1
:102B3000007D00F0F000E02808D00FFA88F1384658
:102B400002F068FD02213846FFF7B1FB384602F07B
:102B500083FC00BF00BF0020044908604860886013
:102B600088810861486100BF48E70000300F0020FD
:102B70004000002010B5044694F8290000F0010040
:102B800070B1606860B1074840696168884205D0EB
:102B9000044948692146FFF7AFFD08B1012010BD87
:102BA0000020FCE7300F00202DE9FE4F07460C46C1
:102BB00015469846DDE90C9A0E9EA34625B10CB148
:102BC000206808B906F1040B43462A4659463846A0
:102BD000CDE9009A029600F003F8BDE8FE8F0000F0
:102BE0002DE9FF4F81B0064689469846DDE90FA7DB
:102BF000002500BFB07B01280CD000BF53A340F2DA
:102C000076325AA15CA0FDF7C5FB0020002000BF72
:102C1000AFF3008000BF039800287AD04FF0140B68
:102C20001421304601F0F1FF20B16FF0010005B032
:102C3000BDE8F08F746800BF708914280CD200BF03
:102C400042A340F2AA3256A14BA0FDF7A3FB0020FD
:102C5000002000BFAFF3008000BF84F8088084F834
:102C600009A04AEA08200006000C4AEA082140EAC6
:102C700011200544039800682061208A80B2054431
:102C8000206905EB104558464FEAEB710BEB91714B
:102C9000C1F3870141F0400121700E9860702178E6
:102CA0000E9840EA01200006010C22780E9840EAB6
:102CB000022041EA10200544308901F043F8608089
:102CC000608805440020E0804148008801F03AF81F
:102CD000A080A08805443E480088401C3C490880EC
:102CE000B9F1000F03D13B480068E06002E0D9F879
:102CF0000000E060A08980B20544E06805EB104563
:102D0000A8B200EB154505EB1545ED4365810BE0D9
:102D1000FFE77089142802DA6FF0010087E7746812
:102D200020690090CDF80CD0388C48B13089398CAE
:102D3000884205DD39463046039AFFF705FD76E700
:102D40007B6931463846039A984770E75573657238
:102D50005C6C7769705C7372635C636F72655C69ED
:102D60007076345C6970342E63000000702D3E7202
:102D70006566203D3D203100417373657274696F53
:102D80006E2022257322206661696C65642061745F
:102D9000206C696E6520256420696E2025730A0009
:102DA000636865636B20746861742066697273740C
:102DB00020706275662063616E20686F6C6420739A
:102DC00074727563742069705F686472000000003B
:102DD0004A000020705F00082DE9F14F84B004988C
:102DE0004568287800F00F001421B1EB800F00D067
:102DF00022E1E88800F0A6FFC0F30C004FF6FF7157
:102E000001EAC00A688800F09DFF0746287800079D
:102E1000810E02910299B94200DD0DE10298381A43
:102E200087B2049802F0D6F90646864801888819C8
:102E30000A280ADD3146284600F0ECFC20B1814822
:102E4000008830440A2800DDF6E07F48046811E07D
:102E50006069E968884209D1A0692969884205D179
:102E6000A089A988884201D1012000E0002000B19A
:102E700002E02468002CEBD100BF34B9314628466B
:102E800000F0A4FB044694B9D6E0E88800F05AFFAD
:102E9000C0F30C0058B9E08900F054FFC0F30C00F7
:102EA00028B11422294604F10800FDF75DF9E888ED
:102EB000012121EA50100190019850B10AEB07015D
:102EC00088B2504503DB4FF6EB71884200DD89E0A4
:102ED00000BF2046019A049900F096F983460BF151
:102EE000010000B97EE05748008830445549088009
:102EF000019840B10AEB070188B2A083A17F41F09D
:102F00000101A17700BFBBF1010F69D1A08B143083
:102F100080B2009060684068D0F8009060684568B2
:102F2000142204F108012846FDF71EF9009800F06C
:102F300009FF68800020E880688114212846FFF797
:102F4000A6FB6881606804900DE0D9F80400039046
:102F50001421484602F0B4FC4946049802F09CF85B
:102F60000398D0F80090B9F1000FEED13648006810
:102F7000844202D14FF000080EE03348D0F80080C0
:102F800006E0D8F80000A04200D104E0D8F80080A4
:102F9000B8F1000FF5D100BF4146204600F0BCFA61
:102FA000049802F017F9064600BF26480088B04290
:102FB0000CDA00BF25A340F29D222DA133A0FDF71E
:102FC000E9F90020002000BFAFF3008000BF1D48DA
:102FD0000088801B1B490880049805B0BDE8F08F6D
:102FE0000020FAE700BF64B900BF18A340F2AA228C
:102FF00030A126A0FDF7CEF90020002000BFAFF3DE
:10300000008000BF6068B0B900BF0F48006884420C
:103010000CD000BF0DA340F2AD2229A11BA0FDF7EB
:10302000B9F90020002000BFAFF3008000BF0021ED
:10303000204600F071FA00BF049802F00DFA00205B
:10304000CBE70000500000204C0000205573657253
:103050005C6C7769705C7372635C636F72655C69EA
:103060007076345C6970345F667261672E6300004D
:1030700069705F72656173735F70627566636F75A7
:103080006E74203E3D20636C656E00004173736575
:103090007274696F6E2022257322206661696C65E7
:1030A00064206174206C696E6520256420696E203F
:1030B00025730A0069707220213D204E554C4C004A
:1030C0006E6F74206669727374616C74686F756773
:1030D00068206A75737420656E7175657565640026
:1030E00010B502462148016821E091F8290000F05E
:1030F0000100D8B191F82900C0F38000B0B1486850
:10310000A0B110688B681840D1E90134234098427F
:1031100001D1084610BD91F8290000F0020028B93D
:103120001068CB68984201D10846F3E70968002986
:10313000DBD10F480068A0B10D48006890F8290065
:1031400000F0010068B10A48006890F82900C0F357
:10315000800030B106480068406810B110787F28C0
:1031600001D10020D6E702480068D3E740000020E4
:103170004400002010B5012001F00AFB10BD000042
:1031800010B5044600BF64B900BF09A340F2C622CF
:1031900010A113A0FDF7FEF80020002000BFAFF340
:1031A000008000BF2146012001F0B8FA10BD0000E8
:1031B000557365725C6C7769705C7372635C636F86
:1031C00072655C697076345C6970345F66726167E1
:1031D0002E6300007020213D204E554C4C00000015
:1031E000417373657274696F6E20222573222066A5
:1031F00061696C6564206174206C696E652025646A
:1032000020696E2025730A002DE9F74F84B0064629
:103210008846002501200190D8F804000290029908
:10322000488800F08FFD8346029800780007800EE2
:1032300003900398584503DD681E07B0BDE8F08F82
:103240000398ABEB00001FFA80FB0299C88800F0DE
:1032500079FDC0F30C004FF6FF7101EAC00A00BF10
:1032600000BFD8F8044000202060A4F804A00AEBB6
:103270000B00E080E088504502DA4FF0FF30DCE7D9
:10328000D6F804903EE0D9F80470A088B988884246
:1032900020DAC4F800909DB1A088E988884203DB59
:1032A000E088B988884202DD4FF0FF30C5E7C5F8F5
:1032B0000080E888A18888420BD00020019008E0B7
:1032C000E088B988884202DD4FF0FF30B5E7C6F8E4
:1032D00004801AE0A088B988884202D14FF0FF30FC
:1032E000ABE7A088F988884202DA4FF0FF30A4E704
:1032F0002DB1E888B988884201D000200190D7F824
:1033000000903D46B9F1000FBDD100BFB9F1000FEB
:103310002FD1DDB100BFE888A18888420CDD00BF55
:1033200047A34FF4DC724FA156A0FDF733F80020FD
:10333000002000BFAFF3008000BFC5F80080E88820
:10334000A188884215D00020019012E000BF70686B
:1033500060B100BF3AA34FF4E07254A149A0FDF759
:1033600019F80020002000BFAFF3008000BFC6F8AE
:103370000480069820B9B07F00F0010000285DD0DD
:103380000198002854D0706818B17068406880882F
:1033900010B1002001904BE02546D4F800900BE0DE
:1033A000D9F80440E888A188884202D00020019022
:1033B00005E02546D4F80090B9F1000FF0D100BF28
:1033C0000198002834D000BF706860B900BF1CA30A
:1033D00040F2E11243A12BA0FCF7DCFF002000200B
:1033E00000BFAFF3008000BF00BF70684068A0421C
:1033F0000CD100BF12A34FF4F1723AA121A0FCF747
:10340000C9FF0020002000BFAFF3008000BF00BF55
:10341000206860B100BF0AA34FF4F27235A119A071
:10342000FCF7B8FF0020002000BFAFF3008000BF12
:10343000019808B1012000E70020FEE60020FCE62C
:10344000557365725C6C7769705C7372635C636FF3
:1034500072655C697076345C6970345F667261674E
:103460002E630000636865636B20667261676D653B
:103470006E747320646F6E2774206F7665726C6152
:1034800070000000417373657274696F6E202225AD
:103490007322206661696C6564206174206C696EBA
:1034A0006520256420696E2025730A006E6F2070E8
:1034B000726576696F757320667261676D656E748B
:1034C0002C2074686973206D757374206265207494
:1034D000686520666972737420667261676D656ED7
:1034E0007421000073616E69747920636865636B91
:1034F0000000000076616C69646174655F646174EA
:10350000616772616D3A6E6578745F70627566218D
:103510003D4E554C4C00000070B504460D46104819
:103520000068A04203D10E492068086012E000BF85
:10353000002D0CD100BF0BA340F2471212A119A01D
:10354000FCF728FF0020002000BFAFF3008000BF81
:10355000206828602146002001F0E0F870BD0000DE
:103560004C000020557365725C6C7769705C7372F7
:10357000635C636F72655C697076345C6970345F3C
:10358000667261672E63000073616E6974792063EF
:103590006865636B206C696E6B6564206C6973741D
:1035A00000000000417373657274696F6E202225FC
:1035B0007322206661696C6564206174206C696E99
:1035C0006520256420696E2025730A0070B50546C4
:1035D0000E46002001F0DCF8044664B93146284666
:1035E00000F018F9B04203DB002001F0D1F80446E6
:1035F0000CB9002070BD20212046FCF7DCFD0F2017
:10360000E0770648006820600448046014222946D8
:1036100004F10800FCF7A8FD2046EBE74C00002071
:103620002DE9F04704468846002500BFA0450BD190
:1036300000BF4BA3AB2253A155A0FCF7ABFE00206B
:10364000002000BFAFF3008000BFB8F1000F11D021
:1036500000BFD8F80000A0420BD000BF40A3AD22AD
:1036600055A14BA0FCF796FE0020002000BFAFF351
:10367000008000BF606800282FD06068D0F80490F8
:10368000B9F80400002828D16768D9F80000606004
:10369000142204F108017868FCF766FD0121384620
:1036A000FEF7ECFF384601F095FD064600BFA8196D
:1036B000B0F5803F0BDB00BF29A3BD2243A134A09E
:1036C000FCF768FE0020002000BFAFF3008000BFC1
:1036D000A81985B2384601F0BFFE676820E0D7F828
:1036E0000490BA46D9F80070504601F073FD0646C2
:1036F00000BFA819B0F5803F0BDB00BF18A3CE2296
:1037000032A123A0FCF746FE0020002000BFAFF34B
:10371000008000BFA81985B2504601F09DFE00BF91
:10372000002FDCD141462046FFF7F6FE00BF2F48B0
:103730000088A8420BDA00BF09A3D4222CA114A050
:10374000FCF728FE0020002000BFAFF3008000BF80
:1037500026480088401B254908802846BDE8F08798
:10376000557365725C6C7769705C7372635C636FD0
:1037700072655C697076345C6970345F667261672B
:103780002E6300007072657620213D206970720002
:10379000417373657274696F6E20222573222066EF
:1037A00061696C6564206174206C696E65202564B4
:1037B00020696E2025730A00707265762D3E6E6555
:1037C0007874203D3D20697072000000706275665B
:1037D000735F6672656564202B20636C656E203CA8
:1037E0003D203078666666660000000050000020CC
:1037F00069705F72656173735F70627566636F7520
:103800006E74203E3D2070627566735F66726565FA
:10381000640000002DE9F84F05468946002700BFE7
:103820000026B2460020009083461B48046821E031
:103830006069E968884207D1A0692969884203D193
:10384000A089A988884201D0012000E0002068B149
:103850000BF1010B1EB92646CDF800A006E0E07F73
:10386000F17F884202DC2646CDF800A0206800B136
:10387000A2462468002CDBD12EB130460099FFF718
:10388000CFFE804647444F4502DABBF1010FC7DC4B
:103890003846BDE8F88F00004C00002070B50025C8
:1038A0000A4804680FE0E07F002805DDE07F401E45
:1038B000E0772546246806E02646246829463046F7
:1038C000FFF7AEFE00BF002CEDD170BD4C00002014
:1038D00070B505462C4600BF64B900BF13A34FF472
:1038E00034721BA11DA0FCF755FD0020002000BF75
:1038F000AFF3008000BF00BFAC420CD000BF0BA3F1
:1039000040F2D1221FA115A0FCF744FD00200020A9
:1039100000BFAFF3008000BF606910B1606901F0C3
:103920009BFD2046FFF72CFC70BD000055736572AF
:103930005C6C7769705C7372635C636F72655C6901
:103940007076345C6970345F667261672E63000064
:1039500070637220213D204E554C4C0041737365BD
:103960007274696F6E2022257322206661696C650E
:1039700064206174206C696E6520256420696E2066
:1039800025730A00706372203D3D20700000000026
:10399000F0B5C7B00446206880476AA1D1E900238A
:1039A000D1E90201449343924691459069A30FCB1C
:1039B0003FAD0FC53C226BA130A8FCF7D5FB3C22E4
:1039C00077A121A8FCF7D0FB3C2284A112A8FCF728
:1039D000CBFB382290A104A8FCF7C6FB0020039083
:1039E00041F2342632469A492046FDF78BFB98492E
:1039F0002046FDF7EDF9039030A861688847BDF8CF
:103A00000C00B04204D03FA86168884700BFFEE7C1
:103A100043A86168884700BF8E492046FDF7D8F962
:103A200003909DF80C0000F001000028F4D032460D
:103A300089492046FDF766FB87492046FDF7C8F90E
:103A4000039021A861688847BDF80C00B04204D0FB
:103A50003FA86168884700BFFEE743A861688847C0
:103A600043F683073A467D492046FDF74BFB7B49E9
:103A70002046FDF7ADF9039012A861688847BDF8AC
:103A80000C004010B0EB670F04D03FA86168884776
:103A900000BFFEE743A86168884771A000680290F4
:103AA000002001906F492046FDF792F903909DF8A0
:103AB0000C0020F0800080308DF80C00BDF80C2048
:103AC00068492046FDF71EFB002261492046FDF7AC
:103AD00019FB40F6FF7264492046FDF713FB4FF4D3
:103AE000805262492046FDF70DFB042202A92046C0
:103AF000FDF7F0FA4FF480525D492046FDF702FBD6
:103B0000042201A92046FDF74BF904A86168884703
:103B100000250CE002A8405D01A9495D884204D05F
:103B20003FA86168884700BFFEE7681CC5B2042D46
:103B3000F0DB43A8616888472046FDF7C1FA47B02B
:103B4000F0BD000054657374207061737365640A7E
:103B50000000000054657374206661696C65640A36
:103B600000000000204D6964576172652054657340
:103B700074313A20547279696E6720746F207772BD
:103B800069746520616E6420726561642074686583
:103B9000204554482072656769737465720A000095
:103BA0004D6964576172652054657374323A2054CC
:103BB0007279696E6720746F20777269746520610D
:103BC0006E64207265616420746865204D414320F5
:103BD00072656769737465720A0000004D69645705
:103BE0006172652054657374333A20547279696E3A
:103BF0006720746F20777269746520616E6420722B
:103C00006561642074686520504859207265676951
:103C1000737465720A0000004D6964576172652013
:103C200054657374343A20547279696E6720746FE6
:103C300020777269746520616E642072656164200A
:103C4000627566666572206D656D6F72790A000037
:103C5000CC5F0008B85F0008E85F00081C6000083F
:103C600012345678BC5F0008D05F0008C85F0008B7
:103C7000C45F00082DE9F04180460E4617463A46DB
:103C800031460C48FDF7C8F9044614B90020BDE8D8
:103C9000F0814FF4C1722146002001F02DF8054655
:103CA0000DB90020F3E722463146284601F062FEB6
:103CB0002846ECE760000020F8B506460D460C48A3
:103CC000FDF76AF800200090012269460848FDF7D8
:103CD0008BFA2C4605E0628905486168FDF784FA95
:103CE0002468002CF7D10248FDF752F90020F8BDF6
:103CF000600000202DE9F0410446254668688047B1
:103D000001F0F8FF06460D49286809684718B81BF6
:103D1000B0F1004F01D3012000E0002030B129684C
:103D200088192246064902F04DF804E0224604496B
:103D3000384602F047F8BDE8F08100005800002046
:103D4000F53C000801460806000C40EA11207047C7
:103D500008B50020009000BF684680420CD000BF2C
:103D60000BA340F25B12114911A0FCF713FB0020DA
:103D7000002000BFAFF3008000BF00BF00BF00F015
:103D8000E1F900F0DFFC00F088FE02F0B5F808BDB4
:103D9000557365725C6C7769705C7372635C636F9A
:103DA00072655C696E69742E630000002060000813
:103DB000417373657274696F6E20222573222066C9
:103DC00061696C6564206174206C696E652025648E
:103DD00020696E2025730A00F8B505460A462B4671
:103DE00000200090002103F0010636B1002A04DD16
:103DF00013F8010B8DF80100521E1C4603E034F845
:103E0000027B3944921E012AF9DC002A02DD207867
:103E10008DF80000BDF80000014488B200EB1141AC
:103E200088B200EB114126B1C8B2C1F3072747EAB7
:103E3000002188B2F8BD000086B0FCF7FDF94848C3
:103E400000684FF47A72B0FBF2F1B1F1807F00D3D9
:103E50001DE021F07F40401E4FF0E02250615017DE
:103E60000F22002807DA13071D0E3E4B00F00F0447
:103E7000241F1D5503E013071C0E3B4B1C5400BFB1
:103E800000204FF0E02290610720106100BF37480A
:103E9000806940F01000354988613548406820F459
:103EA0004000334948600846406840F400104860CC
:103EB0004FF6FF70C8602F492F48FCF715FE2F48BA
:103EC00005906FF07F40049000200390FFF740FFC3
:103ED0002B482C49002203ABCDE90021029004AA13
:103EE00005A9294800F066FC274800F06FFE264827
:103EF00000F072FE33E01E48C06880F400501C4998
:103F0000C8600020029002E00298401C02901F4905
:103F100002988842F8DB4FF4BE621D491A48FFF749
:103F2000A9FE044644B1184801460269204690475C
:103F300010B1204601F090FA01F0B2FE0C48C068C2
:103F400080F400500A49C8600020029002E0029804
:103F5000401C02900D4902988842F8DB00BFCAE776
:103F60000000002018ED00E000E400E00010024036
:103F7000001001401800002060000020A9FE193F39
:103F80008D2000084922000894000020A08601002E
:103F9000C400002070B5054605B970BD05F00300EA
:103FA00000280DD000BF00BF2BA340F2662231A134
:103FB00039A0FCF7EFF90020002000BFAFF300802C
:103FC000A5F108043E480068844205D305F10C00C1
:103FD0003C49096888420DD900BF00BF1EA340F2CA
:103FE000722239A12CA0FCF7D5F90020002000BFD7
:103FF000AFF30080207900280DD100BF00BF16A3C9
:1040000040F27F2237A124A0FCF7C4F90020002051
:1040100000BFAFF30080204600F0C2F800280DD1A9
:1040200000BF00BF0CA34FF4227238A11AA0FCF706
:10403000B1F90020002000BFAFF300800020207104
:104040003F480068844201D23D480460204601F0A8
:104050002DFD00BFA1E70000557365725C6C7769A8
:10406000705C7372635C636F72655C6D656D2E630B
:10407000000000006D656D5F667265653A207361D2
:104080006E69747920636865636B20616C69676E23
:104090006D656E7400000000417373657274696F22
:1040A0006E2022257322206661696C65642061742C
:1040B000206C696E6520256420696E2025730A00D6
:1040C00020000020240000206D656D5F667265652C
:1040D0003A20696C6C6567616C206D656D6F7279F3
:1040E000000000006D656D5F667265653A20696C61
:1040F0006C6567616C206D656D6F72793A20646FD5
:1041000075626C6520667265650000006D656D5FA7
:10411000667265653A20696C6C6567616C206D65D7
:104120006D6F72793A206E6F6E2D6C696E6B65647F
:104130003A20646F75626C652066726565000000E8
:104140002800002010B500BF00BF114820F0030078
:1041500010490860084604684FF480602080002001
:10416000608020714FF4806001F092FD0A49086080
:10417000012009680871800207490968088006491A
:1041800009684880034800680449086010BD0000C1
:10419000B706002020000020240000202800002076
:1041A0002DE9F0410446204600F084F905462088B8
:1041B00001F06EFD0646608801F06AFD0746208822
:1041C000B0F5806F10D86088B0F5806F0CD860882B
:1041D000A84202D03888A84206D106480068864224
:1041E00005D07088A84202D00020BDE8F0810120EF
:1041F000FBE70000240000202DE9F0478146B9F1DB
:10420000000F02D10020BDE8F08709F1030020F083
:10421000030085B20C2D00D20C25B5F5806F01D8B6
:104220004D4501DA0020EEE76248006800F042F9EF
:104230000646B7E0304601F02BFD04462079002801
:104240007AD1218806F10800081AA84274D321887F
:1042500006F10800091A05F1140081422DD306F178
:10426000080028441FFA80F800BFB8F5806F0CD111
:1042700000BF51A340F27A3256A15BA0FCF78AF846
:104280000020002000BFAFF3008000BF404601F0D7
:10429000FFFC074600213971218839807E80A4F80F
:1042A0000080012020713888B0F5806F07D03888F1
:1042B00001F0EEFCA0F8028001E0012020713D48F1
:1042C000006884422BD13B48D0F800A004E0BAF843
:1042D000000001F0DDFC82469AF8040018B14C4859
:1042E00000688245F3D13348C0F800A000BF0068E1
:1042F00047490968884210D02E480068007960B1AB
:1043000000BF2DA34FF46A7242A137A0FCF742F818
:104310000020002000BFAFF3008000BF00BF00BF3F
:1043200004F1080028443A49096888420ED900BFC0
:1043300021A34FF46B7200E030E03DA12AA0FCF70E
:1043400029F80020002000BFAFF3008000BF00BFAD
:1043500004F0030060B100BF17A340F2AE3240A1E9
:1043600021A0FCF717F80020002000BFAFF3008069
:1043700000BF00BF04F0030060B100BF0EA34FF404
:104380006C7243A118A0FCF705F80020002000BFC4
:10439000AFF3008000BF04F1080034E7304601F0BD
:1043A00077FC0688C5F58060B0423FF643AF002039
:1043B00029E7000028000020557365725C6C77695E
:1043C000705C7372635C636F72655C6D656D2E63A8
:1043D00000000000696E76616C6964206E65787417
:1043E0002070747200000000417373657274696F0D
:1043F0006E2022257322206661696C6564206174D9
:10440000206C696E6520256420696E2025730A0082
:10441000240000206D656D5F6D616C6C6F633A20E8
:10442000216C667265652D3E757365640000000041
:104430006D656D5F6D616C6C6F633A20616C6C6F64
:104440006361746564206D656D6F7279206E6F7441
:104450002061626F76652072616D5F656E642E000B
:104460006D656D5F6D616C6C6F633A20616C6C6F34
:104470006361746564206D656D6F72792070726F11
:104480007065726C7920616C69676E65642E0000DE
:104490006D656D5F6D616C6C6F633A2073616E6901
:1044A000747920636865636B20616C69676E6D6504
:1044B0006E740000014602480088081A80B27047F6
:1044C000200000202DE9F84F81468B460BF10300B8
:1044D00020F0030085B20C2D00D20C25B5F5806FBD
:1044E00001D85D4502DA0020BDE8F88F00BF6448BE
:1044F0000068814503D36348006881450CD300BF41
:1045000061A34FF4317267A16CA0FBF743FF002059
:10451000002000BFAFF3008000BF5948006881450C
:1045200003D35848006881450ED300BF00BFFBF796
:1045300041FF009072B600BF00BF0098FBF74CFF30
:1045400000BF00BF4846CFE7A9F108063046FFF795
:10455000B1FF07463188C81B08381FFA80FA00BF30
:1045600055450CDD00BF48A340F2D7225DA153A002
:10457000FBF710FF0020002000BFAFF3008000BF5A
:10458000554501DD0020AFE7554501D14846ABE771
:10459000308801F07DFB04462079002837D100BF28
:1045A0003088B0F5806F0CD100BF37A34FF43A725A
:1045B00054A142A0FBF7EEFE0020002000BFAFF3A5
:1045C000008000BF2088009007F1080028441FFAEF
:1045D00080F851480068A04204D1404601F058FBE1
:1045E0004D490860404601F053FB0446002020710D
:1045F000009820806780A6F800802088B0F5806F42
:1046000004D0208801F044FBA0F8028035E005F1D9
:104610001400504531D807F1080028441FFA80F8EB
:1046200000BF3088B0F5806F0CD100BF16A340F2F8
:10463000093234A121A0FBF7ADFE0020002000BF0D
:10464000AFF3008000BF404601F022FB0446324831
:104650000068844201D23048046000202071308814
:1046600020806780A6F800802088B0F5806F04D095
:10467000208801F00DFBA0F80280484634E70000D6
:104680002000002024000020557365725C6C77695F
:10469000705C7372635C636F72655C6D656D2E63D5
:1046A000000000006D656D5F7472696D3A206C6585
:1046B00067616C206D656D6F727900004173736581
:1046C0007274696F6E2022257322206661696C65A1
:1046D00064206174206C696E6520256420696E20F9
:1046E00025730A006D656D5F7472696D2063616E7C
:1046F000206F6E6C7920736872696E6B206D656DCA
:104700006F727900696E76616C6964206E65787489
:1047100020707472000000002800002070B504466C
:104720000D4600BF052C00DB70BD00BF05B9FBE7DF
:10473000034951F824002946FBF72EFF00BFF3E799
:104740005C5F000810B5002406E0054951F824001C
:1047500000F008F8601C84B2052CF6D310BD0000F0
:104760005C5F000810B50023846823604368DB1C8D
:1047700023F00301002207E083681B680B60836855
:10478000196003881944521C43889342F4DC10BD1D
:1047900070B5044600BF052C01DB002070BD00BFD2
:1047A000034951F82400FBF755FF05462846F5E775
:1047B0005C5F00082DE9F05F04460E4617469846F8
:1047C000DDE90AB900BF14B90020BDE8F09F00BFC1
:1047D00000BFB9F1000F01D10020F6E700BF06B914
:1047E0003E4E07B93D4FB8F1000F01D1DFF8EC8024
:1047F00000206060A060E060394860610020208493
:1048000084F82900C4F81CB03648007884F82C00DD
:104810000C98206143463A463146204600F0A6F9FE
:104820002046C84708B10020CFE700BF94F82C000D
:10483000FF2802D1002084F82C004FF0000A2A48FB
:10484000056831E000BFA5420CD100BF27A34FF49B
:10485000CE722DA131A0FBF79DFD0020002000BFEE
:10486000AFF3008000BF0AF1010A00BFBAF1FF0FE9
:104870000CDD00BF1DA34FF4CF7232A127A0FBF7C0
:1048800089FD0020002000BFAFF3008000BF95F835
:104890002C0094F82C10884205D194F82C00401C70
:1048A00084F82C0002E02D68002DCBD100BF002D34
:1048B000BCD194F82C00FE2803D1002009490870CF
:1048C00004E094F82C00401C064908700648006873
:1048D000206005480460204677E70000705F00080C
:1048E000654B0008480000204000002055736572A9
:1048F0005C6C7769705C7372635C636F72655C6E2D
:10490000657469662E6300006E6574696620616C6B
:1049100072656164792061646465640041737365E4
:104920007274696F6E2022257322206661696C653E
:1049300064206174206C696E6520256420696E2096
:1049400025730A00746F6F206D616E79206E657437
:104950006966732C206D61782E20737570706F728C
:10496000746564206E756D626572206973203235DE
:1049700035000000704710B503460868DC68A042A7
:1049800001D1012000E0002030B909B9002000E089
:104990000868D860012010BD0020FCE7F8B5054686
:1049A0000C46164600BF64B900BF1DA34FF4EE725B
:1049B00022A126A0FBF7EEFC0020002000BFAFF3F1
:1049C000008000BF00BF66B900BF15A340F2DD1232
:1049D0001AA11EA0FBF7DEFC0020002000BFAFF3F1
:1049E000008000BF20686968884201D1012000E092
:1049F000002090B9206800906868306069463046B1
:104A0000FFF7B8FF0CB9002000E0206868600121C2
:104A1000284600F043F80120F8BD0020FCE7000024
:104A2000557365725C6C7769705C7372635C636FFD
:104A300072655C6E657469662E630000696E7661EE
:104A40006C696420706F696E746572004173736580
:104A50007274696F6E2022257322206661696C650D
:104A600064206174206C696E6520256420696E2065
:104A700025730A0010B5034608689C68A04201D15E
:104A8000012000E0002030B909B9002000E00868EA
:104A90009860012010BD0020FCE7704770B5044607
:104AA0000D4600BF002C0CD100BF14A34FF462725E
:104AB00019A122A0FBF76EFC0020002000BFAFF37D
:104AC000008000BF94F8290000F0040020B194F8A1
:104AD000290000F0010000B970BD05F0010050B1DF
:104AE000606840B194F8290000F0080018B1211D59
:104AF0002046FDF793F900BFEEE70000557365729D
:104B00005C6C7769705C7372635C636F72655C6E1A
:104B1000657469662E6300006E657469665F69730B
:104B20007375655F7265706F7274733A20696E7623
:104B3000616C6964206E6574696600004173736519
:104B40007274696F6E2022257322206661696C651C
:104B500064206174206C696E6520256420696E2074
:104B600025730A0003466FF00B0070472DE9F84FDC
:104B700080460C4615461E464FF00009CA4604B949
:104B8000114C05B9104D06B90F4E0CB1206808B98B
:104B9000012000E00020074627B16A462146404632
:104BA000FFF7FCFE4A4629464046FFF763FF5246A0
:104BB00031464046FFF7DFFE27B96A4621464046A8
:104BC000FFF7ECFEBDE8F88F705F00080149086050
:104BD000704700004400002010B5044600BF04B92F
:104BE00010BD00BF94F8290000F0010058B900BFC3
:104BF00094F8290040F0010084F8290000BF032147
:104C00002046FFF74BFF00BFEAE770B504460D46AC
:104C100000222946204600F001F870BD2DE9F0473A
:104C200004460D46904600BF64B900BF1EA34FF472
:104C3000F27224A126A0FBF7ADFB0020002000BFEC
:104C4000AFF3008000BF14B1B5F5803F02D301205F
:104C5000BDE8F0870DB90020FAE7AEB220893044F4
:104C600080B2B04201DA0120F2E794F80C9009F02A
:104C7000800038B16068471B04F11000874209D2F8
:104C80000120E5E7B8F1000F02D06068471B01E0A2
:104C90000120DDE76760608930446081208930440D
:104CA00020810020D4E70000557365725C6C776941
:104CB000705C7372635C636F72655C706275662EA4
:104CC000630000007020213D204E554C4C00000038
:104CD000417373657274696F6E202225732220669A
:104CE00061696C6564206174206C696E652025645F
:104CF00020696E2025730A002DE9FE4F82460E467C
:104D000090465746B8F1010F0AD0B8F1410F06D0CE
:104D1000B8F5C17F0BD0B8F5207F70D170E000BF2F
:104D200042463146002000F035F90446B7E0002441
:104D300000200290B14600BF0420FFF729FD054680
:104D400035B914B1204600F087FB0020BDE8FE8F86
:104D5000F81C20F00300C0F5807080B2484501DDEA
:104D6000484605E0F81C20F00300C0F5807080B2D2
:104D700083460020CDE9008005F110003844C01CB6
:104D800020F003015B464A46284600F05DFC00BF68
:104D9000287900F0030060B100BF42A34FF4817294
:104DA00047A153A0FBF7F6FA0020002000BFAFF3A5
:104DB000008000BF00BFF81C20F00300C0F5807029
:104DC00000280CD100BF37A34FF4827252A148A033
:104DD000FBF7E0FA0020002000BFAFF3008000BF27
:104DE0000CB92C4601E0029805600295A9EB0B0076
:104DF0001FFA80F90027B9F1000F9DDC4FE040E079
:104E0000F81C20F00301F01C20F00300084485B2D8
:104E100005F110001FFA80F9F01C20F00300A842F1
:104E200004D8F01C20F00300484501D900208DE78C
:104E30004846FFF7E1F904460CB9002086E7002058
:104E4000CDE9008004F110003844C01C20F00301BB
:104E500033463246204600F0F7FB00BF207900F0D1
:104E6000030060B100BF0FA34FF4927237A120A0DE
:104E7000FBF790FA0020002000BFAFF3008000BFD6
:104E80000DE000BF00BF07A340F229123AA118A00D
:104E9000FBF780FA0020002000BFAFF3008000BFC6
:104EA000204653E7557365725C6C7769705C73726A
:104EB000635C636F72655C706275662E63000000F0
:104EC000706275665F616C6C6F633A2070627566C4
:104ED00020712D3E7061796C6F61642070726F700B
:104EE00065726C7920616C69676E65640000000012
:104EF000417373657274696F6E2022257322206678
:104F000061696C6564206174206C696E652025643C
:104F100020696E2025730A00504255465F504F4F5E
:104F20004C5F42554653495A45206D757374206253
:104F30006520626967676572207468616E204D45FF
:104F40004D5F414C49474E4D454E54007062756669
:104F50005F616C6C6F633A20706275662D3E7061A4
:104F6000796C6F61642070726F7065726C7920610A
:104F70006C69676E65640000706275665F616C6C79
:104F80006F633A206572726F6E656F757320747906
:104F9000706500002DE9FC4107460D46144600BF30
:104FA000412C0ED0012C0CD000BF10A34FF4A672E0
:104FB00015A11AA0FBF7EEF90020002000BFAFF307
:104FC000008000BF0320FFF7E3FB064616B9002070
:104FD000BDE8FC8100202B462A463946CDE9004039
:104FE000304600F031FB3046F2E700005573657241
:104FF0005C6C7769705C7372635C636F72655C7024
:105000006275662E63000000696E76616C696420CB
:10501000706275665F747970650000004173736536
:105020007274696F6E2022257322206661696C6537
:1050300064206174206C696E6520256420696E208F
:1050400025730A002DE9FC5F05460C461746984675
:10505000DDE90C9BAA460AF1030020F0030020447E
:10506000584502D90020BDE8FC9FB9F1000F06D0D9
:105070000AF1030020F0030000EB090600E000261F
:105080000220234622463146CDE90070404600F01A
:10509000DBFA4046E7E7000070B506460D4600BF64
:1050A00006B105B970BD00BF00BFAE420CD100BF54
:1050B00020A340F25F3226A12CA0FBF76BF9002061
:1050C000002000BFAFF3008000BF344604E0208919
:1050D000298908442081246820680028F7D100BF6E
:1050E0002089618988420CD000BF12A340F2673248
:1050F00028A11EA0FBF74EF90020002000BFAFF34F
:10510000008000BF00BF206860B100BF09A34FF45A
:105110005A722CA115A0FBF73DF90020002000BF1A
:10512000AFF3008000BF20892989084420812560D1
:1051300000BFB7E7557365725C6C7769705C73721A
:10514000635C636F72655C706275662E630000005D
:105150004372656174696E6720616E20696E66696D
:105160006E697465206C6F6F700000004173736529
:105170007274696F6E2022257322206661696C65E6
:1051800064206174206C696E6520256420696E203E
:1051900025730A00702D3E746F745F6C656E203D40
:1051A0003D20702D3E6C656E20286F66206C61730B
:1051B00074207062756620696E20636861696E296B
:1051C00000000000702D3E6E657874203D3D204E3D
:1051D000554C4C000146002002E0421C90B2096888
:1051E0000029FAD1704700002DE9F04180460E46B3
:1051F0001446218932464046FFF77EFD074617B91F
:105200000020BDE8F0812146384600F03FF8054611
:1052100000BF65B100BF07A340F24C520CA111A022
:10522000FBF7B8F80020002000BFAFF3008000BFFC
:105230003846E6E7557365725C6C7769705C73722B
:10524000635C636F72655C706275662E630000005C
:10525000706275665F636F7079206661696C656402
:1052600000000000417373657274696F6E2022251F
:105270007322206661696C6564206174206C696EBC
:105280006520256420696E2025730A0070B50546E7
:105290000C4600BF14B96FF00F0070BD00BF22892B
:1052A00000232146284600F001F8F6E72DE9F047F3
:1052B00004460D4616469A4657464FF0000800BF72
:1052C00015B12889B04203DA6FF00F00BDE8F0870E
:1052D00000BF00BF24B120890AEB0601884202DA30
:1052E0006FF00F00F2E700BF00BF6089C01B698943
:1052F000A1EB0801884203D36889A0EB080902E00A
:105300006089A0EB07094E4501D2304600E04846CF
:1053100081466A6802EB08016268D0194A46FAF7CA
:1053200023FF4F44C844A6EB090086B200BF608942
:10533000B8420CD200BF2AA340F2FA322FA135A006
:10534000FBF728F80020002000BFAFF3008000BF6B
:1053500000BF688940450CD200BF21A340F2FB3258
:1053600036A12CA0FBF716F80020002000BFAFF3F9
:10537000008000BF6889404509D84FF000082D68BB
:1053800000BF1DB916B16FF00F009FE700BF608925
:10539000B84208D10027246800BF1CB916B16FF0CD
:1053A0000F0093E700BF55B168892989884206D16B
:1053B00000BF286810B16FF0050087E700BF54B147
:1053C00060892189884206D100BF206810B16FF042
:1053D00005007BE700BF002E87D1002076E70000A4
:1053E000557365725C6C7769705C7372635C636F34
:1053F00072655C706275662E630000006F6666738E
:1054000065745F746F203C3D20705F746F2D3E6C3F
:10541000656E0000417373657274696F6E2022259A
:105420007322206661696C6564206174206C696E0A
:105430006520256420696E2025730A006F666673F7
:1054400065745F66726F6D203C3D20705F66726FA1
:105450006D2D3E6C656E00002DE9F047044694B951
:1054600000BF64B900BF43A34FF4387248A14BA0FA
:10547000FAF790FF0020002000BFAFF3008000BFCC
:105480000020BDE8F087002770E000BF00BFEFF309
:105490001080054672B600BF00BFA07B00280CDC60
:1054A00000BF34A340F2F52246A13CA0FAF772FFF8
:1054B0000020002000BFAFF3008000BFA07B401E93
:1054C00000F0FF0984F80E9000BF00BF85F310883C
:1054D00000BF00BFB9F1000F46D1D4F80080207B97
:1054E00000F00F06607B00F00200002817D0A246F3
:1054F00000BFDAF8100060B900BF1EA340F203320B
:1055000036A126A0FAF746FF0020002000BFAFF327
:10551000008000BF2046DAF81010884720E0022EF5
:1055200004D121460420FFF7F9F819E0012E04D137
:1055300021460320FFF7F2F812E01EB92046FEF7DD
:1055400029FD0DE000BF00BF0AA340F213322CA1D9
:1055500012A0FAF71FFF0020002000BFAFF3008069
:10556000781CC7B2444600E0002400BF002C8CD158
:10557000384686E7557365725C6C7769705C737248
:10558000635C636F72655C706275662E6300000019
:105590007020213D204E554C4C0000004173736536
:1055A0007274696F6E2022257322206661696C65B2
:1055B00064206174206C696E6520256420696E200A
:1055C00025730A00706275665F667265653A2070C1
:1055D0002D3E726566203E203000000070632D3E37
:1055E000637573746F6D5F667265655F66756E6314
:1055F00074696F6E20213D204E554C4C0000000018
:10560000696E76616C696420706275662074797069
:105610006500000070B504460D460122294620466B
:1056200000F001F870BD70B505460C461646002C1A
:1056300004DA6142284600F043F970BD3246214643
:105640002846FFF7EBFAF8E770B5DDE904450026D8
:1056500006604160028143810473457301268673AD
:105660000026C67370BD00002DE9F04706460F46C0
:1056700000BF66B900BF3CA34FF4CD7241A147A063
:10568000FAF788FE0020002000BFAFF3008000BFC3
:105690003089B84201DCBDE8F0873089C01B1FFAB1
:1056A00080F83D46344617E06089281A85B2208983
:1056B000A0EB08002081246800BF64B900BF2AA3C2
:1056C00040F2B1123FA135A0FAF764FE002000209D
:1056D00000BFAFF3008000BF6089A842E4DB207BFD
:1056E00000F00F00002833D16089A84230D0607BE1
:1056F00000F0020000282BD1A088001B284481B2B2
:105700002046FEF7DFFE814600BFB9F1000F0CD145
:1057100000BF15A340F2BF1230A120A0FAF73AFE55
:105720000020002000BFAFF3008000BF00BFA145F4
:105730000CD000BF0CA340F2C1122FA117A0FAF7A2
:1057400029FE0020002000BFAFF3008000BF00BF93
:10575000658160892081206810B12068FFF77CFE98
:105760000020206000BF96E7557365725C6C776916
:10577000705C7372635C636F72655C706275662ED9
:1057800063000000706275665F7265616C6C6F63C8
:105790003A207020213D204E554C4C0041737365DA
:1057A0007274696F6E2022257322206661696C65B0
:1057B00064206174206C696E6520256420696E2008
:1057C00025730A00706275665F7265616C6C6F6349
:1057D0003A207120213D204E554C4C006D656D5F87
:1057E0007472696D2072657475726E6564207220C2
:1057F0003D3D204E554C4C006D656D5F7472696D7A
:105800002072657475726E6564207220213D20716E
:105810000000000010B50446002C24D000BF00BFDB
:1058200000BFEFF31081084600BF72B600BFA17B36
:10583000491CA17300BF00BF80F3108800BF00BFE8
:1058400000BF00BFA07B00280CDC00BF06A340F215
:1058500046320CA110A0FAF79DFD0020002000BFE9
:10586000AFF3008000BF10BD557365725C6C776943
:10587000705C7372635C636F72655C706275662ED8
:10588000630000007062756620726566206F766541
:1058900072666C6F77000000417373657274696F94
:1058A0006E2022257322206661696C656420617414
:1058B000206C696E6520256420696E2025730A00BE
:1058C0002DE9F04104460D4600BF64B900BF15A3A1
:1058D0004FF414721AA11DA0FAF75CFD00200020FD
:1058E00000BFAFF3008000BF14B1B5F5803F02D315
:1058F0000120BDE8F0810DB90020FAE7AEB200BF8B
:105900006089B04201DA0120F3E700BF6768606890
:10591000284460606089801B60812089801B208111
:105920000020E6E7557365725C6C7769705C737292
:10593000635C636F72655C706275662E6300000065
:105940007020213D204E554C4C0000004173736582
:105950007274696F6E2022257322206661696C65FE
:1059600064206174206C696E6520256420696E2056
:1059700025730A002DE9F047044688461646374647
:105980004FF0000A00BF1CB96FF00F00BDE8F087B0
:1059900000BF00BFB8F1000F02D16FF00F00F5E7B4
:1059A00000BF00BF2089B04202DA4FF0FF30EDE7C0
:1059B00000BF2CB1B8F1000F02D02089B04202DA4A
:1059C0006FF00F00E2E725461FE000BF65B900BF9A
:1059D00019A340F2E5421FA124A0FAF7DBFC002046
:1059E000002000BFAFF3008000BFB946688948457A
:1059F00001D2B5F80A9008EB0A014A466868FAF73E
:105A0000B3FBA7EB0907CA442D68002FDDD100BF07
:105A10000FB9B2450CD000BF07A34FF49E621DA181
:105A200012A0FAF7B7FC0020002000BFAFF30080FF
:105A300000BF0020AAE70000557365725C6C7769AF
:105A4000705C7372635C636F72655C706275662E06
:105A500063000000706275665F74616B653A20696F
:105A60006E76616C6964207062756600417373655F
:105A70007274696F6E2022257322206661696C65DD
:105A800064206174206C696E6520256420696E2035
:105A900025730A00646964206E6F7420636F7079E7
:105AA00020616C6C20646174610000002DE9F0419C
:105AB000044600BF4348006884420CD200BF42A3A2
:105AC0004FF4E97247A14DA0FAF764FC00200020D2
:105AD00000BFAFF3008000BF00BF5248006884429F
