:020000040800F2
:10000000502F0020450100084D0100084F01000855
:1000100051010008530100085501000800000000CC
:100020000000000000000000000000005701000870
:1000300059010008000000005B01000825030008CA
:100040005F0100085F0100085F0100085F01000810
:100050005F0100085F0100085F0100085F01000800
:100060005F0100085F0100085F0100085F010008F0
:100070005F0100085F0100085F0100085F010008E0
:100080005F0100085F0100085F0100085F010008D0
:100090005F0100085F0100085F0100085F010008C0
:1000A0005F0100085F0100085F0100085F010008B0
:1000B0005F0100085F0100085F0100085F010008A0
:1000C0005F0100085F0100085F0100085F01000890
:1000D0005F0100085F0100085F0100085F01000880
:1000E0005F0100085F0100085F0100085F01000870
:1000F0005F0100085F0100085F0100085F01000860
:100100005F0100085F0100085F0100085F0100084F
:100110005F0100085F0100085F0100085F0100083F
:100120005F0100085F0100085F0100085F0100082F
:10013000DFF80CD000F06EF8004800473D3A0008A8
:10014000502F00200648804706480047FEE7FEE79C
:10015000FEE7FEE7FEE7FEE7FEE7FEE7FEE7FEE777
:10016000350300083101000810B5431A934209D243
:100170008318881803E010F8011D03F8011D521EB2
:10018000F9D210BD40EA01039B0703D009E008C97A
:10019000121F08C0042AFAD203E011F8013B00F84C
:1001A000013B521EF9D210BDD2B201E000F8012B82
:1001B000491EFBD270470022F6E710B513460A46E7
:1001C00004461946FFF7F0FF204610BD30B504463F
:1001D0000020034600E05B1C934203D2E05CCD5C50
:1001E000401BF8D030BD30B50B4601460020202220
:1001F000012409E021FA02F59D4205D303FA02F534
:10020000491B04FA02F52844151EA2F10102F1DC93
:1002100030BD0000064C074D06E0E06840F00103E9
:1002200094E8070098471034AC42F6D3FFF784FFF8
:10023000745F0008945F0008704710B500F002F882
:1002400010BD00000CB500200190009033480068FC
:1002500040F480303149086000BF3048006800F445
:10026000003000900198401C0190009818B9019846
:10027000B0F5A06FF1D12948006800F4003010B14A
:100280000120009001E0002000900098012843D157
:100290002348006840F010002149086008460068C3
:1002A00020F0030008600846006840F00200086083
:1002B0001A4840681949486008464068486008463E
:1002C000406840F4806048600846406820F47C1034
:1002D00048600846406840F4E810486008460068F6
:1002E00040F08070086000BF0C48006800F00070AB
:1002F0000028F9D00948406820F003000749486009
:100300000846406840F00200486000BF034840686B
:1003100000F00C000828F9D10CBD000000100240CC
:100320000020024002480068401C014908607047F4
:100330001400002010B51348006840F00100114976
:10034000086008464068104908400E494860084661
:1003500000680E4908400B4908600846006820F410
:10036000802008600846406820F4FE0048604FF492
:100370001F008860FFF761FF4FF0006004490860CC
:1003800010BD0000001002400000FFF8FFFFF6FE65
:1003900008ED00E00FB4054B10B503A9044A02981C
:1003A00000F01EF810BC5DF814FB00009521000859
:1003B0007C000020EFF31080704702E008C8121F95
:1003C00008C1002AFAD170477047002001E001C13E
:1003D000121F002AFBD1704780F31088704700007D
:1003E0002DE9FF4F8BB09A460F460546002606E0E2
:1003F00025280BD052460D9990476D1C761C287805
:100400000028F5D10FB03046BDE8F08F0024A0469B
:100410000122604900E0044315F8013F203B02FA45
:1004200003F00842F7D128782E2817D115F8010FCC
:1004300044F004042A280ED06FF02F022878A0F18F
:10044000300109290AD808EB880102EB410100EBD1
:1004500001086D1CF2E757F8048B6D1C2878692899
:100460003ED006DC0028CDD063280BD0642804D110
:1004700036E0732810D075284BD052460D9990471E
:10048000761C85E017F8040B8DF8000000208DF82D
:100490000100E946012003E057F8049B4FF0FF30CC
:1004A00061074FF0000401D40AE0641C44450DDAF2
:1004B0008442FADB19F804100029F6D106E0641C26
:1004C0008442FCDB19F804100029F8D1264404E02A
:1004D00019F8010B52460D999047641EF8D257E067
:1004E00001CF4FF00A0B002802DA40422D2102E032
:1004F000210504D52B218DF82410012103E0E1070B
:1005000005D02021F7E70DF1200908910CE000212A
:10051000F9E701CF4FF00A0BF9E75946FFF763FE01
:1005200001F1300209F8012D0028F6D1ADEB0900E8
:1005300000F1200B600701D44FF00108D84502DD1F
:10054000A8EB0B0000E000208046002406E009A88C
:100550005246005D0D999047641C761C08988442B1
:10056000F5DB04E0302052460D999047761CB8F137
:100570000001A8F10108F5DC05E019F8010B52466D
:100580000D999047761CBBF10001ABF1010BF4DC37
:100590006D1C34E7092801002DE9F04105460E469F
:1005A00000BF06F0030000280CD000BF10A34FF4DA
:1005B000B67216A11DA0FFF7EDFE0020002000BFBF
:1005C000AFF3008000BF374600BF00BFEFF31080DD
:1005D000044672B600BFA86800683860A868076063
:1005E00000BF00BF84F3108800BF00BFBDE8F081EA
:1005F000557365725C6C7769705C7372635C636F72
:1006000072655C6D656D702E630000006D656D70C8
:100610005F667265653A206D656D2070726F7065FA
:10062000726C7920616C69676E65640041737365F3
:100630007274696F6E2022257322206661696C6571
:1006400064206174206C696E6520256420696E20C9
:1006500025730A0070B5064600BF00BFEFF3108097
:10066000044672B600BFB0680568002D1DD028682A
:10067000B168086000BF05F0030000280CD000BF7F
:100680000EA34FF48C7214A11CA0FFF783FE002070
:10069000002000BFAFF3008000BF00BF00BF84F3A5
:1006A000108800BF00BF284670BD00BF00BF84F3A4
:1006B000108800BF00BF0020F6E700005573657288
:1006C0005C6C7769705C7372635C636F72655C6DA0
:1006D000656D702E630000006D656D705F6D616CFF
:1006E0006C6F633A206D656D702070726F7065720B
:1006F0006C7920616C69676E656400004173736595
:100700007274696F6E2022257322206661696C65A0
:1007100064206174206C696E6520256420696E20F8
:1007200025730A002DE9F04105460C4616461F4682
:1007300007480460074806600748076000680461CE
:1007400006480560284600F0A3F9BDE8F0810000E6
:10075000280000202C00002030000020380000205D
:1007600038B5044600F02AF80D49887800F074F88E
:1007700000909DF8000064F30100009000F014F870
:1007800000F01CF80649897841F040009DF80010FF
:1007900000F090F800F008F80248047038BD00003E
:1007A000145E00083C0000200348006840F0100080
:1007B00001490860704700001008014003480068C4
:1007C00040F48010014908607047000010080140A3
:1007D0000146204A117300BF1E4A128902F001022D
:1007E000002AF9D01B4A128902F08002002AF3D1B4
:1007F000184A928900BF174A128902F08002002A23
:10080000F9D1144B1A7300BF124A128902F0010287
:10081000002AF9D00F4A128902F08002002AF3D18F
:100820000C4A92891206100C00220A4B1A7300BF60
:10083000084A128902F00102002AF9D0054A1289F9
:1008400002F08002002AF3D1024A9289D2B2104308
:10085000704700000030014001461548017300BF99
:100860001348008900F001000028F9D010480089E1
:1008700000F080000028F3D10D48808900BF0C48AB
:10088000008900F080000028F9D1094A107300BFE8
:100890000748008900F001000028F9D004480089C9
:1008A00000F080000028F3D101488089C0B2704771
:1008B00000300140184A107300BF174A128902F035
:1008C0000102002AF9D0144A128902F08002002A9B
:1008D000F3D1114A928900BF0F4A128902F08002B7
:1008E000002AF9D10C4A117300BF0B4A128902F099
:1008F0000102002AF9D0084A128902F08002002A77
:10090000F3D1054A928900BF034A128902F080029E
:10091000002AF9D1704700000030014005490880E5
:1009200000BF0449091F098801F040010029F8D0DF
:10093000704700000438014000B5024603E010781B
:10094000FFF7ECFF521C10780028F8D100BD000022
:1009500001460D48017300BF0B48008900F00100FB
:100960000028F9D00848008900F080000028F3D161
:1009700000BF0548008900F080000028F9D1024836
:100980008089C0B270470000003001401D48806976
:1009900040F005001B4988611B4800681B4908405E
:1009A0001949086008460068194908431649086053
:1009B0000846006817490843134908601248103078
:1009C000006840F0040010491031086008460068D3
:1009D00040F0100008600B48806940F480500949DD
:1009E00088610D48008840F49A700B4908800846D9
:1009F000808840F0040088800846008840F040006D
:100A0000088070470010024000080140FFF33333B4
:100A100000011111000080880030014019488069F0
:100A200040F00500174988611748006820F0C000B1
:100A3000154908600846006840F0800008600846D4
:100A4000006840F0100008600846006820F440602C
:100A500008600846006840F4806008600846006846
:100A600020F4407008600748806940F480400549E0
:100A7000886140F271200549088042F20C00091D8E
:100A80000880704700100240040801400838014007
:100A900010B588B00446FFF779FF00F091FA03F033
:100AA00091FC002007900021624800F0A7FA41F273
:100AB000FF71614800F0A2FA41F2FF715F4800F057
:100AC0009DFA5F4800F006F907909DF81C0020F0A1
:100AD000200020308DF81C00BDF81C10584800F094
:100AE0008DFA584800F0F6F807909DF81C0020F0A9
:100AF000800080308DF81C00BDF81C10514800F0BB
:100B00007DFA00BF504800F0E5F807909DF81C0002
:100B100000F001000028F5D04C4800F0DBF8079009
:100B20009DF81C0020F00100401C8DF81C009DF871
:100B30001C0020F0080008308DF81C009DF81C00F7
:100B400020F00400001D8DF81C00BDF81C103F486B
:100B500000F054FA3E4800F0BDF807909DF81C00E4
:100B600020F0E00020308DF81C009DF81C0020F0E3
:100B7000100010308DF81C009DF81C0020F00200C1
:100B8000801C8DF81C009DF81C0020F00100401C0A
:100B90008DF81C00BDF81C102D4800F02FFA40F213
:100BA000EE512C4800F02AFA15212B4800F026FAC5
:100BB00021782A4800F022FA6178294800F01EFACC
:100BC000A178284800F01AFAE178274800F016FAD0
:100BD0002179264800F012FA6179254800F00EFAD2
:100BE000244800F077F807909DF81C0020F0800062
:100BF00080308DF81C00BDF81C101E4800F0FEF976
:100C00001D4800F067F807909DF81C0020F00400D4
:100C1000001D8DF81C00BDF81C10174800F0EEF9FF
:100C20001C2216A16846FFF79FFA6846FFF784FE6C
:100C300008B010BD205E0008245E0008285E000891
:100C40002C5E0008105E00080C5E0008305E000894
:100C5000345E00083C5E0008385E0008605E0008F4
:100C6000645E0008585E00085C5E0008505E000884
:100C7000545E00086C5E0008145E000845434E3266
:100C8000384A363020696E697420636F6D706C6508
:100C90007465640A000000004FF4C05001490880E8
:100CA000704700002400002070B505460E46FFF78F
:100CB00085FD3A20FFF74CFE002405E0FF20FFF7FA
:100CC00047FE2855601C84B2B442F7DBFFF76CFD89
:100CD00070BD00007CB50446002560786149097844
:100CE000884205D06078042802D06078FFF738FD8C
:100CF000FFF764FD207830B1012817D0022816D004
:100D000003287CD127E0A078FFF7A6FD0546E07810
:100D100002280AD1FFF748FDFFF750FDA178491CD2
:100D2000C8B2FFF799FD45EA002596E000BFA0781C
:100D3000FFF74EFDC5B2E07802280BD1FFF734FD76
:100D4000FFF73CFDA178491CC8B2FFF741FD45EA19
:100D5000002085B281E044494878FFF701FDFFF7A4
:100D60002DFD0020019041498878FFF731FDC0B288
:100D70000190FFF719FDFFF721FDA1783A4A92781B
:100D800042F04000FFF796FDFFF70EFDFFF716FD5E
:100D90009DF8040020F00100401C0190334989783F
:100DA00041F040009DF80410FFF784FDFFF7FCFCC4
:100DB000002001E000BF401CC828FBDB2C4948781C
:100DC000FFF7CEFC00BFFFF7F9FC29498878FFF751
:100DD000FFFC0090FFF7E8FC9DF8000000F0010028
:100DE0000028F0D1FFF7E0FCFFF7E8FC1E49487847
:100DF000FFF7B6FCFFF7E2FC1C49887800E02BE027
:100E0000FFF7E6FCC0B20190FFF7CEFCFFF7D6FC7F
:100E10009DF8040020F0010001901449897841F008
:100E200040009DF80410FFF745FDFFF7BDFCFFF7FC
:100E3000C5FC10498878FFF7CBFCC5B2FFF7B4FCBE
:100E4000FFF7BCFC0B498978491CC8B2FFF7C0FC0E
:100E500045EA002085B200E000BF00BFFFF7A4FC18
:100E600028467CBD3C000020445E0008405E00082F
:100E7000685E00084C5E000810B504460621204656
:100E8000FFF712FF10BD000008B500BF1A48FFF7BA
:100E900021FF00909DF80000C0F3C0000028F5D1AC
:100EA00016480088401E81B2154800F0A7F84FF49C
:100EB000C051144800F0A2F80F48FFF70BFF009054
:100EC0009DF8000020F0080008308DF80000BDF803
:100ED0000010094800F092F800BF0748FFF7FAFE3B
:100EE00000909DF80000C0F3C0000028F5D14FF439
:100EF000C0500249088008BDF05D000824000020B1
:100F0000005E0008FC5D0008F8B506460D46264860
:100F1000FFF7E0FE002844D024480188244800F070
:100F20006DF824480068FFF7A7FF2248006844884E
:100F3000042C01DD201F84B2AC4200DD2C4621468A
:100F40003046FFF7B1FE1B4800680088174908804B
:100F500008460188164800F051F8164800680088D5
:100F600028B941F2FF71144800F048F807E0114831
:100F700000680088401E81B20F4800F03FF80F481B
:100F8000FFF7A8FEC0B200909DF8000020F04000DE
:100F9000403000909DF80010084800F02FF82046DF
:100FA000F8BD0020FCE70000085E000834000020C7
:100FB000F45D00082C000020045E0008EC5D0008D1
:100FC00010B5FFF7FBFBFF20FFF7C2FCFFF7ECFBC0
:100FD00010BD70B505460E46FFF7F0FB7A20FFF70F
:100FE000B7FC002404E0285DFFF7B2FC601C04B2EB
:100FF000B442F8DBFFF7D8FB70BD000038B50446FB
:101000000D46607831490978884205D06078042817
:1010100002D06078FFF7A4FBFFF7D0FB207830B157
:10102000012805D0022804D003284BD117E000BFC7
:1010300000BFE9B2A27842F04000FFF73BFCE07845
:1010400002280BD1FFF7B0FBFFF7B8FB2912A278FB
:10105000521CD2B242F04000FFF72CFC32E0A178E3
:101060001B4A927842F04000FFF724FCFFF79CFBFC
:10107000FFF7A4FBE9B2174A927842F04000FFF76D
:1010800019FCFFF791FBFFF799FB2912114A92789F
:10109000521CD2B242F04000FFF70CFCFFF784FB79
:1010A000FFF78CFB00BF0C48FFF714FE0090FFF722
:1010B0007BFBFFF783FB9DF8000000F00100002898
:1010C000F1D100BF00BFFFF76FFB38BD3C0000202F
:1010D000445E0008485E0008685E000870B505467A
:1010E0000C46074801880748FFF788FF2146284635
:1010F000FFF76FFF0248008820440149088070BD57
:1011000024000020F85D00082DE9FF5F06468946AF
:1011100017464FF00A0AD346D04600240A2003900F
:10112000002002900190009000BF77E004EB4400A3
:10113000804901EBC000057DB8F10A0F02D10DB95D
:10114000A04669E0002D67D000BF012D0ED0022D12
:101150000CDA00BF78A34FF4927280A18FA0FFF742
:1011600019F90020002000BFAFF3008000BFAEB12E
:1011700004EB44016F4A02EBC101306849688842C0
:101180000CD13FB104EB4400114601EBC000806874
:10119000B84203D1204604B0BDE8F09F012D28D10C
:1011A00004EB4400634951F8300080B104EB440083
:1011B00001EBC000418A029881422DDB039404EBCD
:1011C00044005C4901EBC000408A029024E004EB3B
:1011D0004400584901EBC000418A019881421BDB61
:1011E000A24604EB4400534901EBC000408A019041
:1011F00012E0022D10DB04EB44004E4901EBC0006D
:10120000418A0098814207DBA34604EB4400494928
:1012100001EBC000408A0090601C04B20A2C85DB00
:1012200009F0020028B9B8F10A0F05D109F0010050
:1012300010B94FF0FF30AEE7B8F10A0F01DA4446BB
:1012400039E0BBF10A0F15DA5C4600BF04EB44003D
:10125000384951F8300060B100BF37A34FF4B7727E
:1012600058A14EA0FFF796F80020002000BFAFF372
:1012700000800CE0BAF10A0F01DA544607E0039847
:101280000A2801DA039C02E04FF0FF3083E700BF39
:101290000A2C0CDB00BF28A34FF4C0724FA13FA063
:1012A000FFF778F80020002000BFAFF3008000BFF8
:1012B000204600F0B3F800BF0A2C0CDB00BF1EA3D1
:1012C0004FF4C27245A135A0FFF764F8002000205A
:1012D00000BFAFF3008000BF00BF04EB440015491E
:1012E00001EBC000007D60B100BF13A340F2851286
:1012F0003FA12AA0FFF74EF80020002000BFAFF367
:10130000008000BF36B104EB44010A4A02EBC10180
:1013100030684860002004EB4401064A02EBC1013A
:10132000488204EB4400114601EBC0008760204670
:1013300031E70000440E0020557365725C6C7769DC
:10134000705C7372635C636F72655C697076345C49
:101350006574686172702E630000000073746174BC
:1013600065203D3D204554484152505F53544154FF
:10137000455F50454E44494E47207C7C2073746144
:101380007465203E3D204554484152505F535441BE
:1013900054455F535441424C45000000417373650E
:1013A0007274696F6E2022257322206661696C65F4
:1013B00064206174206C696E6520256420696E204C
:1013C00025730A006172705F7461626C655B695DB0
:1013D0002E71203D3D204E554C4C000069203C2094
:1013E0004152505F5441424C455F53495A450000B9
:1013F0006172705F7461626C655B695D2E737461AC
:101400007465203D3D204554484152505F5354413E
:1014100054455F454D5054590000000010B5044636
:1014200004EB44000C4951F8300060B104EB440176
:10143000094A52F8310003F075FF002004EB440123
:10144000054A42F83100002004EB4401024A02EB55
:10145000C101087510BD0000440E00202DE9F041C7
:1014600086B007460D4600BF15B906B0BDE8F0814D
:1014700000BF7C682088B0F5807F08D120790628DD
:1014800005D16079042802D16088082803D0384645
:1014900003F048FFE9E7D4F80E000590A069049036
:1014A000686810B90026B0460FE004986968884261
:1014B00001D1012000E000200646059869688842B5
:1014C00001D1012000E0002080460EB1012000E0A3
:1014D0000220034604F1080205A9284600F0AAFCF0
:1014E000E088B0F5807F03D0B0F5007F18D116E01A
:1014F0009EB1B8F1000F10D1022205AB04F1080033
:10150000291DCDE90232CDE9001005F12203024682
:101510001E31284600F038FB00E000BF01E000E08B
:1015200000BF00BF384603F0FDFE00BF9DE700008E
:101530002DE9FE4304460F461546A94600BF64B98F
:1015400000BF63A340F21F326AA16EA0FEF722FF24
:101550000020002000BFAFF3008000BF00BF67B9CC
:1015600000BF5BA34FF4487270A166A0FEF712FFA4
:101570000020002000BFAFF3008000BF00BF65B9AE
:1015800000BF53A340F221326BA15EA0FEF702FF21
:101590000020002000BFAFF3008000BF2146286874
:1015A00001F026F810B1DFF8A08186E0287800F07D
:1015B000F000E02816D101208DF8040000208DF8FD
:1015C00005005E208DF80600687800F07F008DF839
:1015D0000700A8788DF80800E8788DF809000DF16B
:1015E000040869E02868A1680840D4E901121140A4
:1015F00088420ED0288880B24FF6A961884208D070
:10160000E06810B104F10C0903E06FF00300BDE8DD
:10161000FE834E48007800EB40004D4901EBC000CE
:10162000007D02281BDB4948007800EB400001EBFD
:10163000C0008068A04212D14449097801EB410101
:10164000434A02EBC101D9F800004968884206D13B
:101650003E4802783946204600F07CF8D7E700265D
:1016600022E006EB46003A4901EBC000007D02286B
:1016700018DB06EB460001EBC0008068A04211D1E8
:1016800006EB4601324A02EBC101D9F80000496875
:10169000884207D12D48067032463946204600F070
:1016A00059F8B4E7701CC6B20A2EDADB3A4649464E
:1016B000204600F0FDF8AAE700BF4FF40060434663
:1016C00004F1220239460090204600F0BDFC9EE75E
:1016D000557365725C6C7769705C7372635C636F81
:1016E00072655C697076345C6574686172702E63D3
:1016F000000000006E6574696620213D204E554C47
:101700004C000000417373657274696F6E2022256E
:101710007322206661696C6564206174206C696E57
:101720006520256420696E2025730A007120213D03
:10173000204E554C4C000000697061646472202199
:101740003D204E554C4C0000CC5E00086900002046
:10175000440E0020F8B505460E46144600BF04EBC3
:101760004400334901EBC000007D02280CDA00BFC1
:1017700030A340F2EF2238A143A0FEF70BFE002079
:10178000002000BFAFF3008000BF04EB44002849F5
:1017900001EBC000007D022839D104EB440001EBCD
:1017A000C000408AB0F58E7F11DD04EB44000A468C
:1017B00002EBC000011D284600F0ACFA38BB032044
:1017C00004EB44011A4A02EBC10108751FE004EB67
:1017D0004400174901EBC000408AB0F5877F16DB53
:1017E00004EB44000B4603EBC00000F10C0204EBD9
:1017F000440003EBC000011D284600F097FA30B901
:10180000032004EB44010A4A02EBC10108754FF4BE
:101810000060009004EB4400054901EBC00000F1BA
:101820000C0305F122023146284600F00DFCF8BDFC
:10183000440E0020557365725C6C7769705C73723E
:10184000635C636F72655C697076345C6574686153
:1018500072702E63000000006172705F7461626CD0
:10186000655B6172705F6964785D2E737461746525
:10187000203E3D204554484152505F535441544509
:101880005F535441424C4500417373657274696FF4
:101890006E2022257322206661696C656420617464
:1018A000206C696E6520256420696E2025730A000E
:1018B0002DE9FC5F81460F46164609F12200019092
:1018C0004FF0FF3A4FF0000B5FB1386848B149461E
:1018D000386800F08DFE20B9387800F0F000E0287C
:1018E00003D16FF00F00BDE8FC9F4A460121384646
:1018F000FFF70AFC8046B8F1000F02DA4FFA88F0D1
:10190000F1E700BFB8F17F0F0CD300BF71A340F225
:10191000C23279A17CA0FEF73DFD0020002000BF6F
:10192000AFF3008000BF08F0FF0404EB44008049DF
:1019300001EBC000007D78B94FF0010B012004EBF2
:1019400044017B4A02EBC101087504EB44001146D7
:1019500001EBC000C0F8089000BF04EB44007449DC
:1019600001EBC000007D012813D004EB440001EB23
:10197000C000007D02280CDA00BF56A340F2CE3230
:101980006CA161A0FEF706FD0020002000BFAFF3B0
:10199000008000BFBBF1000F00D1E6B939464846D0
:1019A00000F0B8F98246BAF1000F11D104EB4400FF
:1019B0005F4901EBC000007D012809D1BBF1000F98
:1019C00006D1002004EB4401594A02EBC1014882D0
:1019D0000EB9504687E700BF66B900BF3DA340F28D
:1019E000EA325EA148A0FEF7D5FC0020002000BF2F
:1019F000AFF3008000BF04EB44004D4901EBC00091
:101A0000007D022811DB584804704FF400600090FC
:101A100004EB440001EBC00000F10C0331464846E2
:101A2000019A00F011FB824652E004EB4400404969
:101A300001EBC000007D01284AD10020009035460E
:101A40001CE000BF6889298988420ED1286860B1EE
:101A500000BF20A340F2FA3244A12BA0FEF79AFC6B
:101A60000020002000BFAFF3008000BF287B00F003
:101A7000400010B10120009002E02D68002DE0D15F
:101A800000BF009838B132464FF420710E2003F0A9
:101A900011FB054603E03546284603F021FEA5B1BB
:101AA00004EB4400224951F8300030B104EB44010A
:101AB0001F4A52F8310003F035FC04EB44001C4986
:101AC00041F830504FF0000A01E04FF0FF3A00BFFC
:101AD000504608E7557365725C6C7769705C737289
:101AE000635C636F72655C697076345C65746861B1
:101AF00072702E630000000074797065206F766547
:101B000072666C6F77000000417373657274696F61
:101B10006E2022257322206661696C6564206174E1
:101B2000206C696E6520256420696E2025730A008B
:101B3000440E00206172705F7461626C655B695D68
:101B40002E7374617465203D3D2050454E44494ECE
:101B500047206F7220535441424C45007120213D73
:101B6000204E554C4C000000690000206E6F207024
:101B700061636B65742071756575657320616C6C4C
:101B80006F776564210000002DE9FC5F06460F4673
:101B900090469946DDE90CAB0020019000BF66B984
:101BA00000BF37A34FF48C623EA142A0FEF7F2FBC8
:101BB0000020002000BFAFF3008000BF4FF4207270
:101BC0001C210E2002F0FEFF05461DB94FF0FF302C
:101BD000BDE8FC9F00BF68891C280CDA00BF28A361
:101BE00040F26B423DA133A0FEF7D4FB0020002061
:101BF00000BFAFF3008000BF6C680F9801F0A4FE37
:101C0000E08000BF96F8280006280CD000BF1CA377
:101C100040F272423E4927A0FEF7BCFB00200020A4
:101C200000BFAFF3008000BFD9F80000A060B9F892
:101C30000400A081DBF80000C4F81200BBF8040027
:101C4000E082DAF80000C4F80E000E980068A06187
:101C50004FF48070208008206080062020710420CE
:101C6000607140F6060043463A46294600903046E9
:101C700000F0EAF9284603F055FB00250198A7E794
:101C8000557365725C6C7769705C7372635C636FCB
:101C900072655C697076345C6574686172702E631D
:101CA000000000006E6574696620213D204E554C91
:101CB0004C000000417373657274696F6E202225B9
:101CC0007322206661696C6564206174206C696EA2
:101CD0006520256420696E2025730A0063686563AA
:101CE0006B20746861742066697273742070627509
:101CF000662063616E20686F6C6420737472756314
:101D000074206574686172705F686472000000001E
:101D1000305F000870B504460D46034A2946204648
:101D200000F004F870BD0000CC5E00087FB50446EA
:101D30000D4616460121074A201D04F122038DE8B5
:101D400025000391324619462046FFF71DFF04B0D7
:101D500070BD0000D25E000870B5002464E004EBA2
:101D60004400334901EBC000057D002D5BD004EB3E
:101D7000440001EBC000408A401C04EB44012C4AA3
:101D800002EBC101488204EB4400114601EBC000A4
:101D9000408AB0F5967F0DDA04EB440001EBC000F9
:101DA000007D01280AD104EB440001EBC000408A09
:101DB000052803DB2046FFF731FB34E004EB440049
:101DC0001B4901EBC000007D032807D1042004EB70
:101DD0004401174A02EBC101087524E004EB4400FA
:101DE000134901EBC000007D042807D1022004EB59
:101DF00044010F4A02EBC101087514E004EB4400F2
:101E00000B4901EBC000007D01280CD104EB44021A
:101E10000B4603EBC202111D04EB440203EBC202AA
:101E20009068FFF777FF641C0A2C98DB70BD0000F8
:101E3000440E00202DE9F84305460E461746984605
:101E400000BF95F8280006280CD000BF30A34FF43F
:101E5000D57238A140A0FEF79DFA0020002000BFF7
:101E6000AFF3008000BF5EB1306848B129463068EA
:101E700000F0BEFB20B9307800F0F000E02803D17C
:101E80006FF00F00BDE8F8832A4641463046FFF761
:101E90003BF90446002C01DA60B2F3E7022004EBC0
:101EA0004401374A02EBC101087504EB44001146B6
:101EB00001EBC000856004EB440001EBC000396811
:101EC000C160B9880182002004EB440102EBC1012A
:101ED000488204EB4400114651F83000B0B104EBE5
:101EE000440051F83090002004EB440142F83100E6
:101EF0004FF400603B4605F1220249460090284617
:101F000000F0A2F8484603F00DFA00BF0020B9E740
:101F1000557365725C6C7769705C7372635C636F38
:101F200072655C697076345C6574686172702E638A
:101F3000000000006E657469662D3E687761646418
:101F4000725F6C656E203D3D204554485F485741A7
:101F50004444525F4C454E00417373657274696F1F
:101F60006E2022257322206661696C65642061748D
:101F7000206C696E6520256420696E2025730A0037
:101F8000440E00202DE9F04104460E464FF00E08A5
:101F900060890E2800DC4FE06568AF89E07B18B9E6
:101FA00096F82C00401CE073287800F00100B0B1D6
:101FB0002878012809D1687888B9A8785E280ED1D8
:101FC000607B40F01000607309E006221D4928463E
:101FD000FEF7FCF818B9607B40F008006073082F2A
:101FE00003D0B7F5C16F22D110E096F8290000F0B8
:101FF000080000B920E04146204603F0C7FB00B1CD
:102000001AE03146204600F067FC11E096F82900FE
:1020100000F0080000B90FE04146204603F0B6FB8F
:1020200000B109E031462046FFF718FA00E003E06E
:1020300000BF0020BDE8F081204603F073F90020C6
:10204000F8E70000CC5E00082DE9F04705460E4693
:1020500017469846DDF82090484601F075FC824608
:102060000E21304602F037FD00B126E07468A4F876
:102070000CA0D8F800002060B8F80400A0803868F0
:10208000C4F80600B888608100BF95F828000628CB
:102090000CD000BF0AA34FF49D7212A11EA0FEF740
:1020A00079F90020002000BFAFF3008000BF314667
:1020B0002846AA699047BDE8F0876FF00100FAE76B
:1020C000557365725C6C7769705C7372635C636F87
:1020D00072655C6E657469665C65746865726E6570
:1020E000742E63006E657469662D3E687761646462
:1020F000725F6C656E206D7573742062652036208A
:10210000666F722065746865726E65745F6F757452
:102110007075742100000000417373657274696FFB
:102120006E2022257322206661696C6564206174CB
:10213000206C696E6520256420696E2025730A0075
:102140000146652081F82A006E222B2042540F4858
:1021500048610F488861062081F82800022081F834
:10216000220000222320425424204254252042549D
:102170002620425401222720425440F2DC50088499
:102180001E2081F82900002070470000311500084A
:10219000C738000838B504468DF8000069460320AA
:1021A000ABBE204638BD70B505460C46224603211D
:1021B000284600F04BF970BD2DE9FF5F04468A46C2
:1021C000754880680390039800780007870E142FE5
:1021D00000DAD8E06089042800D2D4E0606805788D
:1021E00015B1082D75D100E0C8E0DFF8AC9109F118
:1021F00014096948007D00F0F000E02800D1C6E035
:10220000654A1168506900F0F3F900B1BFE0208918
:10221000082800D2B7E0204600F0BFF920B12046E0
:1022200003F080F8BDE8FF9F07F10E01204602F0A1
:1022300052FC002842D0208938441FFA80FB2089B4
:10224000584500DDA3E04FF4207259460E2002F0FD
:10225000B9FC8046B8F1000F00D198E0B8F80A1038
:1022600007F10800814203D2404603F05BF88EE09C
:102270003A46D8F804000399FDF776FF3946404600
:1022800003F084FA60B100BF00BF44A3B6224BA1A3
:1022900057A0FEF77FF80020002000BFAFF30080BA
:1022A0002146404602F058FF18B1404603F03AF884
:1022B0006DE0204603F036F8444614E007F10E01C5
:1022C000204603F063FA70B100BF00BF33A3C722FA
:1022D00000E041E050A146A0FEF75CF8002000209D
:1022E00000BFAFF3008066683946204602F0F3FB7A
:1022F00088BBD4F80480D9F80000C8F80C00264840
:102300000069C8F8100000203070E07370884FF644
:10231000F771884203DD70880930708002E07088B0
:1023200008307080FF2088F808000020A8F80A0014
:102330003946404600F027F9A8F80A00012000219C
:10234000FF230A46CDE9010A00914946204600F0E4
:10235000A7FB834600BF11E0032D0ED00B2D0CD040
:102360000C2D0AD0042D08D0052D06D00D2D04D03B
:102370000E2D02D0112D00D000BF00BF00BF20469F
:1023800002F0D0FF4EE7204602F0CCFF4AE720469D
:1023900002F0C8FF00BF45E7340F00205573657297
:1023A0005C6C7769705C7372635C636F72655C69A7
:1023B0007076345C69636D702E63000069636D70C4
:1023C0005F696E7075743A206D6F76696E67207202
:1023D0002D3E7061796C6F616420746F2069636D4C
:1023E0007020686561646572206661696C6564006F
:1023F000417373657274696F6E20222573222066A3
:1024000061696C6564206174206C696E6520256467
:1024100020696E2025730A0069636D705F696E70B4
:1024200075743A20726573746F72696E67206F728B
:102430006967696E616C20702D3E7061796C6F61A7
:1024400064206661696C6564000000002DE9FF5F2F
:102450000646894692464FF01C083089404501DA0D
:10246000B6F8088008F1080081B24FF420722220EB
:1024700002F0A8FB05460DB9BDE8FF9F00BF6989C2
:1024800008F1080081420CD200BF1DA34FF4B772BF
:1024900023A12EA0FDF77EFF0020002000BFAFF398
:1024A000008000BFD6F804B06C6884F8009084F80F
:1024B00001A000206060082342463146284602F011
:1024C0005BFEDBF80C00039003A800F085FD0746D7
:1024D00087B1002060806989204600F054F8608050
:1024E00001200021FF2303AACDE90107009128461E
:1024F00000F0D6FA284602F015FF00BFBCE7000046
:10250000557365725C6C7769705C7372635C636F42
:1025100072655C697076345C69636D702E6300006F
:10252000636865636B207468617420666972737494
:1025300020706275662063616E20686F6C6420692C
:10254000636D70206D6573736167650041737365BA
:102550007274696F6E2022257322206661696C6532
:1025600064206174206C696E6520256420696E208A
:1025700025730A0070B505460C4622460B212846F5
:10258000FFF764FF70BD30B504460D46294620466E
:1025900001F024FAC04380B230BDF0B506460027F2
:1025A0000024354619E06989686801F017FA044487
:1025B000A0B200EB1444688900EBD0714910A0EB85
:1025C000410149B10FB9012000E000200746E0B207
:1025D000C4F3072141EA00242D68002DE3D127B17F
:1025E000E0B2C4F3072141EA0024E04380B2F0BD29
:1025F00018B502460092D04300B10AB9012018BDB7
:1026000091F8290000F0020008B90020F7E74868B7
:10261000904201D10020F2E700988B681840D1E980
:1026200001342340984208D1886822EA00008C686F
:10263000E343984201D10120E1E70020DFE70000F9
:102640002DE9F74F8CB0044688464FF00009B8F8E2
:102650002010A1F11400C11700EB5171C1F3CF0A92
:102660001420059060680990099E307800F00F00F2
:102670001421B1EB800F04D06FF005000FB0BDE85E
:10268000F08F00BF6089142802DA6FF00500F5E7CB
:1026900000BFF08801F058F904900498C0F30C00D2
:1026A0000790049800F400500390208914381FFA12
:1026B00080FBC8E04FF6FF7000EACA00584501DD14
:1026C000584603E04FF6FF7000EACA0008904FF446
:1026D000207214210E2002F075FA054605B9B8E003
:1026E00000BF688914280CDA00BF5BA340F22632D1
:1026F00062A16AA0FDF74EFE0020002000BFAFF3EC
:10270000008000BF142268680999FDF72DFD6E68EE
:1027100008980A9058E061890598081A80B20290DA
:1027200000BF6189059881420CDA00BF4AA340F2DC
:102730002F3264A159A0FDF72DFE0020002000BF1C
:10274000AFF3008000BF02990A98884201DA0A9824
:1027500000E002988146B9F1000F03D100200590F6
:10276000246831E000F082FC07461FB9284602F0D9
:10277000D9FD6EE06168059808443B464122494610
:10278000CDE90009002002F0C3FB0B900B9830B993
:10279000384600F071FC284602F0C4FD59E020469E
:1027A00002F09EFF7C614B48386128460B9902F08D
:1027B000D9FB0A98A0EB090080B20A900A9810B1E0
:1027C00000200590246800BF0A980028A3D105982E
:1027D000484480B20590B8F820001438584501DB11
:1027E000012000E0002006900798C0F30C00049040
:1027F000069808B1039818B1049840F4005004906A
:10280000049801F0A1F8F0800899143188B201F021
:102810009BF870800020708114213046FFF7B3FED2
:102820007081D8F81430294640460E9A98472846B9
:1028300002F078FD0898ABEB00001FFA80FB0798C8
:10284000504480B20790BBF1000F7FF433AF0020FB
:1028500014E74FF0FF3011E7557365725C6C7769D0
:10286000705C7372635C636F72655C697076345C14
:102870006970345F667261672E6300007468697303
:10288000206E656564732061207062756620696ED4
:10289000206F6E6520706965636521004173736503
:1028A0007274696F6E2022257322206661696C65DF
:1028B00064206174206C696E6520256420696E2037
:1028C00025730A00702D3E6C656E203E3D20706FB2
:1028D00066660000C93700082DE9F04707460E4636
:1028E0007D6828780421B1EB201F05D0384602F01E
:1028F00019FD0020BDE8F087287800074FEA9068AE
:10290000688801F021F881463989494503DD494647
:10291000384602F00FFE7889404505DB3889484586
:1029200002DBB8F1140F04DA384602F0FBFC002099
:10293000E0E741462846FFF726FE20B1384602F080
:10294000F1FC0020D6E7286946494861E86808613B
:102950000846007D00F0F000E0280AD196F8290032
:1029600000F0010018B1706808B134461CE0002482
:102970001AE0304600F07AF808B1344614E000243A
:102980003848007D7F280FD03748046809E0B442FA
:1029900000D105E0204600F069F800B103E000BF77
:1029A0002468002CF3D100BF2E4908693146FFF797
:1029B0001FFE28B92B48007C00F0F000E02804D16D
:1029C000384602F0AFFC002094E724B9384602F004
:1029D000A9FC00208EE7E8884FF63F71084038B127
:1029E000384600F075F907460FB9002082E77D6888
:1029F0001C4804604660856028780007800E1949ED
:102A000088814146384602F0C1FE687A012804D127
:102A100031463846FFF7D0FB18E012494869214695
:102A2000FFF7E6FD70B90F48007D00F0F000E028E8
:102A300008D00FFA88F1384602F052FD02213846DC
:102A4000FFF7B1FB384602F06DFC00BF00BF00206D
:102A5000044908604860886088810861486100BF57
:102A600048E70000340F00206000002010B5044645
:102A700094F8290000F0010070B1606860B1074867
:102A800040696168884205D0044948692146FFF7DA
:102A9000AFFD08B1012010BD0020FCE7340F00207D
:102AA0002DE9FE4F07460C4615469846DDE90C9A7F
:102AB0000E9EA34625B10CB1206808B906F1040B9F
:102AC00043462A4659463846CDE9009A029600F018
:102AD00003F8BDE8FE8F00002DE9FF4F81B00646E8
:102AE00089469846DDE90FA7002500BFB07B012885
:102AF0000CD000BF53A340F276325AA15CA0FDF780
:102B000049FC0020002000BFAFF3008000BF039805
:102B100000287AD04FF0140B1421304601F0DBFF6F
:102B200020B16FF0010005B0BDE8F08F746800BF00
:102B3000708914280CD200BF42A340F2AA3256A1D9
:102B40004BA0FDF727FC0020002000BFAFF3008062
:102B500000BF84F8088084F809A04AEA082000062B
:102B6000000C4AEA082140EA112005440398006855
:102B70002061208A80B20544206905EB1045584643
:102B80004FEAEB710BEB9171C1F3870141F040010A
:102B900021700E98607021780E9840EA012000069E
:102BA000010C22780E9840EA022041EA10200544E8
:102BB000308900F0C9FE6080608805440020E08014
:102BC0004148008800F0C0FEA080A08805443E482F
:102BD0000088401C3C490880B9F1000F03D13B48F4
:102BE0000068E06002E0D9F80000E060A08980B2EF
:102BF0000544E06805EB1045A8B200EB154505EB70
:102C00001545ED4365810BE0FFE77089142802DA72
:102C10006FF0010087E7746820690090CDF80CD050
:102C2000388C48B13089398C884205DD39463046C8
:102C3000039AFFF705FD76E77B6931463846039A2C
:102C4000984770E7557365725C6C7769705C737256
:102C5000635C636F72655C697076345C6970342E96
:102C600063000000702D3E726566203D3D203100FE
:102C7000417373657274696F6E202225732220661A
:102C800061696C6564206174206C696E65202564DF
:102C900020696E2025730A00636865636B20746881
:102CA0006174206669727374207062756620636156
:102CB0006E20686F6C642073747275637420697021
:102CC0005F686472000000006A000020C45E0008B3
:102CD0002DE9F14F84B004984568287800F00F0082
:102CE0001421B1EB800F00D022E1E88800F02CFE27
:102CF000C0F30C004FF6FF7101EAC00A688800F0CB
:102D000023FE074628780007810E02910299B942F6
:102D100000DD0DE10298381A87B2049802F0C0F97C
:102D200006468648018888190A280ADD3146284661
:102D300000F0ECFC20B18148008830440A2800DD16
:102D4000F6E07F48046811E06069E968884209D1CB
:102D5000A0692969884205D1A089A988884201D142
:102D6000012000E0002000B102E02468002CEBD13B
:102D700000BF34B93146284600F0A4FB044694B99C
:102D8000D6E0E88800F0E0FDC0F30C0058B9E08917
:102D900000F0DAFDC0F30C0028B11422294604F13A
:102DA0000800FDF7E1F9E888012121EA50100190BF
:102DB000019850B10AEB070188B2504503DB4FF68A
:102DC000EB71884200DD89E000BF2046019A04993A
:102DD00000F096F983460BF1010000B97EE05748F8
:102DE0000088304455490880019840B10AEB07013A
:102DF00088B2A083A17F41F00101A17700BFBBF1A0
:102E0000010F69D1A08B143080B2009060684068D7
:102E1000D0F8009060684568142204F10801284643
:102E2000FDF7A2F9009800F08FFD68800020E8808F
:102E3000688114212846FFF7A6FB6881606804902A
:102E40000DE0D9F8040003901421484602F09EFCDE
:102E50004946049802F086F80398D0F80090B9F13A
:102E6000000FEED136480068844202D14FF00008CE
:102E70000EE03348D0F8008006E0D8F80000A04209
:102E800000D104E0D8F80080B8F1000FF5D100BF00
:102E90004146204600F0BCFA049802F001F90646CB
:102EA00000BF26480088B0420CDA00BF25A340F2DC
:102EB0009D222DA133A0FDF76DFA0020002000BF58
:102EC000AFF3008000BF1D480088801B1B490880AD
:102ED000049805B0BDE8F08F0020FAE700BF64B9A0
:102EE00000BF18A340F2AA2230A126A0FDF752FA93
:102EF0000020002000BFAFF3008000BF6068B0B9C1
:102F000000BF0F48006884420CD000BF0DA340F200
:102F1000AD2229A11BA0FDF73DFA0020002000BF33
:102F2000AFF3008000BF0021204600F071FA00BF1F
:102F3000049802F0F7F90020CBE7000070000020B1
:102F40006C000020557365725C6C7769705C7372FD
:102F5000635C636F72655C697076345C6970345F62
:102F6000667261672E63000069705F7265617373DA
:102F70005F70627566636F756E74203E3D20636C92
:102F8000656E0000417373657274696F6E2022254F
:102F90007322206661696C6564206174206C696EBF
:102FA0006520256420696E2025730A0069707220EF
:102FB000213D204E554C4C006E6F74206669727333
:102FC00074616C74686F756768206A7573742065C6
:102FD0006E7175657565640010B50246214801681B
:102FE00021E091F8290000F00100D8B191F8290002
:102FF000C0F38000B0B14868A0B110688B68184079
:10300000D1E901342340984201D1084610BD91F81E
:10301000290000F0020028B91068CB68984201D15D
:103020000846F3E709680029DBD10F480068A0B122
:103030000D48006890F8290000F0010068B10A48C6
:10304000006890F82900C0F3800030B1064800689D
:10305000406810B110787F2801D10020D6E70248DF
:103060000068D3E7600000206400002010B5012054
:1030700001F096F910BD000010B5044600BF64B918
:1030800000BF09A340F2C62210A113A0FDF782F9E8
:103090000020002000BFAFF3008000BF21460120C8
:1030A00001F044F910BD0000557365725C6C7769DE
:1030B000705C7372635C636F72655C697076345CBC
:1030C0006970345F667261672E6300007020213D75
:1030D000204E554C4C000000417373657274696F4B
:1030E0006E2022257322206661696C6564206174FC
:1030F000206C696E6520256420696E2025730A00A6
:103100002DE9F74F84B0064688460025012001903E
:10311000D8F8040002900299488800F015FC834614
:10312000029800780007800E03900398584503DD4D
:10313000681E07B0BDE8F08F0398ABEB00001FFAE4
:1031400080FB0299C88800F0FFFBC0F30C004FF62B
:10315000FF7101EAC00A00BF00BFD8F80440002098
:103160002060A4F804A00AEB0B00E080E088504542
:1031700002DA4FF0FF30DCE7D6F804903EE0D9F8F1
:103180000470A088B988884220DAC4F800909DB104
:10319000A088E988884203DBE088B988884202DD9C
:1031A0004FF0FF30C5E7C5F80080E888A188884265
:1031B0000BD00020019008E0E088B988884202DD49
:1031C0004FF0FF30B5E7C6F804801AE0A088B98850
:1031D000884202D14FF0FF30ABE7A088F9888842DF
:1031E00002DA4FF0FF30A4E72DB1E888B9888842B1
:1031F00001D000200190D7F800903D46B9F1000FB2
:10320000BDD100BFB9F1000F2FD1DDB100BFE888FB
:10321000A18888420CDD00BF47A34FF4DC724FA1A8
:1032200056A0FDF7B7F80020002000BFAFF30080E4
:1032300000BFC5F80080E888A188884215D000202A
:10324000019012E000BF706860B100BF3AA34FF474
:10325000E07254A149A0FDF79DF80020002000BFB6
:10326000AFF3008000BFC6F80480069820B9B07F95
:1032700000F0010000285DD00198002854D070684B
:1032800018B170684068808810B1002001904BE050
:103290002546D4F800900BE0D9F80440E888A188CE
:1032A000884202D00020019005E02546D4F8009025
:1032B000B9F1000FF0D100BF0198002834D000BF51
:1032C000706860B900BF1CA340F2E11243A12BA0BB
:1032D000FDF760F80020002000BFAFF3008000BFC2
:1032E00000BF70684068A0420CD100BF12A34FF429
:1032F000F1723AA121A0FDF74DF80020002000BF97
:10330000AFF3008000BF00BF206860B100BF0AA318
:103310004FF4F27235A119A0FDF73CF8002000200F
:1033200000BFAFF3008000BF019808B1012000E7A3
:103330000020FEE60020FCE6557365725C6C776940
:10334000705C7372635C636F72655C697076345C29
:103350006970345F667261672E630000636865633D
:103360006B20667261676D656E747320646F6E2783
:1033700074206F7665726C61700000004173736534
:103380007274696F6E2022257322206661696C65F4
:1033900064206174206C696E6520256420696E204C
:1033A00025730A006E6F2070726576696F757320E1
:1033B000667261676D656E742C2074686973206D28
:1033C0007573742062652074686520666972737411
:1033D00020667261676D656E7421000073616E69AD
:1033E000747920636865636B0000000076616C6926
:1033F000646174655F646174616772616D3A6E6582
:1034000078745F70627566213D4E554C4C0000002B
:1034100070B504460D4610480068A04203D10E491D
:103420002068086012E000BF002D0CD100BF0BA384
:1034300040F2471212A119A0FCF7ACFF00200020B7
:1034400000BFAFF3008000BF206828602146002045
:1034500000F06CFF70BD00006C00002055736572B9
:103460005C6C7769705C7372635C636F72655C69D6
:103470007076345C6970345F667261672E63000039
:1034800073616E69747920636865636B206C696E23
:103490006B6564206C697374000000004173736590
:1034A0007274696F6E2022257322206661696C65D3
:1034B00064206174206C696E6520256420696E202B
:1034C00025730A0070B505460E46002000F068FF1F
:1034D000044664B93146284600F018F9B04203DBCF
:1034E000002000F05DFF04460CB9002070BD2021D3
:1034F0002046FCF760FE0F20E07706480068206059
:10350000044804601422294604F10800FCF72CFE4C
:103510002046EBE76C0000202DE9F0470446884682
:10352000002500BFA0450BD100BF4BA3AB2253A188
:1035300055A0FCF72FFF0020002000BFAFF3008054
:1035400000BFB8F1000F11D000BFD8F80000A042B2
:103550000BD000BF40A3AD2255A14BA0FCF71AFF32
:103560000020002000BFAFF3008000BF606800288B
:103570002FD06068D0F80490B9F80400002828D152
:103580006768D9F800006060142204F108017868C7
:10359000FCF7EAFD01213846FEF7ECFF384601F062
:1035A0007FFD064600BFA819B0F5803F0BDB00BFCA
:1035B00029A3BD2243A134A0FCF7ECFE002000208B
:1035C00000BFAFF3008000BFA81985B2384601F0F4
:1035D000A9FE676820E0D7F80490BA46D9F80070D1
:1035E000504601F05DFD064600BFA819B0F5803FCA
:1035F0000BDB00BF18A3CE2232A123A0FCF7CAFE2A
:103600000020002000BFAFF3008000BFA81985B2E2
:10361000504601F087FE00BF002FDCD14146204616
:10362000FFF7F6FE00BF2F480088A8420BDA00BF64
:1036300009A3D4222CA114A0FCF7ACFE002000208A
:1036400000BFAFF3008000BF26480088401B25491B
:1036500008802846BDE8F087557365725C6C776911
:10366000705C7372635C636F72655C697076345C06
:103670006970345F667261672E63000070726576F0
:1036800020213D2069707200417373657274696F07
:103690006E2022257322206661696C656420617446
:1036A000206C696E6520256420696E2025730A00F0
:1036B000707265762D3E6E657874203D3D20697090
:1036C0007200000070627566735F667265656420E3
:1036D0002B20636C656E203C3D2030786666666604
:1036E000000000007000002069705F7265617373F4
:1036F0005F70627566636F756E74203E3D20706208
:103700007566735F66726565640000002DE9F84FA9
:1037100005468946002700BF0026B24600200090DB
:1037200083461B48046821E06069E968884207D144
:10373000A0692969884203D1A089A988884201D05B
:10374000012000E0002068B10BF1010B1EB92646F4
:10375000CDF800A006E0E07FF17F884202DC26463B
:10376000CDF800A0206800B1A2462468002CDBD16F
:103770002EB130460099FFF7CFFE804647444F45B3
:1037800002DABBF1010FC7DC3846BDE8F88F000054
:103790006C00002070B500250A4804680FE0E07F47
:1037A000002805DDE07F401EE0772546246806E01E
:1037B0002646246829463046FFF7AEFE00BF002C9F
:1037C000EDD170BD6C00002070B505462C4600BFE1
:1037D00064B900BF13A34FF434721BA11DA0FCF702
:1037E000D9FD0020002000BFAFF3008000BF00BF64
:1037F000AC420CD000BF0BA340F2D1221FA115A0F8
:10380000FCF7C8FD0020002000BFAFF3008000BF20
:10381000606910B1606901F085FD2046FFF72CFC5E
:1038200070BD0000557365725C6C7769705C737273
:10383000635C636F72655C697076345C6970345F79
:10384000667261672E63000070637220213D204E16
:10385000554C4C00417373657274696F6E2022255C
:103860007322206661696C6564206174206C696EE6
:103870006520256420696E2025730A00706372201C
:103880003D3D2070000000002DE9F04180460E46CD
:10389000174639463046FDF737FB044614B9002079
:1038A000BDE8F0814FF4C1722146002001F08AF991
:1038B00005460DB90020F3E722463146284601F0BF
:1038C000BFFF2846ECE7F8B506460D46FDF7E4F9DC
:1038D0000020009001216846FDF700FC2C4604E022
:1038E00061896068FDF7FAFB2468002CF8D1FDF7C8
:1038F000CBFA0020F8BD00002DE9F0410446254632
:103900006868804702F05CF906460D492868096836
:103910004718B81BB0F1004F01D3012000E0002090
:1039200030B1296888192246064902F0B1F904E04D
:1039300022460449384602F0ABF9BDE8F0810000A8
:1039400078000020F938000801460806000C40EA1B
:103950001120704708B50020009000BF68468042E3
:103960000CD000BF0BA340F25B12114911A0FCF771
:1039700011FD0020002000BFAFF3008000BF00BF9A
:1039800000BF00F0E7F900F0E5FC00F0ECFF02F00A
:1039900019FA08BD557365725C6C7769705C737257
:1039A000635C636F72655C696E69742E630000000E
:1039B000EC5E0008417373657274696F6E20222596
:1039C0007322206661696C6564206174206C696E85
:1039D0006520256420696E2025730A00F8B5054628
:1039E0000A462B4600200090002103F0010636B164
:1039F000002A04DD13F8010B8DF80100521E1C464D
:103A000003E034F8027B3944921E012AF9DC002AD3
:103A100002DD20788DF80000BDF80000014488B276
:103A200000EB114188B200EB114126B1C8B2C1F3DD
:103A3000072747EA002188B2F8BD000086B0FCF7EE
:103A4000FBFB494800684FF47A72B0FBF2F1B1F128
:103A5000807F00D31DE021F07F40401E4FF0E02228
:103A6000506150170F22002807DA13071D0E3F4B35
:103A700000F00F04241F1D5503E013071C0E3C4BE0
:103A80001C5400BF00204FF0E0229061072010611D
:103A900000BF3848806940F01000364988613648D8
:103AA000406820F44000344948600846406840F4CB
:103AB000001048604FF6FF70C860304B304A314903
:103AC0003148FCF72FFE314805906FF07F4004909D
:103AD0002F480390FFF73EFF2E482F49002203ABEB
:103AE000CDE90021029004AA05A92C4800F0C8FDE8
:103AF0002A4800F0D1FF294800F0D4FF33E01E48E7
:103B0000C06880F400501C49C8600020029002E0A8
:103B10000298401C0290224902988842F8DB4FF438
:103B2000BE6218491D48FFF7AFFE044644B11B486A
:103B3000014602692046904710B1204601F0F2FB91
:103B400002F014F80C48C06880F400500A49C860BC
:103B50000020029002E00298401C02901049029856
:103B60008842F8DB00BFCAE70000002018ED00E043
:103B700000E400E00010024000100140A006002018
:103B80001E000020B000002018000020A9FE193FF0
:103B9000C0A80101851F0008412100088000002005
:103BA000A086010070B5054605B970BD05F003009B
:103BB00000280DD000BF00BF2BA340F2662231A128
:103BC00039A0FCF7E7FB0020002000BFAFF3008026
:103BD000A5F108043E480068844205D305F10C00B5
:103BE0003C49096888420DD900BF00BF1EA340F2BE
:103BF000722239A12CA0FCF7CDFB0020002000BFD1
:103C0000AFF30080207900280DD100BF00BF16A3BC
:103C100040F27F2237A124A0FCF7BCFB002000204B
:103C200000BFAFF30080204600F0C2F800280DD19D
:103C300000BF00BF0CA34FF4227238A11AA0FCF7FA
:103C4000A9FB0020002000BFAFF3008000202071FE
:103C50003F480068844201D23D480460204601F09C
:103C60008BFE00BFA1E70000557365725C6C77693D
:103C7000705C7372635C636F72655C6D656D2E63FF
:103C8000000000006D656D5F667265653A207361C6
:103C90006E69747920636865636B20616C69676E17
:103CA0006D656E7400000000417373657274696F16
:103CB0006E2022257322206661696C656420617420
:103CC000206C696E6520256420696E2025730A00CA
:103CD00040000020440000206D656D5F66726565E0
:103CE0003A20696C6C6567616C206D656D6F7279E7
:103CF000000000006D656D5F667265653A20696C55
:103D00006C6567616C206D656D6F72793A20646FC8
:103D100075626C6520667265650000006D656D5F9B
:103D2000667265653A20696C6C6567616C206D65CB
:103D30006D6F72793A206E6F6E2D6C696E6B656473
:103D40003A20646F75626C652066726565000000DC
:103D50004800002010B500BF00BF114820F003004C
:103D600010490860084604684FF4806020800020F5
:103D7000608020714FF4806001F0F0FE0A49086015
:103D8000012009680871800207490968088006490E
:103D900009684880034800680449086010BD0000B5
:103DA000BB06002040000020440000204800002006
:103DB0002DE9F0410446204600F084F905462088AC
:103DC00001F0CCFE0646608801F0C8FE0746208858
:103DD000B0F5806F10D86088B0F5806F0CD860881F
:103DE000A84202D03888A84206D106480068864218
:103DF00005D07088A84202D00020BDE8F0810120E3
:103E0000FBE70000440000202DE9F0478146B9F1AE
:103E1000000F02D10020BDE8F08709F1030020F077
:103E2000030085B20C2D00D20C25B5F5806F01D8AA
:103E30004D4501DA0020EEE76248006800F042F9E3
:103E40000646B7E0304601F089FE04462079002896
:103E50007AD1218806F10800081AA84274D3218873
:103E600006F10800091A05F1140081422DD306F16C
:103E7000080028441FFA80F800BFB8F5806F0CD105
:103E800000BF51A340F27A3256A15BA0FCF782FA40
:103E90000020002000BFAFF3008000BF404601F0CB
:103EA0005DFE074600213971218839807E80A4F8A3
:103EB0000080012020713888B0F5806F07D03888E5
:103EC00001F04CFEA0F8028001E0012020713D4885
:103ED000006884422BD13B48D0F800A004E0BAF837
:103EE000000001F03BFE82469AF8040018B14C48ED
:103EF00000688245F3D13348C0F800A000BF0068D5
:103F000047490968884210D02E480068007960B19E
:103F100000BF2DA34FF46A7242A137A0FCF73AFA12
:103F20000020002000BFAFF3008000BF00BF00BF33
:103F300004F1080028443A49096888420ED900BFB4
:103F400021A34FF46B7200E030E03DA12AA0FCF702
:103F500021FA0020002000BFAFF3008000BF00BFA7
:103F600004F0030060B100BF17A340F2AE3240A1DD
:103F700021A0FCF70FFA0020002000BFAFF3008063
:103F800000BF00BF04F0030060B100BF0EA34FF4F8
:103F90006C7243A118A0FCF7FDF90020002000BFBF
:103FA000AFF3008000BF04F1080034E7304601F0B1
:103FB000D5FD0688C5F58060B0423FF643AF0020CE
:103FC00029E7000048000020557365725C6C776932
:103FD000705C7372635C636F72655C6D656D2E639C
:103FE00000000000696E76616C6964206E6578740B
:103FF0002070747200000000417373657274696F01
:104000006E2022257322206661696C6564206174CC
:10401000206C696E6520256420696E2025730A0076
:10402000440000206D656D5F6D616C6C6F633A20BC
:10403000216C667265652D3E757365640000000035
:104040006D656D5F6D616C6C6F633A20616C6C6F58
:104050006361746564206D656D6F7279206E6F7435
:104060002061626F76652072616D5F656E642E00FF
:104070006D656D5F6D616C6C6F633A20616C6C6F28
:104080006361746564206D656D6F72792070726F05
:104090007065726C7920616C69676E65642E0000D2
:1040A0006D656D5F6D616C6C6F633A2073616E69F5
:1040B000747920636865636B20616C69676E6D65F8
:1040C0006E740000014602480088081A80B27047EA
:1040D000400000202DE9F84F81468B460BF103008C
:1040E00020F0030085B20C2D00D20C25B5F5806FB1
:1040F00001D85D4502DA0020BDE8F88F00BF6448B2
:104100000068814503D36348006881450CD300BF34
:1041100061A34FF4317267A16CA0FCF73BF900205A
:10412000002000BFAFF3008000BF59480068814500
:1041300003D35848006881450ED300BF00BFFCF789
:1041400039F9009072B600BF00BF0098FCF744F93F
:1041500000BF00BF4846CFE7A9F108063046FFF789
:10416000B1FF07463188C81B08381FFA80FA00BF24
:1041700055450CDD00BF48A340F2D7225DA153A0F6
:10418000FCF708F90020002000BFAFF3008000BF5B
:10419000554501DD0020AFE7554501D14846ABE765
:1041A000308801F0DBFC04462079002837D100BFBD
:1041B0003088B0F5806F0CD100BF37A34FF43A724E
:1041C00054A142A0FCF7E6F80020002000BFAFF3A6
:1041D000008000BF2088009007F1080028441FFAE3
:1041E00080F851480068A04204D1404601F0B6FC76
:1041F0004D490860404601F0B1FC044600202071A2
:10420000009820806780A6F800802088B0F5806F35
:1042100004D0208801F0A2FCA0F8028035E005F16E
:104220001400504531D807F1080028441FFA80F8DF
:1042300000BF3088B0F5806F0CD100BF16A340F2EC
:10424000093234A121A0FCF7A5F80020002000BF0E
:10425000AFF3008000BF404601F080FC04463248C6
:104260000068844201D23048046000202071308808
:1042700020806780A6F800802088B0F5806F04D089
:10428000208801F06BFCA0F80280484634E700006B
:104290004000002044000020557365725C6C776913
:1042A000705C7372635C636F72655C6D656D2E63C9
:1042B000000000006D656D5F7472696D3A206C6579
:1042C00067616C206D656D6F727900004173736575
:1042D0007274696F6E2022257322206661696C6595
:1042E00064206174206C696E6520256420696E20ED
:1042F00025730A006D656D5F7472696D2063616E70
:10430000206F6E6C7920736872696E6B206D656DBD
:104310006F727900696E76616C6964206E6578747D
:1043200020707472000000004800002070B5044640
:104330000D4600BF052C00DB70BD00BF05B9FBE7D3
:10434000034951F824002946FCF726F900BFF3E79A
:10435000B05E000810B5002406E0054951F82400BD
:1043600000F008F8601C84B2052CF6D310BD0000E4
:10437000B05E000810B50023846823604368DB1C2E
:1043800023F00301002207E083681B680B60836849
:10439000196003881944521C43889342F4DC10BD11
:1043A00070B5044600BF052C01DB002070BD00BFC6
:1043B000034951F82400FCF74DF905462846F5E776
:1043C000B05E000870B5C6B0FCF728FB60A191E8AC
:1043D0000D00C96842AC0DC4459161A30FCB3EAC42
:1043E0000FC43C2262A12FA8FBF7BEFE3C226FA1A6
:1043F00020A8FBF7B9FE3C227BA111A8FBF7B4FE75
:10440000382288A103A8FBF7AFFE0020029041F2FA
:10441000342529469148FCF7F1FD9048FCF75AFCF9
:1044200002902FA8FCF788FABDF80800A84204D033
:104430003EA8FCF781FA00BFFEE742A8FCF77CFA31
:1044400000BF8748FCF746FC02909DF8080000F08A
:1044500001000028F5D029468248FCF7CFFD8148AD
:10446000FCF738FC029020A8FCF766FABDF80800BB
:10447000A84204D03EA8FCF75FFA00BFFEE742A8BE
:10448000FCF75AFA43F6830631467748FCF7B6FD47
:104490007548FCF71FFC029011A8FCF74DFABDF817
:1044A00008004010B0EB660F04D03EA8FCF744FAB9
:1044B00000BFFEE742A8FCF73FFA6CA0006801903D
:1044C000002000906A48FCF705FC02909DF8080067
:1044D00020F0800080308DF80800BDF80810644896
:1044E000FCF78CFD00215D48FCF788FD40F6FF716C
:1044F0006048FCF783FD4FF480515F48FCF77EFD78
:10450000042101A8FCF765FD4FF480515B48FCF7DE
:1045100075FD04216846FCF7C7FB03A8FCF70CFAFD
:1045200000240CE001A8005D1DF80410884204D0AE
:104530003EA8FCF701FA00BFFEE7601CC4B2042CE1
:10454000F0DB42A8FCF7F8F9FCF73AFD46B070BD85
:1045500054657374207061737365640A0000000011
:1045600054657374206661696C65640A000000001C
:10457000204D6964576172652054657374313A2027
:10458000547279696E6720746F2077726974652040
:10459000616E6420726561642074686520455448CA
:1045A0002072656769737465720A00004D6964570B
:1045B0006172652054657374323A20547279696E61
:1045C0006720746F20777269746520616E64207251
:1045D00065616420746865204D4143207265676998
:1045E000737465720A0000004D696457617265203A
:1045F00054657374333A20547279696E6720746F0E
:1046000020777269746520616E6420726561642030
:1046100074686520504859207265676973746572C3
:104620000A0000004D696457617265205465737417
:10463000343A20547279696E6720746F20777269FA
:10464000746520616E6420726561642062756666BF
:104650006572206D656D6F72790A0000205E00083A
:104660000C5E00083C5E0008705E0008123456784C
:10467000105E0008245E00081C5E0008185E00083A
:104680002DE9F05F04460E4617469846DDE90AB963
:1046900000BF14B90020BDE8F09F00BF00BFB9F112
:1046A000000F01D10020F6E700BF06B93E4E07B962
:1046B0003D4FB8F1000F01D1DFF8EC8000206060C1
:1046C000A060E060394860610020208484F82900FF
:1046D000C4F81CB03648007884F82C000C9820618F
:1046E00043463A463146204600F0A6F92046C847E0
:1046F00008B10020CFE700BF94F82C00FF2802D1BA
:10470000002084F82C004FF0000A2A48056831E0A8
:1047100000BFA5420CD100BF27A34FF4CE722DA13C
:1047200031A0FBF737FE0020002000BFAFF3008070
:1047300000BF0AF1010A00BFBAF1FF0F0CDD00BF94
:104740001DA34FF4CF7232A127A0FBF723FE002058
:10475000002000BFAFF3008000BF95F82C0094F854
:104760002C10884205D194F82C00401C84F82C00B1
:1047700002E02D68002DCBD100BF002DBCD194F8F4
:104780002C00FE2803D100200949087004E094F8A9
:104790002C00401C06490870064800682060054847
:1047A0000460204677E70000C45E0008314A000834
:1047B0006800002060000020557365725C6C7769AA
:1047C000705C7372635C636F72655C6E657469665E
:1047D0002E6300006E6574696620616C72656164A9
:1047E0007920616464656400417373657274696FF4
:1047F0006E2022257322206661696C6564206174D5
:10480000206C696E6520256420696E2025730A007E
:10481000746F6F206D616E79206E65746966732C9C
:10482000206D61782E20737570706F7274656420CE
:104830006E756D6265722069732032353500000037
:10484000704710B503460868DC68A04201D101201A
:1048500000E0002030B909B9002000E00868D86005
:10486000012010BD0020FCE7F8B505460C461646B1
:1048700000BF64B900BF1DA34FF4EE7222A126A0B1
:10488000FBF788FD0020002000BFAFF3008000BFD1
:1048900000BF66B900BF15A340F2DD121AA11EA029
:1048A000FBF778FD0020002000BFAFF3008000BFC1
:1048B00020686968884201D1012000E0002090B999
:1048C000206800906868306069463046FFF7B8FF9E
:1048D0000CB9002000E0206868600121284600F043
:1048E00043F80120F8BD0020FCE700005573657215
:1048F0005C6C7769705C7372635C636F72655C6E2D
:10490000657469662E630000696E76616C69642067
:10491000706F696E74657200417373657274696F4C
:104920006E2022257322206661696C6564206174A3
:10493000206C696E6520256420696E2025730A004D
:1049400010B5034608689C68A04201D1012000E030
:10495000002030B909B9002000E008689860012003
:1049600010BD0020FCE7704770B504460D4600BF3F
:10497000002C0CD100BF14A34FF4627219A122A025
:10498000FBF708FD0020002000BFAFF3008000BF50
:1049900094F8290000F0040020B194F8290000F0F8
:1049A000010000B970BD05F0010050B1606840B170
:1049B00094F8290000F0080018B1211D2046FDF7E9
:1049C000A9F900BFEEE70000557365725C6C77696A
:1049D000705C7372635C636F72655C6E657469664C
:1049E0002E6300006E657469665F69737375655F39
:1049F0007265706F7274733A20696E76616C696467
:104A0000206E657469660000417373657274696F26
:104A10006E2022257322206661696C6564206174B2
:104A2000206C696E6520256420696E2025730A005C
:104A300003466FF00B0070472DE9F84F80460C4697
:104A400015461E464FF00009CA4604B9114C05B977
:104A5000104D06B90F4E0CB1206808B9012000E0D6
:104A60000020074627B16A4621464046FFF7FCFE74
:104A70004A4629464046FFF763FF524631464046C4
:104A8000FFF7DFFE27B96A4621464046FFF7ECFEF6
:104A9000BDE8F88FC45E0008014908607047000057
:104AA0006400002010B5044600BF04B910BD00BF6B
:104AB00094F8290000F0010058B900BF94F82900CB
:104AC00040F0010084F8290000BF03212046FFF7D1
:104AD0004BFF00BFEAE770B504460D4600222946A9
:104AE000204600F001F870BD2DE9F04704460D4660
:104AF000904600BF64B900BF1EA34FF4F27224A118
:104B000026A0FBF747FC0020002000BFAFF3008089
:104B100000BF14B1B5F5803F02D30120BDE8F08796
:104B20000DB90020FAE7AEB22089304480B2B0421D
:104B300001DA0120F2E794F80C9009F0800038B116
:104B40006068471B04F11000874209D20120E5E7A5
:104B5000B8F1000F02D06068471B01E00120DDE7DB
:104B60006760608930446081208930442081002062
:104B7000D4E70000557365725C6C7769705C737282
:104B8000635C636F72655C706275662E6300000023
:104B90007020213D204E554C4C0000004173736540
:104BA0007274696F6E2022257322206661696C65BC
:104BB00064206174206C696E6520256420696E2014
:104BC00025730A002DE9FE4F82460E469046574651
:104BD000B8F1010F0AD0B8F1410F06D0B8F5C17F86
:104BE0000BD0B8F5207F70D170E000BF424631464F
:104BF000002000F035F90446B7E0002400200290C0
:104C0000B14600BF0420FFF7CBFB054635B914B110
:104C1000204600F087FB0020BDE8FE8FF81C20F046
:104C20000300C0F5807080B2484501DD484605E0CC
:104C3000F81C20F00300C0F5807080B2834600208D
:104C4000CDE9008005F110003844C01C20F00301BC
:104C50005B464A46284600F05DFC00BF287900F01C
:104C6000030060B100BF42A34FF4817247A153A07B
:104C7000FBF790FB0020002000BFAFF3008000BFD7
:104C800000BFF81C20F00300C0F5807000280CD194
:104C900000BF37A34FF4827252A148A0FBF77AFB02
:104CA0000020002000BFAFF3008000BF0CB92C46ED
:104CB00001E0029805600295A9EB0B001FFA80F94C
:104CC0000027B9F1000F9DDC4FE040E0F81C20F018
:104CD0000301F01C20F00300084485B205F1100028
:104CE0001FFA80F9F01C20F00300A84204D8F01C41
:104CF00020F00300484501D900208DE74846FFF722
:104D000083F804460CB9002086E70020CDE9008036
:104D100004F110003844C01C20F003013346324631
:104D2000204600F0F7FB00BF207900F0030060B1DF
:104D300000BF0FA34FF4927237A120A0FBF72AFB0C
:104D40000020002000BFAFF3008000BF0DE000BFD7
:104D500000BF07A340F229123AA118A0FBF71AFBE3
:104D60000020002000BFAFF3008000BF204653E7C3
:104D7000557365725C6C7769705C7372635C636FAA
:104D800072655C706275662E630000007062756605
:104D90005F616C6C6F633A207062756620712D3EA6
:104DA0007061796C6F61642070726F7065726C797C
:104DB00020616C69676E6564000000004173736573
:104DC0007274696F6E2022257322206661696C659A
:104DD00064206174206C696E6520256420696E20F2
:104DE00025730A00504255465F504F4F4C5F425565
:104DF0004653495A45206D75737420626520626977
:104E000067676572207468616E204D454D5F414C47
:104E100049474E4D454E5400706275665F616C6C3B
:104E20006F633A20706275662D3E7061796C6F61B8
:104E3000642070726F7065726C7920616C69676E46
:104E400065640000706275665F616C6C6F633A2028
:104E50006572726F6E656F7573207479706500008E
:104E60002DE9FC4107460D46144600BF412C0ED0EB
:104E7000012C0CD000BF10A34FF4A67215A11AA0EC
:104E8000FBF788FA0020002000BFAFF3008000BFCE
:104E90000320FFF785FA064616B90020BDE8FC811D
:104EA00000202B462A463946CDE90040304600F026
:104EB00031FB3046F2E70000557365725C6C776930
:104EC000705C7372635C636F72655C706275662E92
:104ED00063000000696E76616C69642070627566BB
:104EE0005F74797065000000417373657274696F57
:104EF0006E2022257322206661696C6564206174CE
:104F0000206C696E6520256420696E2025730A0077
:104F10002DE9FC5F05460C4617469846DDE90C9BDB
:104F2000AA460AF1030020F003002044584502D9A4
:104F30000020BDE8FC9FB9F1000F06D00AF1030084
:104F400020F0030000EB090600E0002602202346C3
:104F500022463146CDE90070404600F0DBFA40467B
:104F6000E7E7000070B506460D4600BF06B105B97B
:104F700070BD00BF00BFAE420CD100BF20A340F205
:104F80005F3226A12CA0FBF705FA0020002000BF0D
:104F9000AFF3008000BF344604E02089298908442B
:104FA0002081246820680028F7D100BF208961890A
:104FB00088420CD000BF12A340F2673228A11EA085
:104FC000FBF7E8F90020002000BFAFF3008000BF2E
:104FD00000BF206860B100BF09A34FF45A722CA132
:104FE00015A0FBF7D7F90020002000BFAFF3008029
:104FF00000BF2089298908442081256000BFB7E7C8
:10500000557365725C6C7769705C7372635C636F17
:1050100072655C706275662E6300000043726561A4
:1050200074696E6720616E20696E66696E69746569
:10503000206C6F6F70000000417373657274696F4C
:105040006E2022257322206661696C65642061747C
:10505000206C696E6520256420696E2025730A0026
:10506000702D3E746F745F6C656E203D3D20702D19
:105070003E6C656E20286F66206C617374207062D0
:10508000756620696E20636861696E290000000002
:10509000702D3E6E657874203D3D204E554C4C0081
:1050A0000146002002E0421C90B209680029FAD1B2
:1050B000704700002DE9F04180460E4614462189D4
:1050C00032464046FFF77EFD074617B90020BDE88F
:1050D000F0812146384600F03FF8054600BF65B133
:1050E00000BF07A340F24C520CA111A0FBF752F9EC
:1050F0000020002000BFAFF3008000BF3846E6E785
:10510000557365725C6C7769705C7372635C636F16
:1051100072655C706275662E630000007062756671
:105120005F636F7079206661696C656400000000E0
:10513000417373657274696F6E2022257322206635
:1051400061696C6564206174206C696E65202564FA
:1051500020696E2025730A0070B505460C4600BF15
:1051600014B96FF00F0070BD00BF228900232146E3
:10517000284600F001F8F6E72DE9F04704460D4611
:1051800016469A4657464FF0000800BF15B12889C9
:10519000B04203DA6FF00F00BDE8F08700BF00BF38
:1051A00024B120890AEB0601884202DA6FF00F0071
:1051B000F2E700BF00BF6089C01B6989A1EB08014D
:1051C000884203D36889A0EB080902E06089A0EB5C
:1051D00007094E4501D2304600E0484681466A68DC
:1051E00002EB08016268D0194A46FAF7BDFF4F4446
:1051F000C844A6EB090086B200BF6089B8420CD251
:1052000000BF2AA340F2FA322FA135A0FBF7C2F863
:105210000020002000BFAFF3008000BF00BF6889FE
:1052200040450CD200BF21A340F2FB3236A12CA096
:10523000FBF7B0F80020002000BFAFF3008000BFF4
:105240006889404509D84FF000082D6800BF1DB996
:1052500016B16FF00F009FE700BF6089B84208D118
:105260000027246800BF1CB916B16FF00F0093E748
:1052700000BF55B168892989884206D100BF2868D6
:1052800010B16FF0050087E700BF54B16089218934
:10529000884206D100BF206810B16FF005007BE79F
:1052A00000BF002E87D1002076E70000557365729D
:1052B0005C6C7769705C7372635C636F72655C7061
:1052C0006275662E630000006F66667365745F74B6
:1052D0006F203C3D20705F746F2D3E6C656E00004A
:1052E000417373657274696F6E2022257322206684
:1052F00061696C6564206174206C696E6520256449
:1053000020696E2025730A006F66667365745F6698
:10531000726F6D203C3D20705F66726F6D2D3E6C2C
:10532000656E00002DE9F047044694B900BF64B9EA
:1053300000BF43A34FF4387248A14BA0FBF72AF8F3
:105340000020002000BFAFF3008000BF0020BDE8B8
:10535000F087002770E000BF00BFEFF31080054624
:1053600072B600BF00BFA07B00280CDC00BF34A3D6
:1053700040F2F52246A13CA0FBF70CF800200020EB
:1053800000BFAFF3008000BFA07B401E00F0FF090C
:1053900084F80E9000BF00BF85F3108800BF00BFE7
:1053A000B9F1000F46D1D4F80080207B00F00F0641
:1053B000607B00F00200002817D0A24600BFDAF898
:1053C000100060B900BF1EA340F2033236A126A030
:1053D000FAF7E0FF0020002000BFAFF3008000BF1D
:1053E0002046DAF81010884720E0022E04D121462A
:1053F0000420FEF79BFF19E0012E04D12146032073
:10540000FEF794FF12E01EB92046FEF7CBFB0DE03D
:1054100000BF00BF0AA340F213322CA112A0FAF77A
:10542000B9FF0020002000BFAFF30080781CC7B296
:10543000444600E0002400BF002C8CD1384686E7AB
:10544000557365725C6C7769705C7372635C636FD3
:1054500072655C706275662E630000007020213DED
:10546000204E554C4C000000417373657274696F97
:105470006E2022257322206661696C656420617448
:10548000206C696E6520256420696E2025730A00F2
:10549000706275665F667265653A20702D3E726552
:1054A00066203E203000000070632D3E63757374EB
:1054B0006F6D5F667265655F66756E6374696F6E4A
:1054C00020213D204E554C4C00000000696E766155
:1054D0006C696420706275662074797065000000E4
:1054E00070B504460D4601222946204600F001F819
:1054F00070BD70B505460C461646002C04DA6142B4
:10550000284600F043F970BD324621462846FFF791
:10551000EBFAF8E770B5DDE9044500260660416066
:105520000281438104734573012686730026C67386
:1055300070BD00002DE9F04706460F4600BF66B972
:1055400000BF3CA34FF4CD7241A147A0FAF722FF60
:105550000020002000BFAFF3008000BF3089B842B8
:1055600001DCBDE8F0873089C01B1FFA80F83D469A
:10557000344617E06089281A85B22089A0EB08001C
:105580002081246800BF64B900BF2AA340F2B11291
:105590003FA135A0FAF7FEFE0020002000BFAFF3C8
:1055A000008000BF6089A842E4DB207B00F00F0090
:1055B000002833D16089A84230D0607B00F002001F
:1055C00000282BD1A088001B284481B22046FEF77A
:1055D00081FD814600BFB9F1000F0CD100BF15A3BA
:1055E00040F2BF1230A120A0FAF7D4FE0020002024
:1055F00000BFAFF3008000BF00BFA1450CD000BFCB
:105600000CA340F2C1122FA117A0FAF7C3FE00208D
:10561000002000BFAFF3008000BF00BF658160893C
:105620002081206810B12068FFF77CFE00202060F8
:1056300000BF96E7557365725C6C7769705C737236
:10564000635C636F72655C706275662E6300000058
:10565000706275665F7265616C6C6F633A20702072
:10566000213D204E554C4C00417373657274696F37
:105670006E2022257322206661696C656420617446
:10568000206C696E6520256420696E2025730A00F0
:10569000706275665F7265616C6C6F633A20712031
:1056A000213D204E554C4C006D656D5F7472696DE7
:1056B0002072657475726E65642072203D3D204EC7
:1056C000554C4C006D656D5F7472696D2072657428
:1056D00075726E6564207220213D2071000000000B
:1056E00010B50446002C24D000BF00BF00BFEFF36C
:1056F0001081084600BF72B600BFA17B491CA17390
:1057000000BF00BF80F3108800BF00BF00BF00BF14
:10571000A07B00280CDC00BF06A340F246320CA19F
:1057200010A0FAF737FE0020002000BFAFF3008082
:1057300000BF10BD557365725C6C7769705C7372E5
:10574000635C636F72655C706275662E6300000057
:105750007062756620726566206F766572666C6F22
:1057600077000000417373657274696F6E202225A3
:105770007322206661696C6564206174206C696EB7
:105780006520256420696E2025730A002DE9F0410B
:1057900004460D4600BF64B900BF15A34FF4147250
:1057A0001AA11DA0FAF7F6FD0020002000BFAFF3FC
:1057B000008000BF14B1B5F5803F02D30120BDE8E1
:1057C000F0810DB90020FAE7AEB200BF6089B042A7
:1057D00001DA0120F3E700BF676860682844606071
:1057E0006089801B60812089801B20810020E6E782
:1057F000557365725C6C7769705C7372635C636F20
:1058000072655C706275662E630000007020213D39
:10581000204E554C4C000000417373657274696FE3
:105820006E2022257322206661696C656420617494
:10583000206C696E6520256420696E2025730A003E
:105840002DE9F04704468846164637464FF0000AD1
:1058500000BF1CB96FF00F00BDE8F08700BF00BFAC
:10586000B8F1000F02D16FF00F00F5E700BF00BFE5
:105870002089B04202DA4FF0FF30EDE700BF2CB1D3
:10588000B8F1000F02D02089B04202DA6FF00F00A9
:10589000E2E725461FE000BF65B900BF19A340F24B
:1058A000E5421FA124A0FAF775FD0020002000BFEB
:1058B000AFF3008000BFB9466889484501D2B5F80A
:1058C0000A9008EB0A014A466868FAF74DFCA7EB14
:1058D0000907CA442D68002FDDD100BF0FB9B245BA
:1058E0000CD000BF07A34FF49E621DA112A0FAF7CF
:1058F00051FD0020002000BFAFF3008000BF00205A
:10590000AAE70000557365725C6C7769705C73720E
:10591000635C636F72655C706275662E6300000085
:10592000706275665F74616B653A20696E76616C52
:105930006964207062756600417373657274696F83
:105940006E2022257322206661696C656420617473
:10595000206C696E6520256420696E2025730A001D
:10596000646964206E6F7420636F707920616C6C61
:1059700020646174610000002DE9F041044600BF1D
:105980004348006884420CD200BF42A34FF4E9723E
:1059900047A14DA0FAF7FEFC0020002000BFAFF3A6
:1059A000008000BF00BF5248006884420CD300BF93
:1059B00038A340F2D3124FA143A0FAF7EBFC00202A
:1059C000002000BFAFF3008000BF00BF207960B1AE
:1059D00000BF30A34FF4EA724DA13BA0FAF7DAFC06
:1059E0000020002000BFAFF3008000BF00BF208870
:1059F000B0F5806F0CD900BF26A340F2D7124BA19F
:105A000031A0FAF7C7FC0020002000BFAFF30080F0
:105A100000BF208800F0A2F80546AC4219D02879D2
:105A2000B8B933480068854213D04B480068A84293
:105A300001D149480460288820802888B0F5806F0B
:105A400007D02046FEF73EFB0746288800F086F880
:105A50004780608800F082F80646A64215D030796B
:105A600098B93D480068A04201D13B4806602088B3
:105A700030802088B0F5806F07D03046FEF722FBDB
:105A80000746208800F06AF84780BDE8F0810000F2
:105A900040000020557365725C6C7769705C7372AE
:105AA000635C636F72655C6D656D2E630000000062
:105AB000706C75675F686F6C65733A206D656D20FB
:105AC0003E3D2072616D0000417373657274696FB1
:105AD0006E2022257322206661696C6564206174E2
