:020000040800F2
:1000000068060020CD010008D5010008D7010008CE
:10001000D9010008DB010008DD0100080000000034
:10002000000000000000000000000000DF010008E8
:10003000E101000800000000E3010008E5010008FC
:10004000E7010008E7010008E7010008E7010008F0
:10005000E7010008E7010008E7010008E7010008E0
:10006000E7010008E7010008E7010008E7010008D0
:10007000E7010008E7010008E7010008E7010008C0
:10008000E7010008E7010008E7010008E7010008B0
:10009000E7010008E7010008E7010008E7010008A0
:1000A000E7010008E7010008E7010008E701000890
:1000B000E7010008E7010008E7010008E701000880
:1000C000E7010008E7010008E7010008E701000870
:1000D000E7010008E7010008E7010008E701000860
:1000E000E7010008E7010008E7010008E701000850
:1000F000E7010008E7010008E7010008E701000840
:10010000E7010008E7010008E7010008E70100082F
:10011000E7010008E7010008E7010008E70100081F
:10012000E7010008E7010008E7010008E70100080F
:1001300000F002F800F03AF80AA090E8000C8244BF
:100140008344AAF10107DA4501D100F02FF8AFF29C
:10015000090EBAE80F0013F0010F18BFFB1A43F0A5
:1001600001031847F00A0000100B0000103A24BFEA
:1001700078C878C1FAD8520724BF30C830C144BF0C
:1001800004680C607047000000230024002500264E
:10019000103A28BF78C1FBD8520728BF30C148BFEA
:1001A0000B6070471FB51FBD10B510BD00F063F8A0
:1001B0001146FFF7F7FF00F003FD00F081F803B4EC
:1001C000FFF7F2FF03BC00F089F800000948804700
:1001D00009480047FEE7FEE7FEE7FEE7FEE7FEE729
:1001E000FEE7FEE7FEE7FEE704480549054A064B41
:1001F00070470000D50300083101000868000020A6
:1002000068060020680200206802002010B5203A2D
:10021000C0F00B80B1E81850203AA0E81850B1E8BF
:100220001850A0E81850BFF4F5AF5FEA027C24BF75
:10023000B1E81850A0E8185044BF18C918C0BDE86C
:1002400010405FEA827C24BF51F8043B40F8043B35
:1002500008BF7047D20728BF31F8023B48BF11F8EA
:10026000012B28BF20F8023B48BF00F8012B704744
:10027000704770477047754600F02CF8AE46050091
:100280006946534620F00700854618B020B5FFF7B1
:10029000ABFFBDE820404FF000064FF000074FF0E5
:1002A00000084FF0000B21F00701AC46ACE8C00994
:1002B000ACE8C009ACE8C009ACE8C0098D4670479D
:1002C00010B50446AFF300802046BDE81040FFF7AC
:1002D00076BF000000487047040000200149182044
:1002E000ABBEFEE7260002007047704710B500F075
:1002F00001F810BD0CB50020019000903348006853
:1003000040F480303149086000BF3048006800F494
:10031000003000900198401C0190009818B9019895
:10032000B0F5A06FF1D12948006800F4003010B199
:100330000120009001E0002000900098012843D1A6
:100340002348006840F01000214908600846006812
:1003500020F0030008600846006840F002000860D2
:100360001A4840681949486008464068486008468D
:10037000406840F4806048600846406820F47C1083
:1003800048600846406840F4E81048600846006845
:1003900040F08070086000BF0C48006800F00070FA
:1003A0000028F9D00948406820F003000749486058
:1003B0000846406840F00200486000BF03484068BB
:1003C00000F00C000828F9D10CBD0000001002401C
:1003D0000020024010B51348006840F001001149A8
:1003E000086008464068104908400E4948600846C1
:1003F00000680E4908400B4908600846006820F470
:10040000802008600846406820F4FE0048604FF4F1
:100410001F008860FFF76AFF4FF000600449086022
:1004200010BD0000001002400000FFF8FFFFF6FEC4
:1004300008ED00E010B500F097F910BD38B504469E
:1004400000F02AF80D49887800F074F800909DF8C3
:10045000000064F30100009000F014F800F01CF8B4
:100460000649897841F040009DF8001000F090F8AE
:1004700000F008F80248047038BD0000240C0008A1
:10048000000000200348006840F0100001490860A7
:1004900070470000100801400348006840F48010D5
:1004A0000149086070470000100801400146204AD9
:1004B000117300BF1E4A128902F00102002AF9D00E
:1004C0001B4A128902F08002002AF3D1184A92894D
:1004D00000BF174A128902F08002002AF9D1144B9A
:1004E0001A7300BF124A128902F00102002AF9D0E1
:1004F0000F4A128902F08002002AF3D10C4A928935
:100500001206100C00220A4B1A7300BF084A128907
:1005100002F00102002AF9D0054A128902F0800295
:10052000002AF3D1024A9289D2B2104370470000E8
:100530000030014001461548017300BF134800898F
:1005400000F001000028F9D01048008900F0800078
:100550000028F3D10D48808900BF0C48008900F0C5
:1005600080000028F9D1094A107300BF07480089AC
:1005700000F001000028F9D00448008900F0800054
:100580000028F3D101488089C0B270470030014093
:10059000184A107300BF174A128902F00102002A9C
:1005A000F9D0144A128902F08002002AF3D1114ACC
:1005B000928900BF0F4A128902F08002002AF9D105
:1005C0000C4A117300BF0B4A128902F00102002A83
:1005D000F9D0084A128902F08002002AF3D1054AB4
:1005E000928900BF034A128902F08002002AF9D1E1
:1005F00070470000003001400549088000BF0449F1
:10060000091F098801F040010029F8D07047000057
:100610000438014000B5024603E01078FFF7ECFF14
:10062000521C10780028F8D100BD00000C49087356
:1006300000BF0B49098901F001010029F9D00849DF
:10064000098901F080010029F3D10549898900BF9A
:100650000349098901F080010029F9D170470000A0
:10066000003001401D48806940F005001B49886149
:100670001B4800681B490840194908600846006883
:100680001949084316490860084600681749084395
:100690001349086012481030006840F00400104907
:1006A000103108600846006840F0100008600B48F0
:1006B000806940F48050094988610D48008840F401
:1006C0009A700B4908800846808840F004008880B2
:1006D0000846008840F04000088070470010024043
:1006E00000080140FFF3333300011111000080883E
:1006F000003001401948806940F0050017498861C1
:100700001748006820F0C0001549086008460068D6
:1007100040F0800008600846006840F01000086063
:100720000846006820F4406008600846006840F40D
:10073000806008600846006820F440700860074840
:10074000806940F480400549886140F27120054984
:10075000088042F20C00091D08807047001002401A
:10076000040801400838014030B5AFB0FFF77AFF08
:1007700000F0BCF9FFF7BEFF3DA1D1E901030A6813
:10078000C968CDE92D31CDE92B203DA30FCB27AC96
:100790000FC4002441F2342534223DA11AA8FFF7EA
:1007A00035FD1AA8FFF736FF2946464800F0A8F99C
:1007B000444800F0C9F80446AC4204D027A8FFF72B
:1007C00029FF00BFFEE72BA8FFF724FF40F6FF71CB
:1007D0003C4800F095F941F6FF713B4800F090F974
:1007E00034223AA10DA8FFF711FD0DA8FFF712FF63
:1007F0000D21434800F084F9414800F0A5F8332169
:10080000404800F07DF93F4800F09EF83E4800F077
:100810009BF829463D4800F073F93C4800F094F8F5
:100820000446AC4204D027A8FFF7F4FE00BFFEE761
:100830002BA8FFF7EFFE342235A16846FFF7E6FC50
:100840006846FFF7E7FE3F4800F07EF8044643F2B3
:100850002340844207D0401E844204D027A8FFF7DB
:10086000D9FE00BFFEE72BA8FFF7D4FE2FB030BDA6
:1008700054657374207061737365640A000000002E
:1008800054657374206661696C65640A0000000039
:100890002054657374313A20547279696E672074FC
:1008A0006F20777269746520616E6420726561647F
:1008B00020746865204554482072656769737465C3
:1008C000720A0000280C00082C0C00085465737490
:1008D000323A20547279696E6720746F207772699A
:1008E000746520616E64207265616420746865209F
:1008F0004D41432072656769737465720A00000098
:10090000300C0008340C0008240C0008380C0008D7
:1009100054657374333A20547279696E6720746F2A
:1009200020777269746520616E642072656164204D
:1009300074686520504859207265676973746572E0
:100940000A000000500C00087CB5044600256078C1
:1009500061490978884205D06078042802D060781F
:10096000FFF76CFDFFF798FD207830B1012817D014
:10097000022816D003287CD127E0A078FFF7DAFD03
:100980000546E07802280AD1FFF77CFDFFF784FDD9
:10099000A178491CC8B2FFF7CDFD45EA002596E0D5
:1009A00000BFA078FFF782FDC5B2E07802280BD126
:1009B000FFF768FDFFF770FDA178491CC8B2FFF78B
:1009C00075FD45EA002085B281E044494878FFF78B
:1009D00035FDFFF761FD0020019041498878FFF760
:1009E00065FDC0B20190FFF74DFDFFF755FDA17801
:1009F0003A4A927842F04000FFF7CAFDFFF742FD05
:100A0000FFF74AFD9DF8040020F00100401C019012
:100A10003349897841F040009DF80410FFF7B8FD94
:100A2000FFF730FD002001E000BF401CC828FBDBC1
:100A30002C494878FFF702FD00BFFFF72DFD29493B
:100A40008878FFF733FD0090FFF71CFD9DF800004C
:100A500000F001000028F0D1FFF714FDFFF71CFDA6
:100A60001E494878FFF7EAFCFFF716FD1C49887815
:100A700000E02BE0FFF71AFDC0B20190FFF702FD86
:100A8000FFF70AFD9DF8040020F0010001901449D1
:100A9000897841F040009DF80410FFF779FDFFF7D9
:100AA000F1FCFFF7F9FC10498878FFF7FFFCC5B2AD
:100AB000FFF7E8FCFFF7F0FC0B498978491CC8B246
:100AC000FFF7F4FC45EA002085B200E000BF00BF5C
:100AD000FFF7D8FC28467CBD00000020400C000831
:100AE0003C0C00084C0C0008480C000810B5FFF73F
:100AF000D3FCFF20FFF79AFDFFF7C4FC10BD0000F8
:100B000038B504460D46607829490978884205D0F1
:100B10006078042802D06078FFF790FCFFF7BCFCF7
:100B2000207830B1012805D0022804D003283BD119
:100B300017E000BF00BFE9B2A27842F04000FFF723
:100B400027FDE07802280BD1FFF79CFCFFF7A4FCFF
:100B50002912A278521CD2B242F04000FFF718FDD1
:100B600022E0A178134A927842F04000FFF710FD8E
:100B7000E9B2114A927842F04000FFF709FD2912CC
:100B80000D4A9278521CD2B242F04000FFF700FDAD
:100B900000BF0A48FFF7D8FE00909DF8000000F063
:100BA00001000028F5D100BF00BFFFF76BFC38BD86
:100BB00000000020400C0008440C00084C0C000809
:100BC000FFF793FBFFF736FC1348806940F01000F5
:100BD000114988611148406820F440000F4948607D
:100BE0000846406840F4001048604FF6FF70C86047
:100BF00010E000200949C860094800E0401E0028B4
:100C0000FCDC4FF6FF700549C860054800E0401E57
:100C10000028FCDCEDE7000000100240001001405D
:100C20008096980000041F010000080200000A02DC
:100C3000010200010102020101020A020202120184
:100C400002021401020216020202180202030A0141
:100C500003041402740C00080000002004000000CB
:100C60006C010008780C00080400002064060000F5
:080C70008801000804000000E7
:0400000508000131BD
:00000001FF
