:020000040800F2
:1000000060060020B1010008B9010008BB0100082A
:10001000BD010008BF010008C10100080000000088
:10002000000000000000000000000000C301000804
:10003000C501000800000000C7010008C901000850
:10004000CB010008CB010008CB010008CB01000860
:10005000CB010008CB010008CB010008CB01000850
:10006000CB010008CB010008CB010008CB01000840
:10007000CB010008CB010008CB010008CB01000830
:10008000CB010008CB010008CB010008CB01000820
:10009000CB010008CB010008CB010008CB01000810
:1000A000CB010008CB010008CB010008CB01000800
:1000B000CB010008CB010008CB010008CB010008F0
:1000C000CB010008CB010008CB010008CB010008E0
:1000D000CB010008CB010008CB010008CB010008D0
:1000E000CB010008CB010008CB010008CB010008C0
:1000F000CB010008CB010008CB010008CB010008B0
:10010000CB010008CB010008CB010008CB0100089F
:10011000CB010008CB010008CB010008CB0100088F
:10012000CB010008CB010008CB010008CB0100087F
:1001300000F002F800F02CF80AA090E8000C8244CD
:100140008344AAF10107DA4501D100F021F8AFF2AA
:10015000090EBAE80F0013F0010F18BFFB1A43F0A5
:1001600001031847B4030000C40300000023002467
:1001700000250026103A28BF78C1FBD8520728BFB7
:1001800030C148BF0B6070471FB51FBD10B510BD13
:1001900000F031F81146FFF7F7FF00F08BF900F09F
:1001A0004FF803B4FFF7F2FF03BC00F057F800006C
:1001B0000948804709480047FEE7FEE7FEE7FEE7FB
:1001C000FEE7FEE7FEE7FEE7FEE7FEE70448054937
:1001D000054A064B7047000055030008310100082E
:1001E0006000002060060020600200206002002005
:1001F000704770477047754600F02CF8AE46050012
:100200006946534620F00700854618B020B5FFF731
:10021000DDFFBDE820404FF000064FF000074FF033
:1002200000084FF0000B21F00701AC46ACE8C00914
:10023000ACE8C009ACE8C009ACE8C0098D4670471D
:1002400010B50446AFF300802046BDE81040FFF72C
:10025000A8BF000000487047000000200149182096
:10026000ABBEFEE7260002007047704710B500F0F5
:1002700001F810BD0CB500200190009033480068D3
:1002800040F480303149086000BF3048006800F415
:10029000003000900198401C0190009818B9019816
:1002A000B0F5A06FF1D12948006800F4003010B11A
:1002B0000120009001E0002000900098012843D127
:1002C0002348006840F01000214908600846006893
:1002D00020F0030008600846006840F00200086053
:1002E0001A4840681949486008464068486008460E
:1002F000406840F4806048600846406820F47C1004
:1003000048600846406840F4E810486008460068C5
:1003100040F08070086000BF0C48006800F000707A
:100320000028F9D00948406820F0030007494860D8
:100330000846406840F00200486000BF034840683B
:1003400000F00C000828F9D10CBD0000001002409C
:100350000020024010B51348006840F00100114928
:10036000086008464068104908400E494860084641
:1003700000680E4908400B4908600846006820F4F0
:10038000802008600846406820F4FE0048604FF472
:100390001F008860FFF76AFF4FF0006004490860A3
:1003A00010BD0000001002400000FFF8FFFFF6FE45
:1003B00008ED00E010B500F06DF810BD03480068CE
:1003C00040F010000149086070470000100801402B
:1003D0000348006840F4801001490860704700003D
:1003E000100801400549087300BF0449098901F05C
:1003F00001010029F9D00149898970470030014085
:100400001E48806940F005001C4988611C4800684E
:100410001C4908401A490860084600681A49084300
:1004200017490860084600681849084314490860DD
:1004300013481030006840F0040011491031086082
:100440000846006840F0100008600C48806940F4DD
:1004500080500A4988610E48008840F237110843ED
:100460000B4908800846808840F0040088800846D0
:10047000008840F0400008807047000000100240F3
:1004800000080140FFF333330001111100008088A0
:100490000030014010B5FFF7B3FF00F001F810BDC8
:1004A00010B5FFF795FFFF20FFF79CFFFFF786FFD2
:1004B00010BD0000FFF7D9FEFFF77CFF13488069ED
:1004C00040F01000114988611148406820F4400054
:1004D0000F4948600846406840F4001048604FF6F5
:1004E000FF70C86010E000200949C860094800E0BA
:1004F000401E0028FCDC4FF6FF700549C860054827
:1005000000E0401E0028FCDCEDE700000010024087
:100510000010014080969800280500080000002087
:08052000600600006C010008F8
:0400000508000131BD
:00000001FF
